{
  "contractName": "Market",
  "abi": [
    {
      "constant": true,
      "inputs": [],
      "name": "LN2",
      "outputs": [
        {
          "name": "",
          "type": "uint256"
        }
      ],
      "payable": false,
      "stateMutability": "view",
      "type": "function"
    },
    {
      "constant": true,
      "inputs": [],
      "name": "reserveRatio",
      "outputs": [
        {
          "name": "",
          "type": "uint32"
        }
      ],
      "payable": false,
      "stateMutability": "view",
      "type": "function"
    },
    {
      "constant": true,
      "inputs": [
        {
          "name": "",
          "type": "address"
        }
      ],
      "name": "mProviders",
      "outputs": [
        {
          "name": "provider",
          "type": "address"
        },
        {
          "name": "numOCN",
          "type": "uint256"
        },
        {
          "name": "allowanceOCN",
          "type": "uint256"
        },
        {
          "name": "uploadBits",
          "type": "uint256"
        },
        {
          "name": "downloadBits",
          "type": "uint256"
        }
      ],
      "payable": false,
      "stateMutability": "view",
      "type": "function"
    },
    {
      "constant": true,
      "inputs": [],
      "name": "totalSupply",
      "outputs": [
        {
          "name": "",
          "type": "uint256"
        }
      ],
      "payable": false,
      "stateMutability": "view",
      "type": "function"
    },
    {
      "constant": true,
      "inputs": [],
      "name": "reward",
      "outputs": [
        {
          "name": "",
          "type": "uint256"
        }
      ],
      "payable": false,
      "stateMutability": "view",
      "type": "function"
    },
    {
      "constant": true,
      "inputs": [
        {
          "name": "",
          "type": "uint256"
        }
      ],
      "name": "mAssets",
      "outputs": [
        {
          "name": "ndrops",
          "type": "uint256"
        },
        {
          "name": "bitSize",
          "type": "uint256"
        }
      ],
      "payable": false,
      "stateMutability": "view",
      "type": "function"
    },
    {
      "constant": true,
      "inputs": [],
      "name": "LOG2_E",
      "outputs": [
        {
          "name": "",
          "type": "uint256"
        }
      ],
      "payable": false,
      "stateMutability": "view",
      "type": "function"
    },
    {
      "constant": true,
      "inputs": [
        {
          "name": "_supply",
          "type": "uint256"
        },
        {
          "name": "_connectorBalance",
          "type": "uint256"
        },
        {
          "name": "_connectorWeight",
          "type": "uint32"
        },
        {
          "name": "_depositAmount",
          "type": "uint256"
        }
      ],
      "name": "calculatePurchaseReturn",
      "outputs": [
        {
          "name": "",
          "type": "uint256"
        }
      ],
      "payable": false,
      "stateMutability": "view",
      "type": "function"
    },
    {
      "constant": true,
      "inputs": [],
      "name": "Rtotal",
      "outputs": [
        {
          "name": "",
          "type": "uint256"
        }
      ],
      "payable": false,
      "stateMutability": "view",
      "type": "function"
    },
    {
      "constant": true,
      "inputs": [
        {
          "name": "_supply",
          "type": "uint256"
        },
        {
          "name": "_connectorBalance",
          "type": "uint256"
        },
        {
          "name": "_connectorWeight",
          "type": "uint32"
        },
        {
          "name": "_sellAmount",
          "type": "uint256"
        }
      ],
      "name": "calculateSaleReturn",
      "outputs": [
        {
          "name": "",
          "type": "uint256"
        }
      ],
      "payable": false,
      "stateMutability": "view",
      "type": "function"
    },
    {
      "constant": true,
      "inputs": [],
      "name": "version",
      "outputs": [
        {
          "name": "",
          "type": "string"
        }
      ],
      "payable": false,
      "stateMutability": "view",
      "type": "function"
    },
    {
      "constant": true,
      "inputs": [],
      "name": "rewardPool",
      "outputs": [
        {
          "name": "",
          "type": "uint256"
        }
      ],
      "payable": false,
      "stateMutability": "view",
      "type": "function"
    },
    {
      "constant": true,
      "inputs": [],
      "name": "mAllowance",
      "outputs": [
        {
          "name": "",
          "type": "uint256"
        }
      ],
      "payable": false,
      "stateMutability": "view",
      "type": "function"
    },
    {
      "constant": true,
      "inputs": [],
      "name": "poolBalance",
      "outputs": [
        {
          "name": "",
          "type": "uint256"
        }
      ],
      "payable": false,
      "stateMutability": "view",
      "type": "function"
    },
    {
      "constant": true,
      "inputs": [],
      "name": "ONE",
      "outputs": [
        {
          "name": "",
          "type": "uint256"
        }
      ],
      "payable": false,
      "stateMutability": "view",
      "type": "function"
    },
    {
      "constant": true,
      "inputs": [],
      "name": "mToken",
      "outputs": [
        {
          "name": "",
          "type": "address"
        }
      ],
      "payable": false,
      "stateMutability": "view",
      "type": "function"
    },
    {
      "constant": true,
      "inputs": [],
      "name": "tcr",
      "outputs": [
        {
          "name": "",
          "type": "address"
        }
      ],
      "payable": false,
      "stateMutability": "view",
      "type": "function"
    },
    {
      "constant": true,
      "inputs": [],
      "name": "tokensToMint",
      "outputs": [
        {
          "name": "",
          "type": "uint256"
        }
      ],
      "payable": false,
      "stateMutability": "view",
      "type": "function"
    },
    {
      "constant": true,
      "inputs": [],
      "name": "Rij",
      "outputs": [
        {
          "name": "",
          "type": "uint256"
        }
      ],
      "payable": false,
      "stateMutability": "view",
      "type": "function"
    },
    {
      "constant": true,
      "inputs": [],
      "name": "mOwner",
      "outputs": [
        {
          "name": "",
          "type": "address"
        }
      ],
      "payable": false,
      "stateMutability": "view",
      "type": "function"
    },
    {
      "constant": false,
      "inputs": [
        {
          "name": "_newOwner",
          "type": "address"
        }
      ],
      "name": "transferOwnership",
      "outputs": [],
      "payable": false,
      "stateMutability": "nonpayable",
      "type": "function"
    },
    {
      "constant": true,
      "inputs": [],
      "name": "Rdiff",
      "outputs": [
        {
          "name": "",
          "type": "uint256"
        }
      ],
      "payable": false,
      "stateMutability": "view",
      "type": "function"
    },
    {
      "anonymous": false,
      "inputs": [
        {
          "indexed": true,
          "name": "previousOwner",
          "type": "address"
        },
        {
          "indexed": true,
          "name": "newOwner",
          "type": "address"
        }
      ],
      "name": "OwnershipTransferred",
      "type": "event"
    },
    {
      "constant": true,
      "inputs": [],
      "name": "numBuyDrops",
      "outputs": [
        {
          "name": "",
          "type": "uint256"
        }
      ],
      "payable": false,
      "stateMutability": "view",
      "type": "function"
    },
    {
      "constant": true,
      "inputs": [
        {
          "name": "assetId",
          "type": "uint256"
        }
      ],
      "name": "dropsBalance",
      "outputs": [
        {
          "name": "",
          "type": "uint256"
        }
      ],
      "payable": false,
      "stateMutability": "view",
      "type": "function"
    },
    {
      "constant": true,
      "inputs": [
        {
          "name": "assetId",
          "type": "uint256"
        }
      ],
      "name": "numDownload",
      "outputs": [
        {
          "name": "",
          "type": "uint256"
        }
      ],
      "payable": false,
      "stateMutability": "view",
      "type": "function"
    },
    {
      "constant": true,
      "inputs": [],
      "name": "queryRij",
      "outputs": [
        {
          "name": "",
          "type": "uint256"
        }
      ],
      "payable": false,
      "stateMutability": "view",
      "type": "function"
    },
    {
      "constant": true,
      "inputs": [],
      "name": "queryRdiff",
      "outputs": [
        {
          "name": "",
          "type": "uint256"
        }
      ],
      "payable": false,
      "stateMutability": "view",
      "type": "function"
    },
    {
      "constant": true,
      "inputs": [],
      "name": "queryReward",
      "outputs": [
        {
          "name": "",
          "type": "uint256"
        }
      ],
      "payable": false,
      "stateMutability": "view",
      "type": "function"
    },
    {
      "constant": true,
      "inputs": [],
      "name": "queryRewardPool",
      "outputs": [
        {
          "name": "",
          "type": "uint256"
        }
      ],
      "payable": false,
      "stateMutability": "view",
      "type": "function"
    },
    {
      "constant": true,
      "inputs": [],
      "name": "tokenBalance",
      "outputs": [
        {
          "name": "",
          "type": "uint256"
        }
      ],
      "payable": false,
      "stateMutability": "view",
      "type": "function"
    },
    {
      "constant": false,
      "inputs": [
        {
          "name": "_tokenAddress",
          "type": "address"
        },
        {
          "name": "_tcrAddress",
          "type": "address"
        }
      ],
      "name": "CurationMarket",
      "outputs": [],
      "payable": false,
      "stateMutability": "nonpayable",
      "type": "function"
    },
    {
      "constant": false,
      "inputs": [
        {
          "name": "assetId",
          "type": "uint256"
        }
      ],
      "name": "register",
      "outputs": [
        {
          "name": "success",
          "type": "bool"
        }
      ],
      "payable": false,
      "stateMutability": "nonpayable",
      "type": "function"
    },
    {
      "constant": false,
      "inputs": [
        {
          "name": "amount",
          "type": "uint256"
        }
      ],
      "name": "requestTokens",
      "outputs": [
        {
          "name": "",
          "type": "uint256"
        }
      ],
      "payable": false,
      "stateMutability": "nonpayable",
      "type": "function"
    },
    {
      "constant": false,
      "inputs": [
        {
          "name": "assetId",
          "type": "uint256"
        }
      ],
      "name": "serveRequest",
      "outputs": [
        {
          "name": "",
          "type": "bool"
        }
      ],
      "payable": false,
      "stateMutability": "nonpayable",
      "type": "function"
    },
    {
      "constant": false,
      "inputs": [
        {
          "name": "assetId",
          "type": "uint256"
        }
      ],
      "name": "calcReward",
      "outputs": [
        {
          "name": "",
          "type": "bool"
        }
      ],
      "payable": false,
      "stateMutability": "nonpayable",
      "type": "function"
    },
    {
      "constant": false,
      "inputs": [],
      "name": "withdraw",
      "outputs": [
        {
          "name": "",
          "type": "bool"
        }
      ],
      "payable": false,
      "stateMutability": "nonpayable",
      "type": "function"
    },
    {
      "constant": false,
      "inputs": [],
      "name": "mintToken",
      "outputs": [
        {
          "name": "balance",
          "type": "uint256"
        }
      ],
      "payable": false,
      "stateMutability": "nonpayable",
      "type": "function"
    },
    {
      "constant": false,
      "inputs": [
        {
          "name": "_assetId",
          "type": "uint256"
        },
        {
          "name": "_ocn",
          "type": "uint256"
        }
      ],
      "name": "buyDrops",
      "outputs": [
        {
          "name": "_drops",
          "type": "uint256"
        }
      ],
      "payable": false,
      "stateMutability": "nonpayable",
      "type": "function"
    },
    {
      "constant": false,
      "inputs": [
        {
          "name": "_assetId",
          "type": "uint256"
        },
        {
          "name": "_drops",
          "type": "uint256"
        }
      ],
      "name": "sellDrops",
      "outputs": [
        {
          "name": "_ocn",
          "type": "uint256"
        }
      ],
      "payable": false,
      "stateMutability": "nonpayable",
      "type": "function"
    },
    {
      "constant": false,
      "inputs": [
        {
          "name": "_assetId",
          "type": "uint256"
        }
      ],
      "name": "calcRij",
      "outputs": [
        {
          "name": "",
          "type": "uint256"
        }
      ],
      "payable": false,
      "stateMutability": "nonpayable",
      "type": "function"
    },
    {
      "constant": false,
      "inputs": [
        {
          "name": "secret",
          "type": "uint256"
        }
      ],
      "name": "commitRandom",
      "outputs": [
        {
          "name": "success",
          "type": "bool"
        }
      ],
      "payable": false,
      "stateMutability": "nonpayable",
      "type": "function"
    },
    {
      "constant": true,
      "inputs": [],
      "name": "getRandom",
      "outputs": [
        {
          "name": "",
          "type": "uint256"
        }
      ],
      "payable": false,
      "stateMutability": "view",
      "type": "function"
    }
  ],
  "bytecode": "0x60606040526040805190810160405280600381526020017f302e330000000000000000000000000000000000000000000000000000000000815250600090805190602001906200005192919062001011565b506040805190810160405280600381526020017f302e330000000000000000000000000000000000000000000000000000000000815250608190805190602001906200009f92919062001011565b50610100608d556103e8608e5560fa608f556207a120609060006101000a81548163ffffffff021916908363ffffffff1602179055506000609155701c35fedd14ffffffffffffffffffffffff60016020608081101515620000fd57fe5b0181905550701b0ce43b323fffffffffffffffffffffff600160216080811015156200012557fe5b01819055507019f0028ec1ffffffffffffffffffffffff600160226080811015156200014d57fe5b01819055507018ded91f0e7fffffffffffffffffffffff600160236080811015156200017557fe5b01819055507017d8ec7f0417ffffffffffffffffffffff600160246080811015156200019d57fe5b01819055507016ddc6556cdbffffffffffffffffffffff60016025608081101515620001c557fe5b01819055507015ecf52776a1ffffffffffffffffffffff60016026608081101515620001ed57fe5b01819055507015060c256cb2ffffffffffffffffffffff600160276080811015156200021557fe5b0181905550701428a2f98d72ffffffffffffffffffffff600160286080811015156200023d57fe5b01819055507013545598e5c23fffffffffffffffffffff600160296080811015156200026557fe5b0181905550701288c4161ce1dfffffffffffffffffffff6001602a6080811015156200028d57fe5b01819055507011c592761c666fffffffffffffffffffff6001602b608081101515620002b557fe5b018190555070110a688680a757ffffffffffffffffffff6001602c608081101515620002dd57fe5b0181905550701056f1b5bedf77ffffffffffffffffffff6001602d6080811015156200030557fe5b0181905550700faadceceeff8bffffffffffffffffffff6001602e6080811015156200032d57fe5b0181905550700f05dc6b27edadffffffffffffffffffff6001602f6080811015156200035557fe5b0181905550700e67a5a25da4107fffffffffffffffffff600160306080811015156200037d57fe5b0181905550700dcff115b14eedffffffffffffffffffff60016031608081101515620003a557fe5b0181905550700d3e7a392431239fffffffffffffffffff60016032608081101515620003cd57fe5b0181905550700cb2ff529eb71e4fffffffffffffffffff60016033608081101515620003f557fe5b0181905550700c2d415c3db974afffffffffffffffffff600160346080811015156200041d57fe5b0181905550700bad03e7d883f69bffffffffffffffffff600160356080811015156200044557fe5b0181905550700b320d03b2c343d5ffffffffffffffffff600160366080811015156200046d57fe5b0181905550700abc25204e02828dffffffffffffffffff600160376080811015156200049557fe5b0181905550700a4b16f74ee4bb207fffffffffffffffff60016038608081101515620004bd57fe5b01819055507009deaf736ac1f569ffffffffffffffffff60016039608081101515620004e557fe5b0181905550700976bd9952c7aa957fffffffffffffffff6001603a6080811015156200050d57fe5b01819055507009131271922eaa606fffffffffffffffff6001603b6080811015156200053557fe5b01819055507008b380f3558668c46fffffffffffffffff6001603c6080811015156200055d57fe5b0181905550700857ddf0117efa215bffffffffffffffff6001603d6080811015156200058557fe5b01819055507007ffffffffffffffffffffffffffffffff6001603e608081101515620005ad57fe5b01819055507007abbf6f6abb9d087fffffffffffffffff6001603f608081101515620005d557fe5b018190555070075af62cbac95f7dfa7fffffffffffffff60016040608081101515620005fd57fe5b018190555070070d7fb7452e187ac13fffffffffffffff600160416080811015156200062557fe5b01819055507006c3390ecc8af379295fffffffffffffff600160426080811015156200064d57fe5b018190555070067c00a3b07ffc01fd6fffffffffffffff600160436080811015156200067557fe5b0181905550700637b647c39cbb9d3d27ffffffffffffff600160446080811015156200069d57fe5b01819055507005f63b1fc104dbd39587ffffffffffffff60016045608081101515620006c557fe5b01819055507005b771955b36e12f7235ffffffffffffff60016046608081101515620006ed57fe5b018190555070057b3d49dda84556d6f6ffffffffffffff600160476080811015156200071557fe5b018190555070054183095b2c8ececf30ffffffffffffff600160486080811015156200073d57fe5b018190555070050a28be635ca2b888f77fffffffffffff600160496080811015156200076557fe5b01819055507004d5156639708c9db33c3fffffffffffff6001604a6080811015156200078d57fe5b01819055507004a23105873875bd52dfdfffffffffffff6001604b608081101515620007b557fe5b0181905550700471649d87199aa990756fffffffffffff6001604c608081101515620007dd57fe5b01819055507004429a21a029d4c1457cfbffffffffffff6001604d6080811015156200080557fe5b0181905550700415bc6d6fb7dd71af2cb3ffffffffffff6001604e6080811015156200082d57fe5b01819055507003eab73b3bbfe282243ce1ffffffffffff6001604f6080811015156200085557fe5b01819055507003c1771ac9fb6b4c18e229ffffffffffff600160506080811015156200087d57fe5b0181905550700399e96897690418f785257fffffffffff60016051608081101515620008a557fe5b0181905550700373fc456c53bb779bf0ea9fffffffffff60016052608081101515620008cd57fe5b018190555070034f9e8e490c48e67e6ab8bfffffffffff60016053608081101515620008f557fe5b018190555070032cbfd4a7adc790560b3337ffffffffff600160546080811015156200091d57fe5b018190555070030b50570f6e5d2acca94613ffffffffff600160556080811015156200094557fe5b01819055507002eb40f9f620fda6b56c2861ffffffffff600160566080811015156200096d57fe5b01819055507002cc8340ecb0d0f520a6af58ffffffffff600160576080811015156200099557fe5b01819055507002af09481380a0a35cf1ba02ffffffffff60016058608081101515620009bd57fe5b0181905550700292c5bdd3b92ec810287b1b3fffffffff60016059608081101515620009e557fe5b0181905550700277abdcdab07d5a77ac6d6b9fffffffff6001605a60808110151562000a0d57fe5b018190555070025daf6654b1eaa55fd64df5efffffffff6001605b60808110151562000a3557fe5b0181905550700244c49c648baa98192dce88b7ffffffff6001605c60808110151562000a5d57fe5b018190555070022ce03cd5619a311b2471268bffffffff6001605d60808110151562000a8557fe5b0181905550700215f77c045fbe885654a44a0fffffffff6001605e60808110151562000aad57fe5b01819055507001ffffffffffffffffffffffffffffffff6001605f60808110151562000ad557fe5b01819055507001eaefdbdaaee7421fc4d3ede5ffffffff6001606060808110151562000afd57fe5b01819055507001d6bd8b2eb257df7e8ca57b09bfffffff6001606160808110151562000b2557fe5b01819055507001c35fedd14b861eb0443f7f133fffffff6001606260808110151562000b4d57fe5b01819055507001b0ce43b322bcde4a56e8ada5afffffff6001606360808110151562000b7557fe5b018190555070019f0028ec1fff007f5a195a39dfffffff6001606460808110151562000b9d57fe5b018190555070018ded91f0e72ee74f49b15ba527ffffff6001606560808110151562000bc557fe5b018190555070017d8ec7f04136f4e5615fd41a63ffffff6001606660808110151562000bed57fe5b018190555070016ddc6556cdb84bdc8d12d22e6fffffff6001606760808110151562000c1557fe5b018190555070015ecf52776a1155b5bd8395814f7fffff6001606860808110151562000c3d57fe5b018190555070015060c256cb23b3b3cc3754cf40ffffff6001606960808110151562000c6557fe5b01819055507001428a2f98d728ae223ddab715be3fffff6001606a60808110151562000c8d57fe5b018190555070013545598e5c23276ccf0ede68034fffff6001606b60808110151562000cb557fe5b01819055507001288c4161ce1d6f54b7f61081194fffff6001606c60808110151562000cdd57fe5b018190555070011c592761c666aa641d5a01a40f17ffff6001606d60808110151562000d0557fe5b0181905550700110a688680a7530515f3e6e6cfdcdffff6001606e60808110151562000d2d57fe5b01819055507001056f1b5bedf75c6bcb2ce8aed428ffff6001606f60808110151562000d5557fe5b01819055506ffaadceceeff8a0890f3875f008277fff6001607060808110151562000d7c57fe5b01819055506ff05dc6b27edad306388a600f6ba0bfff6001607160808110151562000da357fe5b01819055506fe67a5a25da41063de1495d5b18cdbfff6001607260808110151562000dca57fe5b01819055506fdcff115b14eedde6fc3aa5353f2e4fff6001607360808110151562000df157fe5b01819055506fd3e7a3924312399f9aae2e0f868f8fff6001607460808110151562000e1857fe5b01819055506fcb2ff529eb71e41582cccd5a1ee26fff6001607560808110151562000e3f57fe5b01819055506fc2d415c3db974ab32a51840c0b67edff6001607660808110151562000e6657fe5b01819055506fbad03e7d883f69ad5b0a186184e06bff6001607760808110151562000e8d57fe5b01819055506fb320d03b2c343d4829abd6075f0cc5ff6001607860808110151562000eb457fe5b01819055506fabc25204e02828d73c6e80bcdb1a95bf6001607960808110151562000edb57fe5b01819055506fa4b16f74ee4bb2040a1ec6c15fbbf2df6001607a60808110151562000f0257fe5b01819055506f9deaf736ac1f569deb1b5ae3f36c130f6001607b60808110151562000f2957fe5b01819055506f976bd9952c7aa957f5937d790ef650376001607c60808110151562000f5057fe5b01819055506f9131271922eaa6064b73a22d0bd4f2bf6001607d60808110151562000f7757fe5b01819055506f8b380f3558668c46c91c49a2f8e967b96001607e60808110151562000f9e57fe5b01819055506f857ddf0117efa215952912839f6473e66001607f60808110151562000fc557fe5b018190555033608260006101000a81548173ffffffffffffffffffffffffffffffffffffffff021916908373ffffffffffffffffffffffffffffffffffffffff160217905550620010c0565b828054600181600116156101000203166002900490600052602060002090601f016020900481019282601f106200105457805160ff191683800117855562001085565b8280016001018555821562001085579182015b828111156200108457825182559160200191906001019062001067565b5b50905062001094919062001098565b5090565b620010bd91905b80821115620010b95760008160009055506001016200109f565b5090565b90565b612eb280620010d06000396000f300606060405260043610610204576000357c0100000000000000000000000000000000000000000000000000000000900463ffffffff168063024abbe91461020957806302780677146102405780630c7d5cd8146102695780631642cfbb1461029e57806318160ddd146103335780632004ffd91461035c578063228cb73314610385578063242d9b12146103ae57806324902e24146103ec57806329a00e7c146104155780632c70186c1461046d5780632c79db111461049657806336dd4b27146104bf5780633ccfd60b1461051757806340124ea81461054457806349f9b0f71461057b5780634faaf60d146105d3578063544c465c1461060e57806354fd4d501461064957806358bd1995146106d757806366666aa9146107175780636855d79d1461074057806376559e2d1461076957806396365d44146107925780639e1a4d19146107bb578063a152a9d1146107e4578063aacc5a171461080d578063b8ef5a3814610836578063be2391081461086d578063c2ee3a08146108a8578063c3b6f939146108d1578063c438aeb514610926578063c6beb8841461097b578063cb764d08146109bb578063cbafee8a146109e4578063d2af738d14610a0d578063dcda4bf314610a36578063eef9c27c14610a8b578063f207564e14610ac2578063f2fde38b14610afd578063f40012f914610b36578063fdccc71c14610b5f575b600080fd5b341561021457600080fd5b61022a6004808035906020019091905050610b88565b6040518082815260200191505060405180910390f35b341561024b57600080fd5b610253610ea8565b6040518082815260200191505060405180910390f35b341561027457600080fd5b61027c610eb4565b604051808263ffffffff1663ffffffff16815260200191505060405180910390f35b34156102a957600080fd5b6102d5600480803573ffffffffffffffffffffffffffffffffffffffff16906020019091905050610eca565b604051808673ffffffffffffffffffffffffffffffffffffffff1673ffffffffffffffffffffffffffffffffffffffff1681526020018581526020018481526020018381526020018281526020019550505050505060405180910390f35b341561033e57600080fd5b610346610f20565b6040518082815260200191505060405180910390f35b341561036757600080fd5b61036f610f26565b6040518082815260200191505060405180910390f35b341561039057600080fd5b61039861119e565b6040518082815260200191505060405180910390f35b34156103b957600080fd5b6103cf60048080359060200190919050506111a4565b604051808381526020018281526020019250505060405180910390f35b34156103f757600080fd5b6103ff6111c8565b6040518082815260200191505060405180910390f35b341561042057600080fd5b610457600480803590602001909190803590602001909190803563ffffffff169060200190919080359060200190919050506111d5565b6040518082815260200191505060405180910390f35b341561047857600080fd5b6104806112d6565b6040518082815260200191505060405180910390f35b34156104a157600080fd5b6104a96112dc565b6040518082815260200191505060405180910390f35b34156104ca57600080fd5b610515600480803573ffffffffffffffffffffffffffffffffffffffff1690602001909190803573ffffffffffffffffffffffffffffffffffffffff169060200190919050506112e6565b005b341561052257600080fd5b61052a611555565b604051808215151515815260200191505060405180910390f35b341561054f57600080fd5b6105656004808035906020019091905050611733565b6040518082815260200191505060405180910390f35b341561058657600080fd5b6105bd600480803590602001909190803590602001909190803563ffffffff169060200190919080359060200190919050506117b5565b6040518082815260200191505060405180910390f35b34156105de57600080fd5b6105f460048080359060200190919050506118e9565b604051808215151515815260200191505060405180910390f35b341561061957600080fd5b61062f60048080359060200190919050506119dd565b604051808215151515815260200191505060405180910390f35b341561065457600080fd5b61065c6119fe565b6040518080602001828103825283818151815260200191508051906020019080838360005b8381101561069c578082015181840152602081019050610681565b50505050905090810190601f1680156106c95780820380516001836020036101000a031916815260200191505b509250505060405180910390f35b34156106e257600080fd5b6107016004808035906020019091908035906020019091905050611a9c565b6040518082815260200191505060405180910390f35b341561072257600080fd5b61072a611cdf565b6040518082815260200191505060405180910390f35b341561074b57600080fd5b610753611ce5565b6040518082815260200191505060405180910390f35b341561077457600080fd5b61077c611d14565b6040518082815260200191505060405180910390f35b341561079d57600080fd5b6107a5611d1a565b6040518082815260200191505060405180910390f35b34156107c657600080fd5b6107ce611d20565b6040518082815260200191505060405180910390f35b34156107ef57600080fd5b6107f7611df1565b6040518082815260200191505060405180910390f35b341561081857600080fd5b610820611dfb565b6040518082815260200191505060405180910390f35b341561084157600080fd5b6108576004808035906020019091905050611e12565b6040518082815260200191505060405180910390f35b341561087857600080fd5b61088e6004808035906020019091905050611e94565b604051808215151515815260200191505060405180910390f35b34156108b357600080fd5b6108bb611eaf565b6040518082815260200191505060405180910390f35b34156108dc57600080fd5b6108e4611ebc565b604051808273ffffffffffffffffffffffffffffffffffffffff1673ffffffffffffffffffffffffffffffffffffffff16815260200191505060405180910390f35b341561093157600080fd5b610939611ee2565b604051808273ffffffffffffffffffffffffffffffffffffffff1673ffffffffffffffffffffffffffffffffffffffff16815260200191505060405180910390f35b341561098657600080fd5b6109a56004808035906020019091908035906020019091905050611f08565b6040518082815260200191505060405180910390f35b34156109c657600080fd5b6109ce61228c565b6040518082815260200191505060405180910390f35b34156109ef57600080fd5b6109f7612296565b6040518082815260200191505060405180910390f35b3415610a1857600080fd5b610a2061229c565b6040518082815260200191505060405180910390f35b3415610a4157600080fd5b610a496122a2565b604051808273ffffffffffffffffffffffffffffffffffffffff1673ffffffffffffffffffffffffffffffffffffffff16815260200191505060405180910390f35b3415610a9657600080fd5b610aac60048080359060200190919050506122c8565b6040518082815260200191505060405180910390f35b3415610acd57600080fd5b610ae3600480803590602001909190505061240d565b604051808215151515815260200191505060405180910390f35b3415610b0857600080fd5b610b34600480803573ffffffffffffffffffffffffffffffffffffffff169060200190919050506125bf565b005b3415610b4157600080fd5b610b4961269b565b6040518082815260200191505060405180910390f35b3415610b6a57600080fd5b610b726126a5565b6040518082815260200191505060405180910390f35b6000806000806000608460003373ffffffffffffffffffffffffffffffffffffffff1673ffffffffffffffffffffffffffffffffffffffff16815260200190815260200160002060000160009054906101000a900473ffffffffffffffffffffffffffffffffffffffff1673ffffffffffffffffffffffffffffffffffffffff1614151515610c1657600080fd5b60006087541415610c2a5760009350610ea0565b610c936000610c8b6083600089815260200190815260200160002060020160003373ffffffffffffffffffffffffffffffffffffffff1673ffffffffffffffffffffffffffffffffffffffff168152602001908152602001600020546126ab565b60ff1661273d565b9250610cfe6000610cf66083600089815260200190815260200160002060030160003373ffffffffffffffffffffffffffffffffffffffff1673ffffffffffffffffffffffffffffffffffffffff168152602001908152602001600020546126ab565b60ff1661273d565b91506000608460003373ffffffffffffffffffffffffffffffffffffffff1673ffffffffffffffffffffffffffffffffffffffff16815260200190815260200160002060040154141515610de357608460003373ffffffffffffffffffffffffffffffffffffffff1673ffffffffffffffffffffffffffffffffffffffff16815260200190815260200160002060040154608460003373ffffffffffffffffffffffffffffffffffffffff1673ffffffffffffffffffffffffffffffffffffffff16815260200190815260200160002060030154811515610ddb57fe5b049050610de8565b600190505b8082840202608a81905550608a54608860008282540192505081905550610e1660885460895460020261273d565b608981905550608954608a5460875402811515610e2f57fe5b04608b81905550608b54608760008282540392505081905550608b54608460003373ffffffffffffffffffffffffffffffffffffffff1673ffffffffffffffffffffffffffffffffffffffff16815260200190815260200160002060010160008282540192505081905550608b5493505b505050919050565b67b17217f7d1cf79ac81565b609060009054906101000a900463ffffffff1681565b60846020528060005260406000206000915090508060000160009054906101000a900473ffffffffffffffffffffffffffffffffffffffff16908060010154908060020154908060030154908060040154905085565b608e5481565b6000806000608560009054906101000a900473ffffffffffffffffffffffffffffffffffffffff1673ffffffffffffffffffffffffffffffffffffffff166370a08231306040518263ffffffff167c0100000000000000000000000000000000000000000000000000000000028152600401808273ffffffffffffffffffffffffffffffffffffffff1673ffffffffffffffffffffffffffffffffffffffff168152602001915050602060405180830381600087803b1515610fe757600080fd5b5af11515610ff457600080fd5b505050604051805190509150608560009054906101000a900473ffffffffffffffffffffffffffffffffffffffff1673ffffffffffffffffffffffffffffffffffffffff1663c89aee836040518163ffffffff167c0100000000000000000000000000000000000000000000000000000000028152600401602060405180830381600087803b151561108557600080fd5b5af1151561109257600080fd5b5050506040518051905015156110a757600080fd5b608560009054906101000a900473ffffffffffffffffffffffffffffffffffffffff1673ffffffffffffffffffffffffffffffffffffffff166370a08231306040518263ffffffff167c0100000000000000000000000000000000000000000000000000000000028152600401808273ffffffffffffffffffffffffffffffffffffffff1673ffffffffffffffffffffffffffffffffffffffff168152602001915050602060405180830381600087803b151561116357600080fd5b5af1151561117057600080fd5b5050506040518051905090506000608781905550818103608660008282540192505081905550809250505090565b608b5481565b60836020528060005260406000206000915090508060000154908060010154905082565b680171547652b82fe17781565b600080600080600080891180156111ec5750600088115b80156111fe575060008763ffffffff16115b80156112195750620f424063ffffffff168763ffffffff1611155b151561122457600080fd5b600086141561123657600094506112ca565b620f424063ffffffff168763ffffffff1614156112795761127288611264888c61275990919063ffffffff16565b61278c90919063ffffffff16565b94506112ca565b61128c88876127a790919063ffffffff16565b915061129d828989620f42406127c5565b80945081955050508260ff166112bc858b61275990919063ffffffff16565b9060020a9004905088810394505b50505050949350505050565b60885481565b6000608b54905090565b600073ffffffffffffffffffffffffffffffffffffffff168273ffffffffffffffffffffffffffffffffffffffff161415151561132257600080fd5b81608560006101000a81548173ffffffffffffffffffffffffffffffffffffffff021916908373ffffffffffffffffffffffffffffffffffffffff16021790555080609260006101000a81548173ffffffffffffffffffffffffffffffffffffffff021916908373ffffffffffffffffffffffffffffffffffffffff160217905550608560009054906101000a900473ffffffffffffffffffffffffffffffffffffffff1673ffffffffffffffffffffffffffffffffffffffff1663718da7ee306040518263ffffffff167c0100000000000000000000000000000000000000000000000000000000028152600401808273ffffffffffffffffffffffffffffffffffffffff1673ffffffffffffffffffffffffffffffffffffffff168152602001915050602060405180830381600087803b151561146057600080fd5b5af1151561146d57600080fd5b5050506040518051905050608560009054906101000a900473ffffffffffffffffffffffffffffffffffffffff1673ffffffffffffffffffffffffffffffffffffffff166370a08231306040518263ffffffff167c0100000000000000000000000000000000000000000000000000000000028152600401808273ffffffffffffffffffffffffffffffffffffffff1673ffffffffffffffffffffffffffffffffffffffff168152602001915050602060405180830381600087803b151561153457600080fd5b5af1151561154157600080fd5b505050604051805190506086819055505050565b600080608460003373ffffffffffffffffffffffffffffffffffffffff1673ffffffffffffffffffffffffffffffffffffffff1681526020019081526020016000206001015490506000608460003373ffffffffffffffffffffffffffffffffffffffff1673ffffffffffffffffffffffffffffffffffffffff168152602001908152602001600020600101819055508060866000828254039250508190555080608460003373ffffffffffffffffffffffffffffffffffffffff1673ffffffffffffffffffffffffffffffffffffffff16815260200190815260200160002060020160008282540392505081905550608560009054906101000a900473ffffffffffffffffffffffffffffffffffffffff1673ffffffffffffffffffffffffffffffffffffffff1663a9059cbb33836040518363ffffffff167c0100000000000000000000000000000000000000000000000000000000028152600401808373ffffffffffffffffffffffffffffffffffffffff1673ffffffffffffffffffffffffffffffffffffffff16815260200182815260200192505050602060405180830381600087803b151561170957600080fd5b5af1151561171657600080fd5b50505060405180519050151561172b57600080fd5b600191505090565b6000803373ffffffffffffffffffffffffffffffffffffffff161415151561175a57600080fd5b6083600083815260200190815260200160002060030160003373ffffffffffffffffffffffffffffffffffffffff1673ffffffffffffffffffffffffffffffffffffffff168152602001908152602001600020549050919050565b60008060008060008060008a1180156117ce5750600089115b80156117e0575060008863ffffffff16115b80156117fb5750620f424063ffffffff168863ffffffff1611155b80156118075750898711155b151561181257600080fd5b600087141561182457600095506118dc565b89871415611834578895506118dc565b620f424063ffffffff168863ffffffff161415611877576118708a611862898c61275990919063ffffffff16565b61278c90919063ffffffff16565b95506118dc565b868a03925061188b8a84620f42408b6127c5565b80955081965050506118a6858a61275990919063ffffffff16565b91508360ff16899060020a0290506118d9856118cb838561282290919063ffffffff16565b61278c90919063ffffffff16565b95505b5050505050949350505050565b600080608460003373ffffffffffffffffffffffffffffffffffffffff1673ffffffffffffffffffffffffffffffffffffffff16815260200190815260200160002060000160009054906101000a900473ffffffffffffffffffffffffffffffffffffffff1673ffffffffffffffffffffffffffffffffffffffff161415151561197257600080fd5b60016083600084815260200190815260200160002060030160003373ffffffffffffffffffffffffffffffffffffffff1673ffffffffffffffffffffffffffffffffffffffff1681526020019081526020016000206000828254019250508190555060019050919050565b6000806087541415156119f5576119f382610b88565b505b60019050919050565b60818054600181600116156101000203166002900480601f016020809104026020016040519081016040528092919081815260200182805460018160011615610100020316600290048015611a945780601f10611a6957610100808354040283529160200191611a94565b820191906000526020600020905b815481529060010190602001808311611a7757829003601f168201915b505050505081565b6000806000608460003373ffffffffffffffffffffffffffffffffffffffff1673ffffffffffffffffffffffffffffffffffffffff16815260200190815260200160002060000160009054906101000a900473ffffffffffffffffffffffffffffffffffffffff1673ffffffffffffffffffffffffffffffffffffffff1614151515611b2757600080fd5b611b49608e54608f54609060009054906101000a900463ffffffff16866117b5565b9050611b6083608e5461282290919063ffffffff16565b608e81905550611b7b81608f5461282290919063ffffffff16565b608f81905550611baa83608360008781526020019081526020016000206000015461282290919063ffffffff16565b608360008681526020019081526020016000206000018190555080608460003373ffffffffffffffffffffffffffffffffffffffff1673ffffffffffffffffffffffffffffffffffffffff1681526020019081526020016000206001016000828254019250508190555080608460003373ffffffffffffffffffffffffffffffffffffffff1673ffffffffffffffffffffffffffffffffffffffff1681526020019081526020016000206002016000828254019250508190555080608660008282540192505081905550826083600086815260200190815260200160002060020160003373ffffffffffffffffffffffffffffffffffffffff1673ffffffffffffffffffffffffffffffffffffffff168152602001908152602001600020600082825403925050819055508091505092915050565b60875481565b6000803373ffffffffffffffffffffffffffffffffffffffff1614151515611d0c57600080fd5b609154905090565b60865481565b608f5481565b600080608460003373ffffffffffffffffffffffffffffffffffffffff1673ffffffffffffffffffffffffffffffffffffffff16815260200190815260200160002060000160009054906101000a900473ffffffffffffffffffffffffffffffffffffffff1673ffffffffffffffffffffffffffffffffffffffff1614151515611da957600080fd5b608460003373ffffffffffffffffffffffffffffffffffffffff1673ffffffffffffffffffffffffffffffffffffffff16815260200190815260200160002060010154905090565b6000608754905090565b6000608d54608c54811515611e0c57fe5b06905090565b6000803373ffffffffffffffffffffffffffffffffffffffff1614151515611e3957600080fd5b6083600083815260200190815260200160002060020160003373ffffffffffffffffffffffffffffffffffffffff1673ffffffffffffffffffffffffffffffffffffffff168152602001908152602001600020549050919050565b600081608c6000828254189250508190555060019050919050565b6801000000000000000081565b608560009054906101000a900473ffffffffffffffffffffffffffffffffffffffff1681565b609260009054906101000a900473ffffffffffffffffffffffffffffffffffffffff1681565b600081608460003373ffffffffffffffffffffffffffffffffffffffff1673ffffffffffffffffffffffffffffffffffffffff1681526020019081526020016000206001016000828254019250508190555081608460003373ffffffffffffffffffffffffffffffffffffffff1673ffffffffffffffffffffffffffffffffffffffff1681526020019081526020016000206002016000828254019250508190555081608660008282540192505081905550608560009054906101000a900473ffffffffffffffffffffffffffffffffffffffff1673ffffffffffffffffffffffffffffffffffffffff166323b872dd3330856040518463ffffffff167c0100000000000000000000000000000000000000000000000000000000028152600401808473ffffffffffffffffffffffffffffffffffffffff1673ffffffffffffffffffffffffffffffffffffffff1681526020018373ffffffffffffffffffffffffffffffffffffffff1673ffffffffffffffffffffffffffffffffffffffff1681526020018281526020019350505050602060405180830381600087803b15156120b257600080fd5b5af115156120bf57600080fd5b5050506040518051905015156120d457600080fd5b6120f6608e54608f54609060009054906101000a900463ffffffff16856111d5565b60918190555061212760915460836000868152602001908152602001600020600001546127a790919063ffffffff16565b6083600085815260200190815260200160002060000181905550609154608e6000828254019250508190555061216882608f546127a790919063ffffffff16565b608f8190555081608460003373ffffffffffffffffffffffffffffffffffffffff1673ffffffffffffffffffffffffffffffffffffffff1681526020019081526020016000206001016000828254039250508190555081608460003373ffffffffffffffffffffffffffffffffffffffff1673ffffffffffffffffffffffffffffffffffffffff16815260200190815260200160002060020160008282540392505081905550816086600082825403925050819055506091546083600085815260200190815260200160002060020160003373ffffffffffffffffffffffffffffffffffffffff1673ffffffffffffffffffffffffffffffffffffffff16815260200190815260200160002060008282540192505081905550609154905092915050565b6000608954905090565b60915481565b608a5481565b608260009054906101000a900473ffffffffffffffffffffffffffffffffffffffff1681565b60008060003373ffffffffffffffffffffffffffffffffffffffff16141515156122f157600080fd5b60009050826086541015156123085782905061230e565b60865490505b80608660008282540392505081905550608560009054906101000a900473ffffffffffffffffffffffffffffffffffffffff1673ffffffffffffffffffffffffffffffffffffffff1663a9059cbb33836040518363ffffffff167c0100000000000000000000000000000000000000000000000000000000028152600401808373ffffffffffffffffffffffffffffffffffffffff1673ffffffffffffffffffffffffffffffffffffffff16815260200182815260200192505050602060405180830381600087803b15156123e257600080fd5b5af115156123ef57600080fd5b50505060405180519050151561240457600080fd5b80915050919050565b60008060003373ffffffffffffffffffffffffffffffffffffffff161415151561243657600080fd5b60a0604051908101604052803373ffffffffffffffffffffffffffffffffffffffff1681526020016000815260200160008152602001600081526020016000815250608460003373ffffffffffffffffffffffffffffffffffffffff1673ffffffffffffffffffffffffffffffffffffffff16815260200190815260200160002060008201518160000160006101000a81548173ffffffffffffffffffffffffffffffffffffffff021916908373ffffffffffffffffffffffffffffffffffffffff1602179055506020820151816001015560408201518160020155606082015181600301556080820151816004015590505061040090506040805190810160405280600081526020018281525060836000858152602001908152602001600020600082015181600001556020820151816001015590505080608460003373ffffffffffffffffffffffffffffffffffffffff1673ffffffffffffffffffffffffffffffffffffffff168152602001908152602001600020600301819055506001915050919050565b608260009054906101000a900473ffffffffffffffffffffffffffffffffffffffff1673ffffffffffffffffffffffffffffffffffffffff163373ffffffffffffffffffffffffffffffffffffffff1614151561261b57600080fd5b600073ffffffffffffffffffffffffffffffffffffffff168173ffffffffffffffffffffffffffffffffffffffff161415151561265757600080fd5b80608260006101000a81548173ffffffffffffffffffffffffffffffffffffffff021916908373ffffffffffffffffffffffffffffffffffffffff16021790555050565b6000608a54905090565b60895481565b600080600080600092508491506101008210156126e7575b60018211156126e2576001829060020a900491506001830192506126c3565b612732565b608090505b60008160ff161115612731578060ff1660019060020a028210151561271e578060ff16829060020a9004915080831792505b60018160ff169060020a900490506126ec565b5b829350505050919050565b60008183111561274f57829050612753565b8190505b92915050565b6000808284029050600084148061277a575082848281151561277757fe5b04145b151561278257fe5b8091505092915050565b600080828481151561279a57fe5b0490508091505092915050565b60008082840190508381101515156127bb57fe5b8091505092915050565b6000806000808463ffffffff168663ffffffff166127e38a8a61283b565b028115156127ed57fe5b0491506127f9826129a2565b905061281281607f0360ff16839060020a900482612a62565b8193509350505094509492505050565b600082821115151561283057fe5b818303905092915050565b60008060008060007001ffffffffffffffffffffffffffffffff871115151561286057fe5b60009350856f80000000000000000000000000000000880281151561288157fe5b049250700100000000000000000000000000000000831015156128ea576128c26f80000000000000000000000000000000848115156128bc57fe5b046126ab565b91508160ff16839060020a900492506f800000000000000000000000000000008260ff160293505b6f8000000000000000000000000000000083111561297857607f90505b60008160ff161115612977576f8000000000000000000000000000000083840281151561293057fe5b0492507001000000000000000000000000000000008310151561296b576001839060020a900492506001810360ff1660019060020a02840193505b80600190039050612907565b5b607a60ff166f02c5c85fdf473de6af278ece600fcbda85029060020a900494505050505092915050565b60008060008060209250607f91505b8160ff166001840160ff161015612a0357600282840160ff168115156129d357fe5b0490508460018260ff166080811015156129e957fe5b01541015156129fa578092506129fe565b8091505b6129b1565b8460018360ff16608081101515612a1657fe5b0154101515612a2757819350612a5a565b8460018460ff16608081101515612a3a57fe5b0154101515612a4b57829350612a5a565b60001515612a5557fe5b600093505b505050919050565b6000806000849150600090508360ff168583029060020a900491506f03442c4e6074a82f1797f72ac00000008202810190508360ff168583029060020a900491506f0116b96f757c380fb287fd0e400000008202810190508360ff168583029060020a900491506e45ae5bdd5f0e03eca1ff43900000008202810190508360ff168583029060020a900491506e0defabf91302cd95b9ffda500000008202810190508360ff168583029060020a900491506e02529ca9832b22439efff9b80000008202810190508360ff168583029060020a900491506d54f1cf12bd04e516b6da880000008202810190508360ff168583029060020a900491506d0a9e39e257a09ca2d6db510000008202810190508360ff168583029060020a900491506d012e066e7b839fa050c3090000008202810190508360ff168583029060020a900491506c1e33d7d926c329a1ad1a8000008202810190508360ff168583029060020a900491506c02bee513bdb4a6b19b5f8000008202810190508360ff168583029060020a900491506b3a9316fa79b88eccf2a000008202810190508360ff168583029060020a900491506b048177ebe1fa8123752000008202810190508360ff168583029060020a900491506a5263fe90242dcbacf000008202810190508360ff168583029060020a900491506a057e22099c030d941000008202810190508360ff168583029060020a900491506957e22099c030d94100008202810190508360ff168583029060020a9004915069052b6b545699763100008202810190508360ff168583029060020a90049150684985f67696bf7480008202810190508360ff168583029060020a900491506803dea12ea99e4980008202810190508360ff168583029060020a900491506731880f2214b6e0008202810190508360ff168583029060020a9004915067025bcff56eb360008202810190508360ff168583029060020a90049150661b722e10ab10008202810190508360ff168583029060020a900491506601317c700770008202810190508360ff168583029060020a90049150650cba84aafa008202810190508360ff168583029060020a900491506482573a0a008202810190508360ff168583029060020a900491506405035ad9008202810190508360ff168583029060020a90049150632f881b008202810190508360ff168583029060020a900491506301b293408202810190508360ff168583029060020a90049150620efc408202810190508360ff168583029060020a90049150617fe08202810190508360ff168583029060020a900491506104208202810190508360ff168583029060020a9004915060218202810190508360ff168583029060020a9004915060018202810190508360ff1660019060020a02856f0688589cc0e9505e2f2fee558000000083811515612e7957fe5b04010192505050929150505600a165627a7a7230582027b14299bf05306e213b7d00956faf12f3bebd9cfefaa8abb038d6bf39410fc10029",
  "source": "pragma solidity ^0.4.21;\n\nimport './token/OceanToken.sol';\nimport './tcr/Registry.sol';\nimport './bondingCurve/BancorFormula.sol';\n\nimport './zeppelin/Ownable.sol';\nimport './zeppelin/SafeMath.sol';\n\n\n\ncontract Market is BancorFormula, Ownable {\n\n    using SafeMath for uint256;\n    using SafeMath for uint;\n\n    // data Asset\n    struct Asset{\n          uint256 ndrops;                         // total supply of Drops\n          uint256 bitSize;                        // size of asset in bit\n          mapping (address => uint256) drops;     // mapping provider (address) to their stakes on dataset Sij\n          mapping (address => uint256) delivery;  // mapping provider (address) to their #delivery of dataset Dj\n    }\n    mapping (uint256 => Asset) public mAssets;           // mapping assetId to Asset struct\n\n    // data Provider\n    struct Provider{\n          address provider;\n          uint256 numOCN;                        // Ocean token balance\n          uint256 allowanceOCN;                  // available Ocean tokens for transfer excuding locked tokens for staking\n          uint256 uploadBits;                    // total number of bits that served across all data assets with stakes\n          uint256 downloadBits;                  // total number of bits that download across all data assets with stakes\n    }\n    mapping (address => Provider) public mProviders;    // mapping providerId to Provider struct\n\n    // marketplace global variables\n    OceanToken  public  mToken;\n    uint256     public  mAllowance;             // total available Ocean tokens for transfer (exclude locked tokens)\n    uint256     public  rewardPool;             // T_difficulty: total OCN emitted during the interval\n    uint256     public  Rtotal;                 // sum of Rij across all assets, update incrementally every time delivery happens\n    uint256     public  Rdiff;                  // network difficulty R_difficulty\n    uint256     public  Rij;                    // added value of provider i on dataset j\n    uint256     public  reward;                 // reward value of provdier i on dataset j\n\n    // random number generation\n    uint256   random;                           // random number\n    uint256   range = 256;                            // range of random number\n\n    // bonding Curve\n    uint256 public totalSupply = 1000;          // initial total supply\n    uint256 public poolBalance = 250;           // poolBalance for specific dataset\n    uint32  public reserveRatio = 500000;      // max 1000000, reserveRatio = 20%\n    uint256 public tokensToMint = 0;\n\n    // TCR\n    Registry  public  tcr;\n\n    ///////////////////////////////////////////////////////////////////\n    //  Query function\n    ///////////////////////////////////////////////////////////////////\n    function numBuyDrops() public view returns (uint256){\n        require(msg.sender != 0x0);\n        return tokensToMint;\n    }\n\n    function dropsBalance(uint256 assetId) public view returns (uint256){\n        require(msg.sender != 0x0);\n        return mAssets[assetId].drops[msg.sender];\n    }\n\n    function numDownload(uint256 assetId) public view returns (uint256) {\n      require(msg.sender != 0x0);\n      return mAssets[assetId].delivery[msg.sender];\n    }\n\n    function queryRij() public view returns(uint256){\n      return Rij;\n    }\n\n    function queryRdiff() public view returns(uint256){\n      return Rdiff;\n    }\n\n    function queryReward() public view returns(uint256){\n      return reward;\n    }\n\n    function queryRewardPool() public view returns(uint256){\n      return rewardPool;\n    }\n\n    function tokenBalance() public view returns (uint256) {\n      require(mProviders[msg.sender].provider != 0x0);\n      return mProviders[msg.sender].numOCN;\n    }\n    ///////////////////////////////////////////////////////////////////\n    //  Constructor function\n    ///////////////////////////////////////////////////////////////////\n\n    // 1. constructor\n    function CurationMarket(address _tokenAddress, address _tcrAddress) public {\n        require(_tokenAddress != address(0));\n        // instantiate deployed Ocean token contract\n\t\t    mToken = OceanToken(_tokenAddress);\n        // instance of TCR\n        tcr = Registry(_tcrAddress);\n        // set the token receiver to be marketplace\n        mToken.setReceiver(address(this));\n        // setReceiver funciton will transfer initial funds to Market contract\n        mAllowance = mToken.balanceOf(address(this));\n        // set global R_difficulty\n        //Rdiff = 210000;\n    }\n\n    ///////////////////////////////////////////////////////////////////\n    // Actor and Asset routine procedures\n    ///////////////////////////////////////////////////////////////////\n\n    // 1. register provider and assets upload by changing uploadBits\n    function register(uint256 assetId) public returns (bool success) {\n      require(msg.sender != 0x0);\n      // register provider\n      mProviders[msg.sender] = Provider(msg.sender, 0, 0, 0, 0);\n\n      // register assets\n      uint256 fileSize = 1024;\n      mAssets[assetId] = Asset(0, fileSize);  // Creates new struct and saves in storage. We leave out the mapping type.\n\n      // simulate uploading dataSet\n      mProviders[msg.sender].uploadBits = fileSize;\n      return true;\n    }\n\n\n    // 2. request initial fund transfer\n    function requestTokens(uint256 amount) public returns (uint256) {\n      require(msg.sender != 0x0);\n      // find amount of tokens need or can be transferred\n      uint256 nToken = 0;\n      if (mAllowance >= amount){\n        nToken = amount;\n      } else {\n        nToken = mAllowance;\n      }\n      // withdraw tokens from Marketplace -> remember to decrease allowance first!!\n      mAllowance -= nToken;\n      // the OCN tokens is held in user wallet rather than market escrow accounts -> do not change provider balances\n      require(mToken.transfer(msg.sender, nToken));\n      return nToken;\n    }\n\n    // 3. provider serves data request of download - simulate\n    function serveRequest(uint256 assetId) public returns (bool) {\n      // provider exists\n      require(mProviders[msg.sender].provider != 0x0);\n      // serve the download request\n      mAssets[assetId].delivery[msg.sender] += 1;\n      return true;\n    }\n\n    // 4. calculate reward probability and amount (credit the reward to provider in escrow account)\n    function calcReward(uint256 assetId) public returns (bool) {\n      if(rewardPool != 0 ){\n        calcRij(assetId);\n      }\n      return true;\n    }\n\n    // 5. withdraw\n    function withdraw() public returns (bool) {\n      //require(mProviders[msg.sender].allowanceOCN >= mProviders[msg.sender].numOCN);\n      //require(mAllowance >= mProviders[msg.sender].numOCN);\n      uint256 amount = mProviders[msg.sender].numOCN;\n      mProviders[msg.sender].numOCN = 0;\n      mAllowance -= amount;\n      mProviders[msg.sender].allowanceOCN -= amount;\n      require(mToken.transfer(msg.sender, amount));\n      return true;\n    }\n\n\n\n\n    ///////////////////////////////////////////////////////////////////\n    // Block Reward Module\n    ///////////////////////////////////////////////////////////////////\n\n    // marketplace request the emitted Ocean Tokens which are transferred to market\n    function mintToken() public returns (uint256 balance) {\n      uint256 previous = mToken.balanceOf(address(this));\n      require(mToken.emitTokens());\n      uint256 current  = mToken.balanceOf(address(this));\n      // credit emitted tokens to block reward pool\n      //rewardPool += current - previous;\n\n      // for testing purpose to save waiting time\n      rewardPool = 0; //18000;\n\n      // raise the limit of token allowance for marketplace\n      mAllowance += current - previous;\n      // return the current token balance\n      return current;\n    }\n\n    ///////////////////////////////////////////////////////////////////\n    // Bonding Curve Module\n    ///////////////////////////////////////////////////////////////////\n\n    // 1. bondingCurve function - buy Drops - call by any actors\n    function buyDrops(uint256 _assetId, uint256 _ocn) public returns (uint256 _drops) {\n      // First transfer _ocn tokens into Marketplace escrow account to purchase Drops\n      mProviders[msg.sender].numOCN += _ocn;\n      mProviders[msg.sender].allowanceOCN += _ocn;\n      mAllowance += _ocn;\n      require(mToken.transferFrom(msg.sender, address(this), _ocn));\n\n\n      //uint256 tokensToMint = 0; mAssets[_assetId].ndrops\n      tokensToMint = calculatePurchaseReturn(totalSupply, poolBalance, reserveRatio, _ocn);\n      mAssets[_assetId].ndrops = mAssets[_assetId].ndrops.add(tokensToMint);\n\n      // 4. update balances\n\n      // increment total ndrops\n      totalSupply  += tokensToMint;\n      poolBalance = poolBalance.add(_ocn);\n\n      //mAssets[_assetId].ndrops += tokensToMint;\n      // lock ocean Tokens\n      mProviders[msg.sender].numOCN -= _ocn;\n      mProviders[msg.sender].allowanceOCN -= _ocn;\n      mAllowance -= _ocn;\n      mAssets[_assetId].drops[msg.sender] += tokensToMint;\n\n      return tokensToMint;\n    }\n\n\n    /*\n    function buyDrops(uint256 _assetId, uint256 _ocn) public returns (uint256 _drops) {\n      require(mProviders[msg.sender].provider != 0x0);\n\n      // First transfer _ocn tokens into Marketplace escrow account to purchase Drops\n      mProviders[msg.sender].numOCN += _ocn;\n      mProviders[msg.sender].allowanceOCN += _ocn;\n      // market balance and allowance are increased\n      mAllowance += _ocn;\n      require(mToken.transferFrom(msg.sender, address(this), _ocn));\n\n      //1. ndrops + _ocn < 50 OCN => simple flat line (1 Drops = 0.1 OCN)\n      uint256 amount = 0;\n\n      if (mAssets[_assetId].ndrops / 10 + _ocn <= 50 ){\n        amount = _ocn * 10;\n      }\n\n      // 2.  ndrops > 50 already => linear ratio Y= X / 5000\n      // ( ndrops / 5000 + (ndrops + x ) / 5000 ) / 2= _ocn\n      // x^2 + 2x*ndrops + ndrops^2 = 10000 * _ocn + ndrops^2\n      // ( x + ndrops )^2 = 10000 * _ocn + ndrops^2\n      // solidity cannot perform floating operation like square root => use integer operation\n      if (mAssets[_assetId].ndrops >= 500 ){\n        amount = sqrt( 10000 * _ocn + mAssets[_assetId].ndrops ** 2) - mAssets[_assetId].ndrops;\n      }\n\n      // 3. middle case: ndrops < 50 ocn but ndrops + _ocn > 50 ocn\n      if(mAssets[_assetId].ndrops / 10 + _ocn > 50 && mAssets[_assetId].ndrops < 500 ){\n        // handle flat portion\n        uint256 ret = _ocn - ( 50 - mAssets[_assetId].ndrops / 10 );\n        amount = 500 - mAssets[_assetId].ndrops;\n        // handle linear portion\n        amount += sqrt( 10000 * ret + 500 ** 2) - 500;\n      }\n      // 4. update balances\n      // increment total ndrops\n      mAssets[_assetId].ndrops += amount;\n      // lock ocean Tokens\n      mProviders[msg.sender].numOCN -= amount;\n      mProviders[msg.sender].allowanceOCN -= _ocn;\n      mAllowance -= _ocn;\n      // credit drops to actors\n      mAssets[_assetId].drops[msg.sender] += amount;\n\n      return amount;\n    }\n    */\n\n    function sellDrops(uint256 _assetId, uint256 _drops) public returns (uint256 _ocn) {\n      require(mProviders[msg.sender].provider != 0x0);\n\n      uint256 ocnAmount = calculateSaleReturn(totalSupply, poolBalance, reserveRatio, _drops);\n\n      // 4. update balances\n      totalSupply = totalSupply.sub(_drops);\n      poolBalance = poolBalance.sub(ocnAmount);\n      // decrement total ndrops\n      mAssets[_assetId].ndrops = mAssets[_assetId].ndrops.sub(_drops);\n      // unlock ocean Tokens\n      mProviders[msg.sender].numOCN += ocnAmount;\n      mProviders[msg.sender].allowanceOCN += ocnAmount;\n      mAllowance += ocnAmount;\n      // decrement drops balance of actors\n      mAssets[_assetId].drops[msg.sender] -= _drops;\n      return ocnAmount;\n    }\n\n    /*\n    // 2. bondingCurve function - sell Drops - call by any actors\n    function sellDrops(uint256 _assetId, uint256 _drops) public returns (uint256 _ocn) {\n      require(mProviders[msg.sender].provider != 0x0);\n\n      uint256 amount = 0;\n      //1. ndrops + _ocn < 50 OCN => simple flat line (1 Drops = 0.1 OCN)\n      if (mAssets[_assetId].ndrops <= 500 ){\n        require(_drops < 500);\n        amount = _drops / 10;\n      }\n      // 2.  ndrops - drops > 50 ocn => linear ratio Y= X / 5000\n      // total ocean exchange = area under linear line = ((ndrops - drops) / 5000 + ndrops / 5000 ) * drops / 2\n      if (mAssets[_assetId].ndrops - _drops >= 500 ){\n        amount = ( 2 * mAssets[_assetId].ndrops - _drops) * _drops / 10000;\n      }\n\n      // 3. middle case:\n      if(mAssets[_assetId].ndrops > 500 && mAssets[_assetId].ndrops - _drops < 500 ){\n        // handle flat portion\n        uint256 balance = mAssets[_assetId].ndrops - _drops;\n        uint256 ret = _drops - 500 + balance;\n        // flat portion\n        amount = ( 500 - balance) / 10;\n        // handle linear portion=> ((ndrops) / 5000 + 500 / 5000 ) * ret / 2\n        amount += ( 2 * mAssets[_assetId].ndrops - ret) * ret / 10000;\n      }\n      // 4. update balances\n      // decrement total ndrops\n      mAssets[_assetId].ndrops -= _drops;\n      // unlock ocean Tokens\n      mProviders[msg.sender].numOCN += amount;\n      mProviders[msg.sender].allowanceOCN += amount;\n      mAllowance += amount;\n      // decrement drops balance of actors\n      mAssets[_assetId].drops[msg.sender] -= _drops;\n      return amount;\n    }\n    */\n\n    ///////////////////////////////////////////////////////////////////\n    // Block Reward Distribution\n    ///////////////////////////////////////////////////////////////////\n    function calcRij(uint256 _assetId) public returns (uint256){\n      require(mProviders[msg.sender].provider != 0x0);\n\n      if ( rewardPool == 0){\n        return 0;\n      }\n\n      uint256 Sij;\n      uint256 Dj;\n      uint256 Ri;\n      // calculate value added by the provider => Rij\n      Sij = findMax( 0, floorLog2(mAssets[_assetId].drops[msg.sender]));\n      Dj = findMax(0, floorLog2(mAssets[_assetId].delivery[msg.sender]));\n      //Sij = mAssets[_assetId].drops[msg.sender];\n      //Dj = mAssets[_assetId].delivery[msg.sender];\n      // compute ratio of upload vs. download\n      if (mProviders[msg.sender].downloadBits != 0){\n        Ri = mProviders[msg.sender].uploadBits / mProviders[msg.sender].downloadBits;\n      } else {\n        Ri = 1;\n      }\n      Rij = Sij * Dj * Ri;\n      Rtotal += Rij;\n      Rdiff = findMax(Rtotal, 2 * Rdiff);\n      reward =  rewardPool * Rij / Rdiff;\n      // credit to provider\n      rewardPool -= reward;\n      mProviders[msg.sender].numOCN += reward;\n      //\n      ///////\n      return reward;\n    }\n\n    ///////////////////////////////////////////////////////////////////\n    // XOR random number generator\n    ///////////////////////////////////////////////////////////////////\n    function commitRandom(uint256 secret) public returns (bool success) {\n      random ^= secret;\n      return true;\n    }\n\n    function getRandom() public view returns (uint256) {\n      return random % range;\n    }\n\n\n\n    ///////////////////////////////////////////////////////////////////\n    // Utility Functions\n    ///////////////////////////////////////////////////////////////////\n    /*\n     *  Constants\n     */\n    // This is equal to 1 in our calculations\n    uint public constant ONE =  0x10000000000000000;\n    uint public constant LN2 = 0xb17217f7d1cf79ac;\n    uint public constant LOG2_E = 0x171547652b82fe177;\n\n    // 1. square root function\n    function sqrt(uint x) internal pure returns (uint y) {\n        if (x == 0) return 0;\n        else if (x <= 3) return 1;\n        uint z = (x + 1) / 2;\n        y = x;\n        while (z < y){\n            y = z;\n            z = (x / z + z) / 2;\n        }\n    }\n\n    // 2. logarithm Functions\n    /// @dev Returns base 2 logarithm value of given x\n    /// @param x x\n    /// @return logarithmic value\n/* define in power.sol\n    function floorLog2(uint256 x) internal pure returns (uint256 res) {\n        require( x >= 1);\n        if (x == 1) return 0;\n        int lo = -64;\n        int hi = 193;\n        // I use a shift here instead of / 2 because it floors instead of rounding towards 0\n        int mid = (hi + lo) >> 1;\n        while((lo + 1) < hi) {\n            if (mid < 0 && x << uint(-mid) < ONE || mid >= 0 && x >> uint(mid) < ONE)\n                hi = mid;\n            else\n                lo = mid;\n            mid = (hi + lo) >> 1;\n        }\n        res = uint256(lo);\n    }\n*/\n    /// @dev Returns maximum of an array\n    /// @param i1 Numbers to look through\n    /// @param i2 Numbers to look through\n    /// @return Maximum number\n    function findMax(uint256 i1, uint256 i2) internal pure returns (uint) {\n        if (i1 > i2) {\n            return i1;\n        } else {\n            return i2;\n        }\n    }\n\n\n}\n",
  "sourcePath": "/Users/fancy/Documents/Ocean Protocol/research/4-TCR/poc-tcr/1-simple-tcr-market/contracts/Market.sol",
  "compiler": {
    "name": "solc",
    "version": "0.4.21+commit.dfe3193c.Emscripten.clang"
  },
  "schemaVersion": "2.0.0",
  "updatedAt": "2018-05-31T20:05:44.289Z"
}