{
  "contractName": "Market",
  "abi": [
    {
      "constant": true,
      "inputs": [],
      "name": "LN2",
      "outputs": [
        {
          "name": "",
          "type": "uint256"
        }
      ],
      "payable": false,
      "stateMutability": "view",
      "type": "function"
    },
    {
      "constant": true,
      "inputs": [],
      "name": "sizeProviders",
      "outputs": [
        {
          "name": "",
          "type": "uint256"
        }
      ],
      "payable": false,
      "stateMutability": "view",
      "type": "function"
    },
    {
      "constant": true,
      "inputs": [],
      "name": "reserveRatio",
      "outputs": [
        {
          "name": "",
          "type": "uint32"
        }
      ],
      "payable": false,
      "stateMutability": "view",
      "type": "function"
    },
    {
      "constant": true,
      "inputs": [
        {
          "name": "",
          "type": "address"
        }
      ],
      "name": "mProviders",
      "outputs": [
        {
          "name": "provider",
          "type": "address"
        },
        {
          "name": "numOCN",
          "type": "uint256"
        },
        {
          "name": "allowanceOCN",
          "type": "uint256"
        },
        {
          "name": "uploadBits",
          "type": "uint256"
        },
        {
          "name": "downloadBits",
          "type": "uint256"
        }
      ],
      "payable": false,
      "stateMutability": "view",
      "type": "function"
    },
    {
      "constant": true,
      "inputs": [],
      "name": "totalSupply",
      "outputs": [
        {
          "name": "",
          "type": "uint256"
        }
      ],
      "payable": false,
      "stateMutability": "view",
      "type": "function"
    },
    {
      "constant": true,
      "inputs": [],
      "name": "reward",
      "outputs": [
        {
          "name": "",
          "type": "uint256"
        }
      ],
      "payable": false,
      "stateMutability": "view",
      "type": "function"
    },
    {
      "constant": true,
      "inputs": [
        {
          "name": "",
          "type": "uint256"
        }
      ],
      "name": "mAssets",
      "outputs": [
        {
          "name": "owner",
          "type": "address"
        },
        {
          "name": "ndrops",
          "type": "uint256"
        },
        {
          "name": "bitSize",
          "type": "uint256"
        },
        {
          "name": "url",
          "type": "bytes32"
        },
        {
          "name": "token",
          "type": "bytes32"
        }
      ],
      "payable": false,
      "stateMutability": "view",
      "type": "function"
    },
    {
      "constant": true,
      "inputs": [],
      "name": "LOG2_E",
      "outputs": [
        {
          "name": "",
          "type": "uint256"
        }
      ],
      "payable": false,
      "stateMutability": "view",
      "type": "function"
    },
    {
      "constant": true,
      "inputs": [
        {
          "name": "_supply",
          "type": "uint256"
        },
        {
          "name": "_connectorBalance",
          "type": "uint256"
        },
        {
          "name": "_connectorWeight",
          "type": "uint32"
        },
        {
          "name": "_depositAmount",
          "type": "uint256"
        }
      ],
      "name": "calculatePurchaseReturn",
      "outputs": [
        {
          "name": "",
          "type": "uint256"
        }
      ],
      "payable": false,
      "stateMutability": "view",
      "type": "function"
    },
    {
      "constant": true,
      "inputs": [],
      "name": "Rtotal",
      "outputs": [
        {
          "name": "",
          "type": "uint256"
        }
      ],
      "payable": false,
      "stateMutability": "view",
      "type": "function"
    },
    {
      "constant": true,
      "inputs": [
        {
          "name": "_supply",
          "type": "uint256"
        },
        {
          "name": "_connectorBalance",
          "type": "uint256"
        },
        {
          "name": "_connectorWeight",
          "type": "uint32"
        },
        {
          "name": "_sellAmount",
          "type": "uint256"
        }
      ],
      "name": "calculateSaleReturn",
      "outputs": [
        {
          "name": "",
          "type": "uint256"
        }
      ],
      "payable": false,
      "stateMutability": "view",
      "type": "function"
    },
    {
      "constant": true,
      "inputs": [
        {
          "name": "",
          "type": "uint256"
        }
      ],
      "name": "listProviders",
      "outputs": [
        {
          "name": "",
          "type": "address"
        }
      ],
      "payable": false,
      "stateMutability": "view",
      "type": "function"
    },
    {
      "constant": true,
      "inputs": [],
      "name": "version",
      "outputs": [
        {
          "name": "",
          "type": "string"
        }
      ],
      "payable": false,
      "stateMutability": "view",
      "type": "function"
    },
    {
      "constant": true,
      "inputs": [],
      "name": "rewardPool",
      "outputs": [
        {
          "name": "",
          "type": "uint256"
        }
      ],
      "payable": false,
      "stateMutability": "view",
      "type": "function"
    },
    {
      "constant": true,
      "inputs": [],
      "name": "mAllowance",
      "outputs": [
        {
          "name": "",
          "type": "uint256"
        }
      ],
      "payable": false,
      "stateMutability": "view",
      "type": "function"
    },
    {
      "constant": true,
      "inputs": [],
      "name": "poolBalance",
      "outputs": [
        {
          "name": "",
          "type": "uint256"
        }
      ],
      "payable": false,
      "stateMutability": "view",
      "type": "function"
    },
    {
      "constant": true,
      "inputs": [],
      "name": "ONE",
      "outputs": [
        {
          "name": "",
          "type": "uint256"
        }
      ],
      "payable": false,
      "stateMutability": "view",
      "type": "function"
    },
    {
      "constant": true,
      "inputs": [],
      "name": "mToken",
      "outputs": [
        {
          "name": "",
          "type": "address"
        }
      ],
      "payable": false,
      "stateMutability": "view",
      "type": "function"
    },
    {
      "constant": true,
      "inputs": [],
      "name": "tcr",
      "outputs": [
        {
          "name": "",
          "type": "address"
        }
      ],
      "payable": false,
      "stateMutability": "view",
      "type": "function"
    },
    {
      "constant": true,
      "inputs": [],
      "name": "tokensToMint",
      "outputs": [
        {
          "name": "",
          "type": "uint256"
        }
      ],
      "payable": false,
      "stateMutability": "view",
      "type": "function"
    },
    {
      "constant": true,
      "inputs": [],
      "name": "Rij",
      "outputs": [
        {
          "name": "",
          "type": "uint256"
        }
      ],
      "payable": false,
      "stateMutability": "view",
      "type": "function"
    },
    {
      "constant": true,
      "inputs": [],
      "name": "mOwner",
      "outputs": [
        {
          "name": "",
          "type": "address"
        }
      ],
      "payable": false,
      "stateMutability": "view",
      "type": "function"
    },
    {
      "constant": false,
      "inputs": [
        {
          "name": "_newOwner",
          "type": "address"
        }
      ],
      "name": "transferOwnership",
      "outputs": [],
      "payable": false,
      "stateMutability": "nonpayable",
      "type": "function"
    },
    {
      "constant": true,
      "inputs": [],
      "name": "winProvider",
      "outputs": [
        {
          "name": "",
          "type": "uint256"
        }
      ],
      "payable": false,
      "stateMutability": "view",
      "type": "function"
    },
    {
      "constant": true,
      "inputs": [],
      "name": "Rdiff",
      "outputs": [
        {
          "name": "",
          "type": "uint256"
        }
      ],
      "payable": false,
      "stateMutability": "view",
      "type": "function"
    },
    {
      "inputs": [
        {
          "name": "_tokenAddress",
          "type": "address"
        },
        {
          "name": "_tcrAddress",
          "type": "address"
        }
      ],
      "payable": false,
      "stateMutability": "nonpayable",
      "type": "constructor"
    },
    {
      "anonymous": false,
      "inputs": [
        {
          "indexed": true,
          "name": "previousOwner",
          "type": "address"
        },
        {
          "indexed": true,
          "name": "newOwner",
          "type": "address"
        }
      ],
      "name": "OwnershipTransferred",
      "type": "event"
    },
    {
      "constant": true,
      "inputs": [
        {
          "name": "listing",
          "type": "bytes32"
        }
      ],
      "name": "checkListingStatus",
      "outputs": [
        {
          "name": "",
          "type": "bool"
        }
      ],
      "payable": false,
      "stateMutability": "view",
      "type": "function"
    },
    {
      "constant": true,
      "inputs": [],
      "name": "numBuyDrops",
      "outputs": [
        {
          "name": "",
          "type": "uint256"
        }
      ],
      "payable": false,
      "stateMutability": "view",
      "type": "function"
    },
    {
      "constant": true,
      "inputs": [
        {
          "name": "assetId",
          "type": "uint256"
        }
      ],
      "name": "dropsBalance",
      "outputs": [
        {
          "name": "",
          "type": "uint256"
        }
      ],
      "payable": false,
      "stateMutability": "view",
      "type": "function"
    },
    {
      "constant": true,
      "inputs": [
        {
          "name": "assetId",
          "type": "uint256"
        }
      ],
      "name": "numDownload",
      "outputs": [
        {
          "name": "",
          "type": "uint256"
        }
      ],
      "payable": false,
      "stateMutability": "view",
      "type": "function"
    },
    {
      "constant": true,
      "inputs": [],
      "name": "queryRij",
      "outputs": [
        {
          "name": "",
          "type": "uint256"
        }
      ],
      "payable": false,
      "stateMutability": "view",
      "type": "function"
    },
    {
      "constant": true,
      "inputs": [],
      "name": "queryRdiff",
      "outputs": [
        {
          "name": "",
          "type": "uint256"
        }
      ],
      "payable": false,
      "stateMutability": "view",
      "type": "function"
    },
    {
      "constant": true,
      "inputs": [],
      "name": "queryReward",
      "outputs": [
        {
          "name": "",
          "type": "uint256"
        }
      ],
      "payable": false,
      "stateMutability": "view",
      "type": "function"
    },
    {
      "constant": true,
      "inputs": [],
      "name": "queryRewardPool",
      "outputs": [
        {
          "name": "",
          "type": "uint256"
        }
      ],
      "payable": false,
      "stateMutability": "view",
      "type": "function"
    },
    {
      "constant": true,
      "inputs": [],
      "name": "tokenBalance",
      "outputs": [
        {
          "name": "",
          "type": "uint256"
        }
      ],
      "payable": false,
      "stateMutability": "view",
      "type": "function"
    },
    {
      "constant": false,
      "inputs": [
        {
          "name": "assetId",
          "type": "uint256"
        }
      ],
      "name": "register",
      "outputs": [
        {
          "name": "success",
          "type": "bool"
        }
      ],
      "payable": false,
      "stateMutability": "nonpayable",
      "type": "function"
    },
    {
      "constant": false,
      "inputs": [
        {
          "name": "assetId",
          "type": "uint256"
        },
        {
          "name": "_url",
          "type": "bytes32"
        },
        {
          "name": "_token",
          "type": "bytes32"
        }
      ],
      "name": "publish",
      "outputs": [
        {
          "name": "success",
          "type": "bool"
        }
      ],
      "payable": false,
      "stateMutability": "nonpayable",
      "type": "function"
    },
    {
      "constant": false,
      "inputs": [
        {
          "name": "assetId",
          "type": "uint256"
        }
      ],
      "name": "purchase",
      "outputs": [
        {
          "name": "url",
          "type": "bytes32"
        },
        {
          "name": "token",
          "type": "bytes32"
        }
      ],
      "payable": false,
      "stateMutability": "nonpayable",
      "type": "function"
    },
    {
      "constant": true,
      "inputs": [],
      "name": "listAssets",
      "outputs": [
        {
          "name": "",
          "type": "uint256[50]"
        }
      ],
      "payable": false,
      "stateMutability": "view",
      "type": "function"
    },
    {
      "constant": true,
      "inputs": [
        {
          "name": "",
          "type": "uint256"
        }
      ],
      "name": "listAssets",
      "outputs": [
        {
          "name": "",
          "type": "uint256"
        }
      ],
      "payable": false,
      "stateMutability": "view",
      "type": "function"
    },
    {
      "constant": false,
      "inputs": [
        {
          "name": "amount",
          "type": "uint256"
        }
      ],
      "name": "requestTokens",
      "outputs": [
        {
          "name": "",
          "type": "uint256"
        }
      ],
      "payable": false,
      "stateMutability": "nonpayable",
      "type": "function"
    },
    {
      "constant": false,
      "inputs": [
        {
          "name": "assetId",
          "type": "uint256"
        }
      ],
      "name": "serveRequest",
      "outputs": [
        {
          "name": "",
          "type": "bool"
        }
      ],
      "payable": false,
      "stateMutability": "nonpayable",
      "type": "function"
    },
    {
      "constant": false,
      "inputs": [
        {
          "name": "assetId",
          "type": "uint256"
        }
      ],
      "name": "calcReward",
      "outputs": [
        {
          "name": "",
          "type": "bool"
        }
      ],
      "payable": false,
      "stateMutability": "nonpayable",
      "type": "function"
    },
    {
      "constant": false,
      "inputs": [],
      "name": "withdraw",
      "outputs": [
        {
          "name": "",
          "type": "bool"
        }
      ],
      "payable": false,
      "stateMutability": "nonpayable",
      "type": "function"
    },
    {
      "constant": false,
      "inputs": [],
      "name": "mintToken",
      "outputs": [
        {
          "name": "balance",
          "type": "uint256"
        }
      ],
      "payable": false,
      "stateMutability": "nonpayable",
      "type": "function"
    },
    {
      "constant": false,
      "inputs": [
        {
          "name": "_assetId",
          "type": "uint256"
        },
        {
          "name": "_ocn",
          "type": "uint256"
        }
      ],
      "name": "buyDrops",
      "outputs": [
        {
          "name": "_drops",
          "type": "uint256"
        }
      ],
      "payable": false,
      "stateMutability": "nonpayable",
      "type": "function"
    },
    {
      "constant": false,
      "inputs": [
        {
          "name": "_assetId",
          "type": "uint256"
        },
        {
          "name": "_drops",
          "type": "uint256"
        }
      ],
      "name": "sellDrops",
      "outputs": [
        {
          "name": "_ocn",
          "type": "uint256"
        }
      ],
      "payable": false,
      "stateMutability": "nonpayable",
      "type": "function"
    },
    {
      "constant": false,
      "inputs": [
        {
          "name": "_assetId",
          "type": "uint256"
        }
      ],
      "name": "calcRij",
      "outputs": [
        {
          "name": "",
          "type": "uint256"
        }
      ],
      "payable": false,
      "stateMutability": "nonpayable",
      "type": "function"
    },
    {
      "constant": false,
      "inputs": [
        {
          "name": "secret",
          "type": "uint256"
        }
      ],
      "name": "commitRandom",
      "outputs": [
        {
          "name": "success",
          "type": "bool"
        }
      ],
      "payable": false,
      "stateMutability": "nonpayable",
      "type": "function"
    },
    {
      "constant": true,
      "inputs": [],
      "name": "getRandom",
      "outputs": [
        {
          "name": "",
          "type": "uint256"
        }
      ],
      "payable": false,
      "stateMutability": "view",
      "type": "function"
    },
    {
      "constant": true,
      "inputs": [
        {
          "name": "limit",
          "type": "uint256"
        }
      ],
      "name": "rng",
      "outputs": [
        {
          "name": "",
          "type": "uint256"
        }
      ],
      "payable": false,
      "stateMutability": "view",
      "type": "function"
    }
  ],
  "bytecode": "0x60606040526040805190810160405280600381526020017f302e3300000000000000000000000000000000000000000000000000000000008152506000908051906020019062000051929190620012c4565b506040805190810160405280600381526020017f302e330000000000000000000000000000000000000000000000000000000000815250608190805190602001906200009f929190620012c4565b50600060b655600060ea55600060eb5561010060f4556103e860f55560fa60f6556207a12060f760006101000a81548163ffffffff021916908363ffffffff160217905550600060f8553415620000f557600080fd5b6040516040806200476183398101604052808051906020019091908051906020019091905050701c35fedd14ffffffffffffffffffffffff600160206080811015156200013e57fe5b0181905550701b0ce43b323fffffffffffffffffffffff600160216080811015156200016657fe5b01819055507019f0028ec1ffffffffffffffffffffffff600160226080811015156200018e57fe5b01819055507018ded91f0e7fffffffffffffffffffffff60016023608081101515620001b657fe5b01819055507017d8ec7f0417ffffffffffffffffffffff60016024608081101515620001de57fe5b01819055507016ddc6556cdbffffffffffffffffffffff600160256080811015156200020657fe5b01819055507015ecf52776a1ffffffffffffffffffffff600160266080811015156200022e57fe5b01819055507015060c256cb2ffffffffffffffffffffff600160276080811015156200025657fe5b0181905550701428a2f98d72ffffffffffffffffffffff600160286080811015156200027e57fe5b01819055507013545598e5c23fffffffffffffffffffff60016029608081101515620002a657fe5b0181905550701288c4161ce1dfffffffffffffffffffff6001602a608081101515620002ce57fe5b01819055507011c592761c666fffffffffffffffffffff6001602b608081101515620002f657fe5b018190555070110a688680a757ffffffffffffffffffff6001602c6080811015156200031e57fe5b0181905550701056f1b5bedf77ffffffffffffffffffff6001602d6080811015156200034657fe5b0181905550700faadceceeff8bffffffffffffffffffff6001602e6080811015156200036e57fe5b0181905550700f05dc6b27edadffffffffffffffffffff6001602f6080811015156200039657fe5b0181905550700e67a5a25da4107fffffffffffffffffff60016030608081101515620003be57fe5b0181905550700dcff115b14eedffffffffffffffffffff60016031608081101515620003e657fe5b0181905550700d3e7a392431239fffffffffffffffffff600160326080811015156200040e57fe5b0181905550700cb2ff529eb71e4fffffffffffffffffff600160336080811015156200043657fe5b0181905550700c2d415c3db974afffffffffffffffffff600160346080811015156200045e57fe5b0181905550700bad03e7d883f69bffffffffffffffffff600160356080811015156200048657fe5b0181905550700b320d03b2c343d5ffffffffffffffffff60016036608081101515620004ae57fe5b0181905550700abc25204e02828dffffffffffffffffff60016037608081101515620004d657fe5b0181905550700a4b16f74ee4bb207fffffffffffffffff60016038608081101515620004fe57fe5b01819055507009deaf736ac1f569ffffffffffffffffff600160396080811015156200052657fe5b0181905550700976bd9952c7aa957fffffffffffffffff6001603a6080811015156200054e57fe5b01819055507009131271922eaa606fffffffffffffffff6001603b6080811015156200057657fe5b01819055507008b380f3558668c46fffffffffffffffff6001603c6080811015156200059e57fe5b0181905550700857ddf0117efa215bffffffffffffffff6001603d608081101515620005c657fe5b01819055507007ffffffffffffffffffffffffffffffff6001603e608081101515620005ee57fe5b01819055507007abbf6f6abb9d087fffffffffffffffff6001603f6080811015156200061657fe5b018190555070075af62cbac95f7dfa7fffffffffffffff600160406080811015156200063e57fe5b018190555070070d7fb7452e187ac13fffffffffffffff600160416080811015156200066657fe5b01819055507006c3390ecc8af379295fffffffffffffff600160426080811015156200068e57fe5b018190555070067c00a3b07ffc01fd6fffffffffffffff60016043608081101515620006b657fe5b0181905550700637b647c39cbb9d3d27ffffffffffffff60016044608081101515620006de57fe5b01819055507005f63b1fc104dbd39587ffffffffffffff600160456080811015156200070657fe5b01819055507005b771955b36e12f7235ffffffffffffff600160466080811015156200072e57fe5b018190555070057b3d49dda84556d6f6ffffffffffffff600160476080811015156200075657fe5b018190555070054183095b2c8ececf30ffffffffffffff600160486080811015156200077e57fe5b018190555070050a28be635ca2b888f77fffffffffffff60016049608081101515620007a657fe5b01819055507004d5156639708c9db33c3fffffffffffff6001604a608081101515620007ce57fe5b01819055507004a23105873875bd52dfdfffffffffffff6001604b608081101515620007f657fe5b0181905550700471649d87199aa990756fffffffffffff6001604c6080811015156200081e57fe5b01819055507004429a21a029d4c1457cfbffffffffffff6001604d6080811015156200084657fe5b0181905550700415bc6d6fb7dd71af2cb3ffffffffffff6001604e6080811015156200086e57fe5b01819055507003eab73b3bbfe282243ce1ffffffffffff6001604f6080811015156200089657fe5b01819055507003c1771ac9fb6b4c18e229ffffffffffff60016050608081101515620008be57fe5b0181905550700399e96897690418f785257fffffffffff60016051608081101515620008e657fe5b0181905550700373fc456c53bb779bf0ea9fffffffffff600160526080811015156200090e57fe5b018190555070034f9e8e490c48e67e6ab8bfffffffffff600160536080811015156200093657fe5b018190555070032cbfd4a7adc790560b3337ffffffffff600160546080811015156200095e57fe5b018190555070030b50570f6e5d2acca94613ffffffffff600160556080811015156200098657fe5b01819055507002eb40f9f620fda6b56c2861ffffffffff60016056608081101515620009ae57fe5b01819055507002cc8340ecb0d0f520a6af58ffffffffff60016057608081101515620009d657fe5b01819055507002af09481380a0a35cf1ba02ffffffffff60016058608081101515620009fe57fe5b0181905550700292c5bdd3b92ec810287b1b3fffffffff6001605960808110151562000a2657fe5b0181905550700277abdcdab07d5a77ac6d6b9fffffffff6001605a60808110151562000a4e57fe5b018190555070025daf6654b1eaa55fd64df5efffffffff6001605b60808110151562000a7657fe5b0181905550700244c49c648baa98192dce88b7ffffffff6001605c60808110151562000a9e57fe5b018190555070022ce03cd5619a311b2471268bffffffff6001605d60808110151562000ac657fe5b0181905550700215f77c045fbe885654a44a0fffffffff6001605e60808110151562000aee57fe5b01819055507001ffffffffffffffffffffffffffffffff6001605f60808110151562000b1657fe5b01819055507001eaefdbdaaee7421fc4d3ede5ffffffff6001606060808110151562000b3e57fe5b01819055507001d6bd8b2eb257df7e8ca57b09bfffffff6001606160808110151562000b6657fe5b01819055507001c35fedd14b861eb0443f7f133fffffff6001606260808110151562000b8e57fe5b01819055507001b0ce43b322bcde4a56e8ada5afffffff6001606360808110151562000bb657fe5b018190555070019f0028ec1fff007f5a195a39dfffffff6001606460808110151562000bde57fe5b018190555070018ded91f0e72ee74f49b15ba527ffffff6001606560808110151562000c0657fe5b018190555070017d8ec7f04136f4e5615fd41a63ffffff6001606660808110151562000c2e57fe5b018190555070016ddc6556cdb84bdc8d12d22e6fffffff6001606760808110151562000c5657fe5b018190555070015ecf52776a1155b5bd8395814f7fffff6001606860808110151562000c7e57fe5b018190555070015060c256cb23b3b3cc3754cf40ffffff6001606960808110151562000ca657fe5b01819055507001428a2f98d728ae223ddab715be3fffff6001606a60808110151562000cce57fe5b018190555070013545598e5c23276ccf0ede68034fffff6001606b60808110151562000cf657fe5b01819055507001288c4161ce1d6f54b7f61081194fffff6001606c60808110151562000d1e57fe5b018190555070011c592761c666aa641d5a01a40f17ffff6001606d60808110151562000d4657fe5b0181905550700110a688680a7530515f3e6e6cfdcdffff6001606e60808110151562000d6e57fe5b01819055507001056f1b5bedf75c6bcb2ce8aed428ffff6001606f60808110151562000d9657fe5b01819055506ffaadceceeff8a0890f3875f008277fff6001607060808110151562000dbd57fe5b01819055506ff05dc6b27edad306388a600f6ba0bfff6001607160808110151562000de457fe5b01819055506fe67a5a25da41063de1495d5b18cdbfff6001607260808110151562000e0b57fe5b01819055506fdcff115b14eedde6fc3aa5353f2e4fff6001607360808110151562000e3257fe5b01819055506fd3e7a3924312399f9aae2e0f868f8fff6001607460808110151562000e5957fe5b01819055506fcb2ff529eb71e41582cccd5a1ee26fff6001607560808110151562000e8057fe5b01819055506fc2d415c3db974ab32a51840c0b67edff6001607660808110151562000ea757fe5b01819055506fbad03e7d883f69ad5b0a186184e06bff6001607760808110151562000ece57fe5b01819055506fb320d03b2c343d4829abd6075f0cc5ff6001607860808110151562000ef557fe5b01819055506fabc25204e02828d73c6e80bcdb1a95bf6001607960808110151562000f1c57fe5b01819055506fa4b16f74ee4bb2040a1ec6c15fbbf2df6001607a60808110151562000f4357fe5b01819055506f9deaf736ac1f569deb1b5ae3f36c130f6001607b60808110151562000f6a57fe5b01819055506f976bd9952c7aa957f5937d790ef650376001607c60808110151562000f9157fe5b01819055506f9131271922eaa6064b73a22d0bd4f2bf6001607d60808110151562000fb857fe5b01819055506f8b380f3558668c46c91c49a2f8e967b96001607e60808110151562000fdf57fe5b01819055506f857ddf0117efa215952912839f6473e66001607f6080811015156200100657fe5b018190555033608260006101000a81548173ffffffffffffffffffffffffffffffffffffffff021916908373ffffffffffffffffffffffffffffffffffffffff160217905550600073ffffffffffffffffffffffffffffffffffffffff168273ffffffffffffffffffffffffffffffffffffffff16141515156200108957600080fd5b8160ec60006101000a81548173ffffffffffffffffffffffffffffffffffffffff021916908373ffffffffffffffffffffffffffffffffffffffff1602179055508060f960006101000a81548173ffffffffffffffffffffffffffffffffffffffff021916908373ffffffffffffffffffffffffffffffffffffffff16021790555060ec60009054906101000a900473ffffffffffffffffffffffffffffffffffffffff1673ffffffffffffffffffffffffffffffffffffffff1663718da7ee306040518263ffffffff167c0100000000000000000000000000000000000000000000000000000000028152600401808273ffffffffffffffffffffffffffffffffffffffff1673ffffffffffffffffffffffffffffffffffffffff168152602001915050602060405180830381600087803b1515620011c857600080fd5b5af11515620011d657600080fd5b505050604051805190505060ec60009054906101000a900473ffffffffffffffffffffffffffffffffffffffff1673ffffffffffffffffffffffffffffffffffffffff166370a08231306040518263ffffffff167c0100000000000000000000000000000000000000000000000000000000028152600401808273ffffffffffffffffffffffffffffffffffffffff1673ffffffffffffffffffffffffffffffffffffffff168152602001915050602060405180830381600087803b15156200129e57600080fd5b5af11515620012ac57600080fd5b5050506040518051905060ed81905550505062001373565b828054600181600116156101000203166002900490600052602060002090601f016020900481019282601f106200130757805160ff191683800117855562001338565b8280016001018555821562001338579182015b82811115620013375782518255916020019190600101906200131a565b5b5090506200134791906200134b565b5090565b6200137091905b808211156200136c57600081600090555060010162001352565b5090565b90565b6133de80620013836000396000f30060606040526004361061025c576000357c0100000000000000000000000000000000000000000000000000000000900463ffffffff168063024abbe91461026157806302780677146102985780630abbf0bc146102c15780630c7d5cd8146102ea5780631642cfbb1461031f57806318160ddd146103b45780632004ffd9146103dd578063228cb73314610406578063242d9b121461042f57806324902e24146104be57806329a00e7c146104e75780632c70186c1461053f5780632c79db11146105685780633ccfd60b1461059157806340124ea8146105be57806349f9b0f7146105f55780634d841e1f1461064d5780634faaf60d146106b057806353f836db146106eb578063544c465c1461072257806354fd4d501461075d57806358bd1995146107eb57806366666aa91461082b5780636855d79d1461085457806370dbe7101461087d57806376559e2d146108d257806396365d44146108fb5780639e1a4d1914610924578063a152a9d11461094d578063aacc5a1714610976578063b8ef5a381461099f578063be239108146109d6578063c2ee3a0814610a11578063c3b6f93914610a3a578063c438aeb514610a8f578063c6beb88414610ae4578063c958585314610b24578063cb764d0814610b5b578063cbafee8a14610b84578063d2af738d14610bad578063dcda4bf314610bd6578063eadeb9a314610c2b578063eef9c27c14610c7c578063efef39a114610cb3578063f207564e14610d01578063f2fde38b14610d3c578063f40012f914610d75578063f7216f6b14610d9e578063fae9297214610ddd578063fdccc71c14610e06575b600080fd5b341561026c57600080fd5b6102826004808035906020019091905050610e2f565b6040518082815260200191505060405180910390f35b34156102a357600080fd5b6102ab61114f565b6040518082815260200191505060405180910390f35b34156102cc57600080fd5b6102d461115b565b6040518082815260200191505060405180910390f35b34156102f557600080fd5b6102fd611161565b604051808263ffffffff1663ffffffff16815260200191505060405180910390f35b341561032a57600080fd5b610356600480803573ffffffffffffffffffffffffffffffffffffffff16906020019091905050611177565b604051808673ffffffffffffffffffffffffffffffffffffffff1673ffffffffffffffffffffffffffffffffffffffff1681526020018581526020018481526020018381526020018281526020019550505050505060405180910390f35b34156103bf57600080fd5b6103c76111cd565b6040518082815260200191505060405180910390f35b34156103e857600080fd5b6103f06111d3565b6040518082815260200191505060405180910390f35b341561041157600080fd5b610419611455565b6040518082815260200191505060405180910390f35b341561043a57600080fd5b610450600480803590602001909190505061145b565b604051808673ffffffffffffffffffffffffffffffffffffffff1673ffffffffffffffffffffffffffffffffffffffff168152602001858152602001848152602001836000191660001916815260200182600019166000191681526020019550505050505060405180910390f35b34156104c957600080fd5b6104d16114b1565b6040518082815260200191505060405180910390f35b34156104f257600080fd5b610529600480803590602001909190803590602001909190803563ffffffff169060200190919080359060200190919050506114be565b6040518082815260200191505060405180910390f35b341561054a57600080fd5b6105526115bf565b6040518082815260200191505060405180910390f35b341561057357600080fd5b61057b6115c5565b6040518082815260200191505060405180910390f35b341561059c57600080fd5b6105a46115cf565b604051808215151515815260200191505060405180910390f35b34156105c957600080fd5b6105df60048080359060200190919050506117ad565b6040518082815260200191505060405180910390f35b341561060057600080fd5b610637600480803590602001909190803590602001909190803563ffffffff1690602001909190803590602001909190505061182f565b6040518082815260200191505060405180910390f35b341561065857600080fd5b61066e6004808035906020019091905050611963565b604051808273ffffffffffffffffffffffffffffffffffffffff1673ffffffffffffffffffffffffffffffffffffffff16815260200191505060405180910390f35b34156106bb57600080fd5b6106d16004808035906020019091905050611998565b604051808215151515815260200191505060405180910390f35b34156106f657600080fd5b61070c6004808035906020019091905050611a8c565b6040518082815260200191505060405180910390f35b341561072d57600080fd5b6107436004808035906020019091905050611ac2565b604051808215151515815260200191505060405180910390f35b341561076857600080fd5b610770611ae3565b6040518080602001828103825283818151815260200191508051906020019080838360005b838110156107b0578082015181840152602081019050610795565b50505050905090810190601f1680156107dd5780820380516001836020036101000a031916815260200191505b509250505060405180910390f35b34156107f657600080fd5b6108156004808035906020019091908035906020019091905050611b81565b6040518082815260200191505060405180910390f35b341561083657600080fd5b61083e611dc4565b6040518082815260200191505060405180910390f35b341561085f57600080fd5b610867611dca565b6040518082815260200191505060405180910390f35b341561088857600080fd5b6108b860048080359060200190919080356000191690602001909190803560001916906020019091905050611df9565b604051808215151515815260200191505060405180910390f35b34156108dd57600080fd5b6108e5611f0b565b6040518082815260200191505060405180910390f35b341561090657600080fd5b61090e611f11565b6040518082815260200191505060405180910390f35b341561092f57600080fd5b610937611f17565b6040518082815260200191505060405180910390f35b341561095857600080fd5b610960611fe8565b6040518082815260200191505060405180910390f35b341561098157600080fd5b610989611ff2565b6040518082815260200191505060405180910390f35b34156109aa57600080fd5b6109c06004808035906020019091905050612009565b6040518082815260200191505060405180910390f35b34156109e157600080fd5b6109f7600480803590602001909190505061208b565b604051808215151515815260200191505060405180910390f35b3415610a1c57600080fd5b610a246120a6565b6040518082815260200191505060405180910390f35b3415610a4557600080fd5b610a4d6120b3565b604051808273ffffffffffffffffffffffffffffffffffffffff1673ffffffffffffffffffffffffffffffffffffffff16815260200191505060405180910390f35b3415610a9a57600080fd5b610aa26120d9565b604051808273ffffffffffffffffffffffffffffffffffffffff1673ffffffffffffffffffffffffffffffffffffffff16815260200191505060405180910390f35b3415610aef57600080fd5b610b0e60048080359060200190919080359060200190919050506120ff565b6040518082815260200191505060405180910390f35b3415610b2f57600080fd5b610b456004808035906020019091905050612483565b6040518082815260200191505060405180910390f35b3415610b6657600080fd5b610b6e61249d565b6040518082815260200191505060405180910390f35b3415610b8f57600080fd5b610b976124a7565b6040518082815260200191505060405180910390f35b3415610bb857600080fd5b610bc06124ad565b6040518082815260200191505060405180910390f35b3415610be157600080fd5b610be96124b3565b604051808273ffffffffffffffffffffffffffffffffffffffff1673ffffffffffffffffffffffffffffffffffffffff16815260200191505060405180910390f35b3415610c3657600080fd5b610c3e6124d9565b6040518082603260200280838360005b83811015610c69578082015181840152602081019050610c4e565b5050505090500191505060405180910390f35b3415610c8757600080fd5b610c9d6004808035906020019091905050612524565b6040518082815260200191505060405180910390f35b3415610cbe57600080fd5b610cd46004808035906020019091905050612669565b60405180836000191660001916815260200182600019166000191681526020019250505060405180910390f35b3415610d0c57600080fd5b610d22600480803590602001909190505061277e565b604051808215151515815260200191505060405180910390f35b3415610d4757600080fd5b610d73600480803573ffffffffffffffffffffffffffffffffffffffff16906020019091905050612a04565b005b3415610d8057600080fd5b610d88612ae0565b6040518082815260200191505060405180910390f35b3415610da957600080fd5b610dc3600480803560001916906020019091905050612aea565b604051808215151515815260200191505060405180910390f35b3415610de857600080fd5b610df0612ba2565b6040518082815260200191505060405180910390f35b3415610e1157600080fd5b610e19612ba8565b6040518082815260200191505060405180910390f35b600080600080600060b760003373ffffffffffffffffffffffffffffffffffffffff1673ffffffffffffffffffffffffffffffffffffffff16815260200190815260200160002060000160009054906101000a900473ffffffffffffffffffffffffffffffffffffffff1673ffffffffffffffffffffffffffffffffffffffff1614151515610ebd57600080fd5b600060ee541415610ed15760009350611147565b610f3a6000610f326083600089815260200190815260200160002060050160003373ffffffffffffffffffffffffffffffffffffffff1673ffffffffffffffffffffffffffffffffffffffff16815260200190815260200160002054612bae565b60ff16612c40565b9250610fa56000610f9d6083600089815260200190815260200160002060060160003373ffffffffffffffffffffffffffffffffffffffff1673ffffffffffffffffffffffffffffffffffffffff16815260200190815260200160002054612bae565b60ff16612c40565b9150600060b760003373ffffffffffffffffffffffffffffffffffffffff1673ffffffffffffffffffffffffffffffffffffffff1681526020019081526020016000206004015414151561108a5760b760003373ffffffffffffffffffffffffffffffffffffffff1673ffffffffffffffffffffffffffffffffffffffff1681526020019081526020016000206004015460b760003373ffffffffffffffffffffffffffffffffffffffff1673ffffffffffffffffffffffffffffffffffffffff1681526020019081526020016000206003015481151561108257fe5b04905061108f565b600190505b808284020260f18190555060f15460ef600082825401925050819055506110bd60ef5460f054600202612c40565b60f08190555060f05460f15460ee54028115156110d657fe5b0460f28190555060f25460ee6000828254039250508190555060f25460b760003373ffffffffffffffffffffffffffffffffffffffff1673ffffffffffffffffffffffffffffffffffffffff1681526020019081526020016000206001016000828254019250508190555060f25493505b505050919050565b67b17217f7d1cf79ac81565b60ea5481565b60f760009054906101000a900463ffffffff1681565b60b76020528060005260406000206000915090508060000160009054906101000a900473ffffffffffffffffffffffffffffffffffffffff16908060010154908060020154908060030154908060040154905085565b60f55481565b600080600060ec60009054906101000a900473ffffffffffffffffffffffffffffffffffffffff1673ffffffffffffffffffffffffffffffffffffffff166370a08231306040518263ffffffff167c0100000000000000000000000000000000000000000000000000000000028152600401808273ffffffffffffffffffffffffffffffffffffffff1673ffffffffffffffffffffffffffffffffffffffff168152602001915050602060405180830381600087803b151561129457600080fd5b5af115156112a157600080fd5b50505060405180519050915060ec60009054906101000a900473ffffffffffffffffffffffffffffffffffffffff1673ffffffffffffffffffffffffffffffffffffffff1663c89aee836040518163ffffffff167c0100000000000000000000000000000000000000000000000000000000028152600401602060405180830381600087803b151561133257600080fd5b5af1151561133f57600080fd5b50505060405180519050151561135457600080fd5b60ec60009054906101000a900473ffffffffffffffffffffffffffffffffffffffff1673ffffffffffffffffffffffffffffffffffffffff166370a08231306040518263ffffffff167c0100000000000000000000000000000000000000000000000000000000028152600401808273ffffffffffffffffffffffffffffffffffffffff1673ffffffffffffffffffffffffffffffffffffffff168152602001915050602060405180830381600087803b151561141057600080fd5b5af1151561141d57600080fd5b50505060405180519050905081810360ee6000828254019250508190555081810360ed60008282540192505081905550809250505090565b60f25481565b60836020528060005260406000206000915090508060000160009054906101000a900473ffffffffffffffffffffffffffffffffffffffff16908060010154908060020154908060030154908060040154905085565b680171547652b82fe17781565b600080600080600080891180156114d55750600088115b80156114e7575060008763ffffffff16115b80156115025750620f424063ffffffff168763ffffffff1611155b151561150d57600080fd5b600086141561151f57600094506115b3565b620f424063ffffffff168763ffffffff1614156115625761155b8861154d888c612c5c90919063ffffffff16565b612c8f90919063ffffffff16565b94506115b3565b6115758887612caa90919063ffffffff16565b9150611586828989620f4240612cc8565b80945081955050508260ff166115a5858b612c5c90919063ffffffff16565b9060020a9004905088810394505b50505050949350505050565b60ef5481565b600060f254905090565b60008060b760003373ffffffffffffffffffffffffffffffffffffffff1673ffffffffffffffffffffffffffffffffffffffff168152602001908152602001600020600101549050600060b760003373ffffffffffffffffffffffffffffffffffffffff1673ffffffffffffffffffffffffffffffffffffffff168152602001908152602001600020600101819055508060ed600082825403925050819055508060b760003373ffffffffffffffffffffffffffffffffffffffff1673ffffffffffffffffffffffffffffffffffffffff1681526020019081526020016000206002016000828254039250508190555060ec60009054906101000a900473ffffffffffffffffffffffffffffffffffffffff1673ffffffffffffffffffffffffffffffffffffffff1663a9059cbb33836040518363ffffffff167c0100000000000000000000000000000000000000000000000000000000028152600401808373ffffffffffffffffffffffffffffffffffffffff1673ffffffffffffffffffffffffffffffffffffffff16815260200182815260200192505050602060405180830381600087803b151561178357600080fd5b5af1151561179057600080fd5b5050506040518051905015156117a557600080fd5b600191505090565b6000803373ffffffffffffffffffffffffffffffffffffffff16141515156117d457600080fd5b6083600083815260200190815260200160002060060160003373ffffffffffffffffffffffffffffffffffffffff1673ffffffffffffffffffffffffffffffffffffffff168152602001908152602001600020549050919050565b60008060008060008060008a1180156118485750600089115b801561185a575060008863ffffffff16115b80156118755750620f424063ffffffff168863ffffffff1611155b80156118815750898711155b151561188c57600080fd5b600087141561189e5760009550611956565b898714156118ae57889550611956565b620f424063ffffffff168863ffffffff1614156118f1576118ea8a6118dc898c612c5c90919063ffffffff16565b612c8f90919063ffffffff16565b9550611956565b868a0392506119058a84620f42408b612cc8565b8095508196505050611920858a612c5c90919063ffffffff16565b91508360ff16899060020a029050611953856119458385612d2590919063ffffffff16565b612c8f90919063ffffffff16565b95505b5050505050949350505050565b60b88160328110151561197257fe5b016000915054906101000a900473ffffffffffffffffffffffffffffffffffffffff1681565b60008060b760003373ffffffffffffffffffffffffffffffffffffffff1673ffffffffffffffffffffffffffffffffffffffff16815260200190815260200160002060000160009054906101000a900473ffffffffffffffffffffffffffffffffffffffff1673ffffffffffffffffffffffffffffffffffffffff1614151515611a2157600080fd5b60016083600084815260200190815260200160002060060160003373ffffffffffffffffffffffffffffffffffffffff1673ffffffffffffffffffffffffffffffffffffffff1681526020019081526020016000206000828254019250508190555060019050919050565b60008142446040518083815260200182815260200192505050604051809103902060019004811515611aba57fe5b069050919050565b60008060ee54141515611ada57611ad882610e2f565b505b60019050919050565b60818054600181600116156101000203166002900480601f016020809104026020016040519081016040528092919081815260200182805460018160011615610100020316600290048015611b795780601f10611b4e57610100808354040283529160200191611b79565b820191906000526020600020905b815481529060010190602001808311611b5c57829003601f168201915b505050505081565b600080600060b760003373ffffffffffffffffffffffffffffffffffffffff1673ffffffffffffffffffffffffffffffffffffffff16815260200190815260200160002060000160009054906101000a900473ffffffffffffffffffffffffffffffffffffffff1673ffffffffffffffffffffffffffffffffffffffff1614151515611c0c57600080fd5b611c2e60f55460f65460f760009054906101000a900463ffffffff168661182f565b9050611c458360f554612d2590919063ffffffff16565b60f581905550611c608160f654612d2590919063ffffffff16565b60f681905550611c8f836083600087815260200190815260200160002060010154612d2590919063ffffffff16565b60836000868152602001908152602001600020600101819055508060b760003373ffffffffffffffffffffffffffffffffffffffff1673ffffffffffffffffffffffffffffffffffffffff168152602001908152602001600020600101600082825401925050819055508060b760003373ffffffffffffffffffffffffffffffffffffffff1673ffffffffffffffffffffffffffffffffffffffff168152602001908152602001600020600201600082825401925050819055508060ed60008282540192505081905550826083600086815260200190815260200160002060050160003373ffffffffffffffffffffffffffffffffffffffff1673ffffffffffffffffffffffffffffffffffffffff168152602001908152602001600020600082825403925050819055508091505092915050565b60ee5481565b6000803373ffffffffffffffffffffffffffffffffffffffff1614151515611df157600080fd5b60f854905090565b6000806083600086815260200190815260200160002060000160009054906101000a900473ffffffffffffffffffffffffffffffffffffffff1673ffffffffffffffffffffffffffffffffffffffff1614151515611e5657600080fd5b6083600085815260200190815260200160002060000160009054906101000a900473ffffffffffffffffffffffffffffffffffffffff1673ffffffffffffffffffffffffffffffffffffffff163373ffffffffffffffffffffffffffffffffffffffff16141515611ec657600080fd5b82608360008681526020019081526020016000206003018160001916905550816083600086815260200190815260200160002060040181600019169055509392505050565b60ed5481565b60f65481565b60008060b760003373ffffffffffffffffffffffffffffffffffffffff1673ffffffffffffffffffffffffffffffffffffffff16815260200190815260200160002060000160009054906101000a900473ffffffffffffffffffffffffffffffffffffffff1673ffffffffffffffffffffffffffffffffffffffff1614151515611fa057600080fd5b60b760003373ffffffffffffffffffffffffffffffffffffffff1673ffffffffffffffffffffffffffffffffffffffff16815260200190815260200160002060010154905090565b600060ee54905090565b600060f45460f35481151561200357fe5b06905090565b6000803373ffffffffffffffffffffffffffffffffffffffff161415151561203057600080fd5b6083600083815260200190815260200160002060050160003373ffffffffffffffffffffffffffffffffffffffff1673ffffffffffffffffffffffffffffffffffffffff168152602001908152602001600020549050919050565b60008160f36000828254189250508190555060019050919050565b6801000000000000000081565b60ec60009054906101000a900473ffffffffffffffffffffffffffffffffffffffff1681565b60f960009054906101000a900473ffffffffffffffffffffffffffffffffffffffff1681565b60008160b760003373ffffffffffffffffffffffffffffffffffffffff1673ffffffffffffffffffffffffffffffffffffffff168152602001908152602001600020600101600082825401925050819055508160b760003373ffffffffffffffffffffffffffffffffffffffff1673ffffffffffffffffffffffffffffffffffffffff168152602001908152602001600020600201600082825401925050819055508160ed6000828254019250508190555060ec60009054906101000a900473ffffffffffffffffffffffffffffffffffffffff1673ffffffffffffffffffffffffffffffffffffffff166323b872dd3330856040518463ffffffff167c0100000000000000000000000000000000000000000000000000000000028152600401808473ffffffffffffffffffffffffffffffffffffffff1673ffffffffffffffffffffffffffffffffffffffff1681526020018373ffffffffffffffffffffffffffffffffffffffff1673ffffffffffffffffffffffffffffffffffffffff1681526020018281526020019350505050602060405180830381600087803b15156122a957600080fd5b5af115156122b657600080fd5b5050506040518051905015156122cb57600080fd5b6122ed60f55460f65460f760009054906101000a900463ffffffff16856114be565b60f88190555061231e60f8546083600086815260200190815260200160002060010154612caa90919063ffffffff16565b608360008581526020019081526020016000206001018190555060f85460f56000828254019250508190555061235f8260f654612caa90919063ffffffff16565b60f6819055508160b760003373ffffffffffffffffffffffffffffffffffffffff1673ffffffffffffffffffffffffffffffffffffffff168152602001908152602001600020600101600082825403925050819055508160b760003373ffffffffffffffffffffffffffffffffffffffff1673ffffffffffffffffffffffffffffffffffffffff168152602001908152602001600020600201600082825403925050819055508160ed6000828254039250508190555060f8546083600085815260200190815260200160002060050160003373ffffffffffffffffffffffffffffffffffffffff1673ffffffffffffffffffffffffffffffffffffffff1681526020019081526020016000206000828254019250508190555060f854905092915050565b60848160328110151561249257fe5b016000915090505481565b600060f054905090565b60f85481565b60f15481565b608260009054906101000a900473ffffffffffffffffffffffffffffffffffffffff1681565b6124e1613389565b608460328060200260405190810160405280929190826032801561251a576020028201915b815481526020019060010190808311612506575b5050505050905090565b60008060003373ffffffffffffffffffffffffffffffffffffffff161415151561254d57600080fd5b600090508260ed541015156125645782905061256a565b60ed5490505b8060ed6000828254039250508190555060ec60009054906101000a900473ffffffffffffffffffffffffffffffffffffffff1673ffffffffffffffffffffffffffffffffffffffff1663a9059cbb33836040518363ffffffff167c0100000000000000000000000000000000000000000000000000000000028152600401808373ffffffffffffffffffffffffffffffffffffffff1673ffffffffffffffffffffffffffffffffffffffff16815260200182815260200192505050602060405180830381600087803b151561263e57600080fd5b5af1151561264b57600080fd5b50505060405180519050151561266057600080fd5b80915050919050565b60008060006083600085815260200190815260200160002060000160009054906101000a900473ffffffffffffffffffffffffffffffffffffffff1673ffffffffffffffffffffffffffffffffffffffff16141515156126c857600080fd5b603260ea541015612736573360b860ea546032811015156126e557fe5b0160006101000a81548173ffffffffffffffffffffffffffffffffffffffff021916908373ffffffffffffffffffffffffffffffffffffffff160217905550600160ea600082825401925050819055505b61274160ea54611a8c565b60eb819055506083600084815260200190815260200160002060030154608360008581526020019081526020016000206004015491509150915091565b60008060003373ffffffffffffffffffffffffffffffffffffffff16141515156127a757600080fd5b60a0604051908101604052803373ffffffffffffffffffffffffffffffffffffffff168152602001600081526020016000815260200160008152602001600081525060b760003373ffffffffffffffffffffffffffffffffffffffff1673ffffffffffffffffffffffffffffffffffffffff16815260200190815260200160002060008201518160000160006101000a81548173ffffffffffffffffffffffffffffffffffffffff021916908373ffffffffffffffffffffffffffffffffffffffff16021790555060208201518160010155604082015181600201556060820151816003015560808201518160040155905050610400905060a0604051908101604052803373ffffffffffffffffffffffffffffffffffffffff1681526020016000815260200182815260200160006001026000191681526020016000600102600019168152506083600085815260200190815260200160002060008201518160000160006101000a81548173ffffffffffffffffffffffffffffffffffffffff021916908373ffffffffffffffffffffffffffffffffffffffff16021790555060208201518160010155604082015181600201556060820151816003019060001916905560808201518160040190600019169055905050603260b65410156129b35782608460b65460328110151561299c57fe5b0181905550600160b6600082825401925050819055505b8060b760003373ffffffffffffffffffffffffffffffffffffffff1673ffffffffffffffffffffffffffffffffffffffff168152602001908152602001600020600301819055506001915050919050565b608260009054906101000a900473ffffffffffffffffffffffffffffffffffffffff1673ffffffffffffffffffffffffffffffffffffffff163373ffffffffffffffffffffffffffffffffffffffff16141515612a6057600080fd5b600073ffffffffffffffffffffffffffffffffffffffff168173ffffffffffffffffffffffffffffffffffffffff1614151515612a9c57600080fd5b80608260006101000a81548173ffffffffffffffffffffffffffffffffffffffff021916908373ffffffffffffffffffffffffffffffffffffffff16021790555050565b600060f154905090565b600060f960009054906101000a900473ffffffffffffffffffffffffffffffffffffffff1673ffffffffffffffffffffffffffffffffffffffff166301a5e3fe836040518263ffffffff167c0100000000000000000000000000000000000000000000000000000000028152600401808260001916600019168152602001915050602060405180830381600087803b1515612b8457600080fd5b5af11515612b9157600080fd5b505050604051805190509050919050565b60eb5481565b60f05481565b60008060008060009250849150610100821015612bea575b6001821115612be5576001829060020a90049150600183019250612bc6565b612c35565b608090505b60008160ff161115612c34578060ff1660019060020a0282101515612c21578060ff16829060020a9004915080831792505b60018160ff169060020a90049050612bef565b5b829350505050919050565b600081831115612c5257829050612c56565b8190505b92915050565b60008082840290506000841480612c7d5750828482811515612c7a57fe5b04145b1515612c8557fe5b8091505092915050565b6000808284811515612c9d57fe5b0490508091505092915050565b6000808284019050838110151515612cbe57fe5b8091505092915050565b6000806000808463ffffffff168663ffffffff16612ce68a8a612d3e565b02811515612cf057fe5b049150612cfc82612ea5565b9050612d1581607f0360ff16839060020a900482612f65565b8193509350505094509492505050565b6000828211151515612d3357fe5b818303905092915050565b60008060008060007001ffffffffffffffffffffffffffffffff8711151515612d6357fe5b60009350856f800000000000000000000000000000008802811515612d8457fe5b04925070010000000000000000000000000000000083101515612ded57612dc56f8000000000000000000000000000000084811515612dbf57fe5b04612bae565b91508160ff16839060020a900492506f800000000000000000000000000000008260ff160293505b6f80000000000000000000000000000000831115612e7b57607f90505b60008160ff161115612e7a576f80000000000000000000000000000000838402811515612e3357fe5b04925070010000000000000000000000000000000083101515612e6e576001839060020a900492506001810360ff1660019060020a02840193505b80600190039050612e0a565b5b607a60ff166f02c5c85fdf473de6af278ece600fcbda85029060020a900494505050505092915050565b60008060008060209250607f91505b8160ff166001840160ff161015612f0657600282840160ff16811515612ed657fe5b0490508460018260ff16608081101515612eec57fe5b0154101515612efd57809250612f01565b8091505b612eb4565b8460018360ff16608081101515612f1957fe5b0154101515612f2a57819350612f5d565b8460018460ff16608081101515612f3d57fe5b0154101515612f4e57829350612f5d565b60001515612f5857fe5b600093505b505050919050565b6000806000849150600090508360ff168583029060020a900491506f03442c4e6074a82f1797f72ac00000008202810190508360ff168583029060020a900491506f0116b96f757c380fb287fd0e400000008202810190508360ff168583029060020a900491506e45ae5bdd5f0e03eca1ff43900000008202810190508360ff168583029060020a900491506e0defabf91302cd95b9ffda500000008202810190508360ff168583029060020a900491506e02529ca9832b22439efff9b80000008202810190508360ff168583029060020a900491506d54f1cf12bd04e516b6da880000008202810190508360ff168583029060020a900491506d0a9e39e257a09ca2d6db510000008202810190508360ff168583029060020a900491506d012e066e7b839fa050c3090000008202810190508360ff168583029060020a900491506c1e33d7d926c329a1ad1a8000008202810190508360ff168583029060020a900491506c02bee513bdb4a6b19b5f8000008202810190508360ff168583029060020a900491506b3a9316fa79b88eccf2a000008202810190508360ff168583029060020a900491506b048177ebe1fa8123752000008202810190508360ff168583029060020a900491506a5263fe90242dcbacf000008202810190508360ff168583029060020a900491506a057e22099c030d941000008202810190508360ff168583029060020a900491506957e22099c030d94100008202810190508360ff168583029060020a9004915069052b6b545699763100008202810190508360ff168583029060020a90049150684985f67696bf7480008202810190508360ff168583029060020a900491506803dea12ea99e4980008202810190508360ff168583029060020a900491506731880f2214b6e0008202810190508360ff168583029060020a9004915067025bcff56eb360008202810190508360ff168583029060020a90049150661b722e10ab10008202810190508360ff168583029060020a900491506601317c700770008202810190508360ff168583029060020a90049150650cba84aafa008202810190508360ff168583029060020a900491506482573a0a008202810190508360ff168583029060020a900491506405035ad9008202810190508360ff168583029060020a90049150632f881b008202810190508360ff168583029060020a900491506301b293408202810190508360ff168583029060020a90049150620efc408202810190508360ff168583029060020a90049150617fe08202810190508360ff168583029060020a900491506104208202810190508360ff168583029060020a9004915060218202810190508360ff168583029060020a9004915060018202810190508360ff1660019060020a02856f0688589cc0e9505e2f2fee55800000008381151561337c57fe5b0401019250505092915050565b610640604051908101604052806032905b600081526020019060019003908161339a57905050905600a165627a7a72305820f648915401832cc673abe91c9ba40e3ff95fffaac2e81fce8b4b3f13dd3c0f4b0029",
  "source": "pragma solidity ^0.4.21;\n\nimport './token/OceanToken.sol';\nimport './tcr/Registry.sol';\nimport './bondingCurve/BancorFormula.sol';\n\nimport './zeppelin/Ownable.sol';\nimport './zeppelin/SafeMath.sol';\n\n\n\ncontract Market is BancorFormula, Ownable {\n\n    using SafeMath for uint256;\n    using SafeMath for uint;\n\n\n    // data Asset\n    struct Asset{\n          address owner;                          // owner of the Asset\n          uint256 ndrops;                         // total supply of Drops\n          uint256 bitSize;                        // size of asset in bit\n          bytes32 url;                            // url of the asset\n          bytes32 token;                          // token to get access to the asset\n          mapping (address => uint256) drops;     // mapping provider (address) to their stakes on dataset Sij\n          mapping (address => uint256) delivery;  // mapping provider (address) to their #delivery of dataset Dj\n    }\n    mapping (uint256 => Asset) public mAssets;           // mapping assetId to Asset struct\n    uint256[50] public  listAssets;\n    uint256     private  sizeListAssets= 0;\n\n    // data Provider\n    struct Provider{\n          address provider;\n          uint256 numOCN;                        // Ocean token balance\n          uint256 allowanceOCN;                  // available Ocean tokens for transfer excuding locked tokens for staking\n          uint256 uploadBits;                    // total number of bits that served across all data assets with stakes\n          uint256 downloadBits;                  // total number of bits that download across all data assets with stakes\n    }\n    mapping (address => Provider) public mProviders;    // mapping providerId to Provider struct\n    address[50] public  listProviders;\n    uint256     public sizeProviders= 0;\n    uint256     public winProvider = 0;\n\n    // marketplace global variables\n    OceanToken  public  mToken;\n    uint256     public  mAllowance;             // total available Ocean tokens for transfer (exclude locked tokens)\n    uint256     public  rewardPool;             // T_difficulty: total OCN emitted during the interval\n    uint256     public  Rtotal;                 // sum of Rij across all assets, update incrementally every time delivery happens\n    uint256     public  Rdiff;                  // network difficulty R_difficulty\n    uint256     public  Rij;                    // added value of provider i on dataset j\n    uint256     public  reward;                 // reward value of provdier i on dataset j\n\n    // random number generation\n    uint256   random;                           // random number\n    uint256   range = 256;                            // range of random number\n\n    // bonding Curve\n    uint256 public totalSupply = 1000;          // initial total supply\n    uint256 public poolBalance = 250;           // poolBalance for specific dataset\n    uint32  public reserveRatio = 500000;      // max 1000000, reserveRatio = 20%\n    uint256 public tokensToMint = 0;\n\n    // TCR\n    Registry  public  tcr;\n\n    function checkListingStatus(bytes32 listing) public view returns(bool){\n      return tcr.isWhitelisted(listing);\n    }\n\n    ///////////////////////////////////////////////////////////////////\n    //  Query function\n    ///////////////////////////////////////////////////////////////////\n    function numBuyDrops() public view returns (uint256){\n        require(msg.sender != 0x0);\n        return tokensToMint;\n    }\n\n    function dropsBalance(uint256 assetId) public view returns (uint256){\n        require(msg.sender != 0x0);\n        return mAssets[assetId].drops[msg.sender];\n    }\n\n    function numDownload(uint256 assetId) public view returns (uint256) {\n      require(msg.sender != 0x0);\n      return mAssets[assetId].delivery[msg.sender];\n    }\n\n    function queryRij() public view returns(uint256){\n      return Rij;\n    }\n\n    function queryRdiff() public view returns(uint256){\n      return Rdiff;\n    }\n\n    function queryReward() public view returns(uint256){\n      return reward;\n    }\n\n    function queryRewardPool() public view returns(uint256){\n      return rewardPool;\n    }\n\n    function tokenBalance() public view returns (uint256) {\n      require(mProviders[msg.sender].provider != 0x0);\n      return mProviders[msg.sender].numOCN;\n    }\n    ///////////////////////////////////////////////////////////////////\n    //  Constructor function\n    ///////////////////////////////////////////////////////////////////\n    // 1. constructor\n    function Market(address _tokenAddress, address _tcrAddress) public {\n        require(_tokenAddress != address(0));\n        // instantiate deployed Ocean token contract\n\t\t    mToken = OceanToken(_tokenAddress);\n        // instance of TCR\n        tcr = Registry(_tcrAddress);\n        // set the token receiver to be marketplace\n        mToken.setReceiver(address(this));\n        // setReceiver funciton will transfer initial funds to Market contract\n        mAllowance = mToken.balanceOf(address(this));\n        // set global R_difficulty\n        //Rdiff = 210000;\n    }\n\n    ///////////////////////////////////////////////////////////////////\n    // Actor and Asset routine procedures\n    ///////////////////////////////////////////////////////////////////\n\n    // 1. register provider and assets upload by changing uploadBits\n    function register(uint256 assetId) public returns (bool success) {\n      require(msg.sender != 0x0);\n      // register provider\n      mProviders[msg.sender] = Provider(msg.sender, 0, 0, 0, 0);\n\n      // register assets\n      uint256 fileSize = 1024;\n      mAssets[assetId] = Asset(msg.sender, 0, fileSize, 0, 0);  // Creates new struct and saves in storage. We leave out the mapping type.\n\n      if (sizeListAssets < 50)  {\n          listAssets[sizeListAssets] = assetId;\n          sizeListAssets += 1;\n      }\n\n      // simulate uploading dataSet\n      mProviders[msg.sender].uploadBits = fileSize;\n      return true;\n    }\n\n\n    // publish consumption information about an Asset\n    function publish(uint256 assetId, bytes32 _url, bytes32 _token) external returns (bool success) {\n         require(mAssets[assetId].owner != 0x0);\n         require(msg.sender == mAssets[assetId].owner);\n\n        mAssets[assetId].url= _url;\n        mAssets[assetId].token= _token;\n    }\n\n    // purchase an asset and get the consumption information\n    function purchase(uint256 assetId) external returns (bytes32 url, bytes32 token) {\n        require(mAssets[assetId].owner != 0x0);\n\n        // increment counter\n        if (sizeProviders < 50)  {\n          listProviders[sizeProviders] = msg.sender;\n          sizeProviders += 1;\n        }\n\n        // request token rewards for provider\n        winProvider = rng(sizeProviders);\n        if(rewardPool != 0 ){\n\n        }\n\n        return (mAssets[assetId].url, mAssets[assetId].token);\n    }\n\n    function listAssets() external view returns (uint256[50]) {\n        return listAssets;\n    }\n\n        // 2. request initial fund transfer\n    function requestTokens(uint256 amount) public returns (uint256) {\n      require(msg.sender != 0x0);\n      // find amount of tokens need or can be transferred\n      uint256 nToken = 0;\n      if (mAllowance >= amount){\n        nToken = amount;\n      } else {\n        nToken = mAllowance;\n      }\n      // withdraw tokens from Marketplace -> remember to decrease allowance first!!\n      mAllowance -= nToken;\n      // the OCN tokens is held in user wallet rather than market escrow accounts -> do not change provider balances\n      require(mToken.transfer(msg.sender, nToken));\n      return nToken;\n    }\n\n    // 3. provider serves data request of download - simulate\n    function serveRequest(uint256 assetId) public returns (bool) {\n      // provider exists\n      require(mProviders[msg.sender].provider != 0x0);\n      // serve the download request\n      mAssets[assetId].delivery[msg.sender] += 1;\n      return true;\n    }\n\n    // 4. calculate reward probability and amount (credit the reward to provider in escrow account)\n    function calcReward(uint256 assetId) public returns (bool) {\n      if(rewardPool != 0 ){\n        calcRij(assetId);\n      }\n      return true;\n    }\n\n    // 5. withdraw\n    function withdraw() public returns (bool) {\n      //require(mProviders[msg.sender].allowanceOCN >= mProviders[msg.sender].numOCN);\n      //require(mAllowance >= mProviders[msg.sender].numOCN);\n      uint256 amount = mProviders[msg.sender].numOCN;\n      mProviders[msg.sender].numOCN = 0;\n      mAllowance -= amount;\n      mProviders[msg.sender].allowanceOCN -= amount;\n      require(mToken.transfer(msg.sender, amount));\n      return true;\n    }\n\n\n\n\n    ///////////////////////////////////////////////////////////////////\n    // Block Reward Module\n    ///////////////////////////////////////////////////////////////////\n\n    // marketplace request the emitted Ocean Tokens which are transferred to market\n    function mintToken() public returns (uint256 balance) {\n      uint256 previous = mToken.balanceOf(address(this));\n      require(mToken.emitTokens());\n      uint256 current  = mToken.balanceOf(address(this));\n      // credit emitted tokens to block reward pool\n      rewardPool += current - previous;\n\n      // for testing purpose to save waiting time\n      //rewardPool = 0; //18000;\n\n      // raise the limit of token allowance for marketplace\n      mAllowance += current - previous;\n      // return the current token balance\n      return current;\n    }\n\n    ///////////////////////////////////////////////////////////////////\n    // Bonding Curve Module\n    ///////////////////////////////////////////////////////////////////\n\n    // 1. bondingCurve function - buy Drops - call by any actors\n    function buyDrops(uint256 _assetId, uint256 _ocn) public returns (uint256 _drops) {\n      // First transfer _ocn tokens into Marketplace escrow account to purchase Drops\n      mProviders[msg.sender].numOCN += _ocn;\n      mProviders[msg.sender].allowanceOCN += _ocn;\n      mAllowance += _ocn;\n      require(mToken.transferFrom(msg.sender, address(this), _ocn));\n\n\n      //uint256 tokensToMint = 0; mAssets[_assetId].ndrops\n      tokensToMint = calculatePurchaseReturn(totalSupply, poolBalance, reserveRatio, _ocn);\n      mAssets[_assetId].ndrops = mAssets[_assetId].ndrops.add(tokensToMint);\n\n      // 4. update balances\n\n      // increment total ndrops\n      totalSupply  += tokensToMint;\n      poolBalance = poolBalance.add(_ocn);\n\n      //mAssets[_assetId].ndrops += tokensToMint;\n      // lock ocean Tokens\n      mProviders[msg.sender].numOCN -= _ocn;\n      mProviders[msg.sender].allowanceOCN -= _ocn;\n      mAllowance -= _ocn;\n      mAssets[_assetId].drops[msg.sender] += tokensToMint;\n\n      return tokensToMint;\n    }\n\n    function sellDrops(uint256 _assetId, uint256 _drops) public returns (uint256 _ocn) {\n      require(mProviders[msg.sender].provider != 0x0);\n\n      uint256 ocnAmount = calculateSaleReturn(totalSupply, poolBalance, reserveRatio, _drops);\n\n      // 4. update balances\n      totalSupply = totalSupply.sub(_drops);\n      poolBalance = poolBalance.sub(ocnAmount);\n      // decrement total ndrops\n      mAssets[_assetId].ndrops = mAssets[_assetId].ndrops.sub(_drops);\n      // unlock ocean Tokens\n      mProviders[msg.sender].numOCN += ocnAmount;\n      mProviders[msg.sender].allowanceOCN += ocnAmount;\n      mAllowance += ocnAmount;\n      // decrement drops balance of actors\n      mAssets[_assetId].drops[msg.sender] -= _drops;\n      return ocnAmount;\n    }\n\n    ///////////////////////////////////////////////////////////////////\n    // Block Reward Distribution\n    ///////////////////////////////////////////////////////////////////\n    function calcRij(uint256 _assetId) public returns (uint256){\n      require(mProviders[msg.sender].provider != 0x0);\n\n      if ( rewardPool == 0){\n        return 0;\n      }\n\n      uint256 Sij;\n      uint256 Dj;\n      uint256 Ri;\n      // calculate value added by the provider => Rij\n      Sij = findMax( 0, floorLog2(mAssets[_assetId].drops[msg.sender]));\n      Dj = findMax(0, floorLog2(mAssets[_assetId].delivery[msg.sender]));\n      //Sij = mAssets[_assetId].drops[msg.sender];\n      //Dj = mAssets[_assetId].delivery[msg.sender];\n      // compute ratio of upload vs. download\n      if (mProviders[msg.sender].downloadBits != 0){\n        Ri = mProviders[msg.sender].uploadBits / mProviders[msg.sender].downloadBits;\n      } else {\n        Ri = 1;\n      }\n      Rij = Sij * Dj * Ri;\n      Rtotal += Rij;\n      Rdiff = findMax(Rtotal, 2 * Rdiff);\n      reward =  rewardPool * Rij / Rdiff;\n      // credit to provider\n      rewardPool -= reward;\n      mProviders[msg.sender].numOCN += reward;\n      //\n      ///////\n      return reward;\n    }\n\n    ///////////////////////////////////////////////////////////////////\n    // XOR random number generator\n    ///////////////////////////////////////////////////////////////////\n    function commitRandom(uint256 secret) public returns (bool success) {\n      random ^= secret;\n      return true;\n    }\n\n    function getRandom() public view returns (uint256) {\n      return random % range;\n    }\n\n    function rng(uint256 limit) public view returns (uint256) {\n      return uint256(uint256(keccak256(block.timestamp, block.difficulty))%limit);\n    }\n\n\n    ///////////////////////////////////////////////////////////////////\n    // Utility Functions\n    ///////////////////////////////////////////////////////////////////\n    /*\n     *  Constants\n     */\n    // This is equal to 1 in our calculations\n    uint public constant ONE =  0x10000000000000000;\n    uint public constant LN2 = 0xb17217f7d1cf79ac;\n    uint public constant LOG2_E = 0x171547652b82fe177;\n\n    // 1. square root function\n    function sqrt(uint x) internal pure returns (uint y) {\n        if (x == 0) return 0;\n        else if (x <= 3) return 1;\n        uint z = (x + 1) / 2;\n        y = x;\n        while (z < y){\n            y = z;\n            z = (x / z + z) / 2;\n        }\n    }\n\n\n    /// @dev Returns maximum of an array\n    /// @param i1 Numbers to look through\n    /// @param i2 Numbers to look through\n    /// @return Maximum number\n    function findMax(uint256 i1, uint256 i2) internal pure returns (uint) {\n        if (i1 > i2) {\n            return i1;\n        } else {\n            return i2;\n        }\n    }\n\n\n}\n",
  "sourcePath": "/Users/fancy/Documents/Ocean Protocol/research/Hackton/plankton-keeper/contracts/Market.sol",
  "compiler": {
    "name": "solc",
    "version": "0.4.21+commit.dfe3193c.Emscripten.clang"
  },
  "schemaVersion": "2.0.0",
  "updatedAt": "2018-06-05T07:19:39.961Z"
}