{
  "contractName": "Market",
  "abi": [
    {
      "constant": true,
      "inputs": [],
      "name": "LN2",
      "outputs": [
        {
          "name": "",
          "type": "uint256"
        }
      ],
      "payable": false,
      "stateMutability": "view",
      "type": "function"
    },
    {
      "constant": true,
      "inputs": [],
      "name": "sizeProviders",
      "outputs": [
        {
          "name": "",
          "type": "uint256"
        }
      ],
      "payable": false,
      "stateMutability": "view",
      "type": "function"
    },
    {
      "constant": true,
      "inputs": [],
      "name": "reserveRatio",
      "outputs": [
        {
          "name": "",
          "type": "uint32"
        }
      ],
      "payable": false,
      "stateMutability": "view",
      "type": "function"
    },
    {
      "constant": true,
      "inputs": [
        {
          "name": "",
          "type": "address"
        }
      ],
      "name": "mProviders",
      "outputs": [
        {
          "name": "provider",
          "type": "address"
        },
        {
          "name": "numOCN",
          "type": "uint256"
        },
        {
          "name": "allowanceOCN",
          "type": "uint256"
        },
        {
          "name": "uploadBits",
          "type": "uint256"
        },
        {
          "name": "downloadBits",
          "type": "uint256"
        }
      ],
      "payable": false,
      "stateMutability": "view",
      "type": "function"
    },
    {
      "constant": true,
      "inputs": [],
      "name": "totalSupply",
      "outputs": [
        {
          "name": "",
          "type": "uint256"
        }
      ],
      "payable": false,
      "stateMutability": "view",
      "type": "function"
    },
    {
      "constant": true,
      "inputs": [
        {
          "name": "",
          "type": "uint256"
        }
      ],
      "name": "mAssets",
      "outputs": [
        {
          "name": "owner",
          "type": "address"
        },
        {
          "name": "ndrops",
          "type": "uint256"
        },
        {
          "name": "bitSize",
          "type": "uint256"
        },
        {
          "name": "url",
          "type": "bytes32"
        },
        {
          "name": "token",
          "type": "bytes32"
        }
      ],
      "payable": false,
      "stateMutability": "view",
      "type": "function"
    },
    {
      "constant": true,
      "inputs": [],
      "name": "LOG2_E",
      "outputs": [
        {
          "name": "",
          "type": "uint256"
        }
      ],
      "payable": false,
      "stateMutability": "view",
      "type": "function"
    },
    {
      "constant": true,
      "inputs": [
        {
          "name": "_supply",
          "type": "uint256"
        },
        {
          "name": "_connectorBalance",
          "type": "uint256"
        },
        {
          "name": "_connectorWeight",
          "type": "uint32"
        },
        {
          "name": "_depositAmount",
          "type": "uint256"
        }
      ],
      "name": "calculatePurchaseReturn",
      "outputs": [
        {
          "name": "",
          "type": "uint256"
        }
      ],
      "payable": false,
      "stateMutability": "view",
      "type": "function"
    },
    {
      "constant": true,
      "inputs": [
        {
          "name": "_supply",
          "type": "uint256"
        },
        {
          "name": "_connectorBalance",
          "type": "uint256"
        },
        {
          "name": "_connectorWeight",
          "type": "uint32"
        },
        {
          "name": "_sellAmount",
          "type": "uint256"
        }
      ],
      "name": "calculateSaleReturn",
      "outputs": [
        {
          "name": "",
          "type": "uint256"
        }
      ],
      "payable": false,
      "stateMutability": "view",
      "type": "function"
    },
    {
      "constant": true,
      "inputs": [
        {
          "name": "",
          "type": "uint256"
        }
      ],
      "name": "listProviders",
      "outputs": [
        {
          "name": "",
          "type": "address"
        }
      ],
      "payable": false,
      "stateMutability": "view",
      "type": "function"
    },
    {
      "constant": true,
      "inputs": [],
      "name": "version",
      "outputs": [
        {
          "name": "",
          "type": "string"
        }
      ],
      "payable": false,
      "stateMutability": "view",
      "type": "function"
    },
    {
      "constant": true,
      "inputs": [],
      "name": "rewardPool",
      "outputs": [
        {
          "name": "",
          "type": "uint256"
        }
      ],
      "payable": false,
      "stateMutability": "view",
      "type": "function"
    },
    {
      "constant": true,
      "inputs": [],
      "name": "mAllowance",
      "outputs": [
        {
          "name": "",
          "type": "uint256"
        }
      ],
      "payable": false,
      "stateMutability": "view",
      "type": "function"
    },
    {
      "constant": true,
      "inputs": [],
      "name": "poolBalance",
      "outputs": [
        {
          "name": "",
          "type": "uint256"
        }
      ],
      "payable": false,
      "stateMutability": "view",
      "type": "function"
    },
    {
      "constant": true,
      "inputs": [],
      "name": "ONE",
      "outputs": [
        {
          "name": "",
          "type": "uint256"
        }
      ],
      "payable": false,
      "stateMutability": "view",
      "type": "function"
    },
    {
      "constant": true,
      "inputs": [],
      "name": "mToken",
      "outputs": [
        {
          "name": "",
          "type": "address"
        }
      ],
      "payable": false,
      "stateMutability": "view",
      "type": "function"
    },
    {
      "constant": true,
      "inputs": [],
      "name": "tcr",
      "outputs": [
        {
          "name": "",
          "type": "address"
        }
      ],
      "payable": false,
      "stateMutability": "view",
      "type": "function"
    },
    {
      "constant": true,
      "inputs": [],
      "name": "tokensToMint",
      "outputs": [
        {
          "name": "",
          "type": "uint256"
        }
      ],
      "payable": false,
      "stateMutability": "view",
      "type": "function"
    },
    {
      "constant": true,
      "inputs": [],
      "name": "mOwner",
      "outputs": [
        {
          "name": "",
          "type": "address"
        }
      ],
      "payable": false,
      "stateMutability": "view",
      "type": "function"
    },
    {
      "constant": false,
      "inputs": [
        {
          "name": "_newOwner",
          "type": "address"
        }
      ],
      "name": "transferOwnership",
      "outputs": [],
      "payable": false,
      "stateMutability": "nonpayable",
      "type": "function"
    },
    {
      "constant": true,
      "inputs": [],
      "name": "winProvider",
      "outputs": [
        {
          "name": "",
          "type": "uint256"
        }
      ],
      "payable": false,
      "stateMutability": "view",
      "type": "function"
    },
    {
      "inputs": [
        {
          "name": "_tokenAddress",
          "type": "address"
        },
        {
          "name": "_tcrAddress",
          "type": "address"
        }
      ],
      "payable": false,
      "stateMutability": "nonpayable",
      "type": "constructor"
    },
    {
      "anonymous": false,
      "inputs": [
        {
          "indexed": true,
          "name": "previousOwner",
          "type": "address"
        },
        {
          "indexed": true,
          "name": "newOwner",
          "type": "address"
        }
      ],
      "name": "OwnershipTransferred",
      "type": "event"
    },
    {
      "constant": true,
      "inputs": [
        {
          "name": "listing",
          "type": "bytes32"
        }
      ],
      "name": "checkListingStatus",
      "outputs": [
        {
          "name": "",
          "type": "bool"
        }
      ],
      "payable": false,
      "stateMutability": "view",
      "type": "function"
    },
    {
      "constant": true,
      "inputs": [
        {
          "name": "assetId",
          "type": "uint256"
        }
      ],
      "name": "dropsBalance",
      "outputs": [
        {
          "name": "",
          "type": "uint256"
        }
      ],
      "payable": false,
      "stateMutability": "view",
      "type": "function"
    },
    {
      "constant": true,
      "inputs": [],
      "name": "getInfo",
      "outputs": [
        {
          "name": "",
          "type": "bytes32"
        }
      ],
      "payable": false,
      "stateMutability": "view",
      "type": "function"
    },
    {
      "constant": true,
      "inputs": [],
      "name": "tokenBalance",
      "outputs": [
        {
          "name": "",
          "type": "uint256"
        }
      ],
      "payable": false,
      "stateMutability": "view",
      "type": "function"
    },
    {
      "constant": false,
      "inputs": [
        {
          "name": "assetId",
          "type": "uint256"
        }
      ],
      "name": "register",
      "outputs": [
        {
          "name": "success",
          "type": "bool"
        }
      ],
      "payable": false,
      "stateMutability": "nonpayable",
      "type": "function"
    },
    {
      "constant": false,
      "inputs": [
        {
          "name": "assetId",
          "type": "uint256"
        },
        {
          "name": "_url",
          "type": "bytes32"
        },
        {
          "name": "_token",
          "type": "bytes32"
        }
      ],
      "name": "publish",
      "outputs": [
        {
          "name": "success",
          "type": "bool"
        }
      ],
      "payable": false,
      "stateMutability": "nonpayable",
      "type": "function"
    },
    {
      "constant": false,
      "inputs": [
        {
          "name": "assetId",
          "type": "uint256"
        }
      ],
      "name": "purchase",
      "outputs": [
        {
          "name": "url",
          "type": "bytes32"
        },
        {
          "name": "token",
          "type": "bytes32"
        }
      ],
      "payable": false,
      "stateMutability": "nonpayable",
      "type": "function"
    },
    {
      "constant": true,
      "inputs": [
        {
          "name": "",
          "type": "uint256"
        }
      ],
      "name": "listAssets",
      "outputs": [
        {
          "name": "",
          "type": "uint256"
        }
      ],
      "payable": false,
      "stateMutability": "view",
      "type": "function"
    },
    {
      "constant": true,
      "inputs": [],
      "name": "listAssets",
      "outputs": [
        {
          "name": "",
          "type": "uint256[50]"
        }
      ],
      "payable": false,
      "stateMutability": "view",
      "type": "function"
    },
    {
      "constant": false,
      "inputs": [
        {
          "name": "amount",
          "type": "uint256"
        }
      ],
      "name": "requestTokens",
      "outputs": [
        {
          "name": "",
          "type": "uint256"
        }
      ],
      "payable": false,
      "stateMutability": "nonpayable",
      "type": "function"
    },
    {
      "constant": false,
      "inputs": [],
      "name": "withdraw",
      "outputs": [
        {
          "name": "",
          "type": "bool"
        }
      ],
      "payable": false,
      "stateMutability": "nonpayable",
      "type": "function"
    },
    {
      "constant": false,
      "inputs": [],
      "name": "mintToken",
      "outputs": [
        {
          "name": "balance",
          "type": "uint256"
        }
      ],
      "payable": false,
      "stateMutability": "nonpayable",
      "type": "function"
    },
    {
      "constant": false,
      "inputs": [
        {
          "name": "_assetId",
          "type": "uint256"
        },
        {
          "name": "_ocn",
          "type": "uint256"
        }
      ],
      "name": "buyDrops",
      "outputs": [
        {
          "name": "_drops",
          "type": "uint256"
        }
      ],
      "payable": false,
      "stateMutability": "nonpayable",
      "type": "function"
    },
    {
      "constant": false,
      "inputs": [
        {
          "name": "_assetId",
          "type": "uint256"
        },
        {
          "name": "_drops",
          "type": "uint256"
        }
      ],
      "name": "sellDrops",
      "outputs": [
        {
          "name": "_ocn",
          "type": "uint256"
        }
      ],
      "payable": false,
      "stateMutability": "nonpayable",
      "type": "function"
    },
    {
      "constant": true,
      "inputs": [
        {
          "name": "limit",
          "type": "uint256"
        }
      ],
      "name": "rng",
      "outputs": [
        {
          "name": "",
          "type": "uint256"
        }
      ],
      "payable": false,
      "stateMutability": "view",
      "type": "function"
    }
  ],
  "bytecode": "0x60606040526040805190810160405280600381526020017f302e3300000000000000000000000000000000000000000000000000000000008152506000908051906020019062000051929190620012bd565b506040805190810160405280600381526020017f302e330000000000000000000000000000000000000000000000000000000000815250608190805190602001906200009f929190620012bd565b50600060b655600060ea55600060eb55600a60ef55600160f0556207a12060f160006101000a81548163ffffffff021916908363ffffffff160217905550600060f2553415620000ee57600080fd5b6040516040806200407e83398101604052808051906020019091908051906020019091905050701c35fedd14ffffffffffffffffffffffff600160206080811015156200013757fe5b0181905550701b0ce43b323fffffffffffffffffffffff600160216080811015156200015f57fe5b01819055507019f0028ec1ffffffffffffffffffffffff600160226080811015156200018757fe5b01819055507018ded91f0e7fffffffffffffffffffffff60016023608081101515620001af57fe5b01819055507017d8ec7f0417ffffffffffffffffffffff60016024608081101515620001d757fe5b01819055507016ddc6556cdbffffffffffffffffffffff60016025608081101515620001ff57fe5b01819055507015ecf52776a1ffffffffffffffffffffff600160266080811015156200022757fe5b01819055507015060c256cb2ffffffffffffffffffffff600160276080811015156200024f57fe5b0181905550701428a2f98d72ffffffffffffffffffffff600160286080811015156200027757fe5b01819055507013545598e5c23fffffffffffffffffffff600160296080811015156200029f57fe5b0181905550701288c4161ce1dfffffffffffffffffffff6001602a608081101515620002c757fe5b01819055507011c592761c666fffffffffffffffffffff6001602b608081101515620002ef57fe5b018190555070110a688680a757ffffffffffffffffffff6001602c6080811015156200031757fe5b0181905550701056f1b5bedf77ffffffffffffffffffff6001602d6080811015156200033f57fe5b0181905550700faadceceeff8bffffffffffffffffffff6001602e6080811015156200036757fe5b0181905550700f05dc6b27edadffffffffffffffffffff6001602f6080811015156200038f57fe5b0181905550700e67a5a25da4107fffffffffffffffffff60016030608081101515620003b757fe5b0181905550700dcff115b14eedffffffffffffffffffff60016031608081101515620003df57fe5b0181905550700d3e7a392431239fffffffffffffffffff600160326080811015156200040757fe5b0181905550700cb2ff529eb71e4fffffffffffffffffff600160336080811015156200042f57fe5b0181905550700c2d415c3db974afffffffffffffffffff600160346080811015156200045757fe5b0181905550700bad03e7d883f69bffffffffffffffffff600160356080811015156200047f57fe5b0181905550700b320d03b2c343d5ffffffffffffffffff60016036608081101515620004a757fe5b0181905550700abc25204e02828dffffffffffffffffff60016037608081101515620004cf57fe5b0181905550700a4b16f74ee4bb207fffffffffffffffff60016038608081101515620004f757fe5b01819055507009deaf736ac1f569ffffffffffffffffff600160396080811015156200051f57fe5b0181905550700976bd9952c7aa957fffffffffffffffff6001603a6080811015156200054757fe5b01819055507009131271922eaa606fffffffffffffffff6001603b6080811015156200056f57fe5b01819055507008b380f3558668c46fffffffffffffffff6001603c6080811015156200059757fe5b0181905550700857ddf0117efa215bffffffffffffffff6001603d608081101515620005bf57fe5b01819055507007ffffffffffffffffffffffffffffffff6001603e608081101515620005e757fe5b01819055507007abbf6f6abb9d087fffffffffffffffff6001603f6080811015156200060f57fe5b018190555070075af62cbac95f7dfa7fffffffffffffff600160406080811015156200063757fe5b018190555070070d7fb7452e187ac13fffffffffffffff600160416080811015156200065f57fe5b01819055507006c3390ecc8af379295fffffffffffffff600160426080811015156200068757fe5b018190555070067c00a3b07ffc01fd6fffffffffffffff60016043608081101515620006af57fe5b0181905550700637b647c39cbb9d3d27ffffffffffffff60016044608081101515620006d757fe5b01819055507005f63b1fc104dbd39587ffffffffffffff60016045608081101515620006ff57fe5b01819055507005b771955b36e12f7235ffffffffffffff600160466080811015156200072757fe5b018190555070057b3d49dda84556d6f6ffffffffffffff600160476080811015156200074f57fe5b018190555070054183095b2c8ececf30ffffffffffffff600160486080811015156200077757fe5b018190555070050a28be635ca2b888f77fffffffffffff600160496080811015156200079f57fe5b01819055507004d5156639708c9db33c3fffffffffffff6001604a608081101515620007c757fe5b01819055507004a23105873875bd52dfdfffffffffffff6001604b608081101515620007ef57fe5b0181905550700471649d87199aa990756fffffffffffff6001604c6080811015156200081757fe5b01819055507004429a21a029d4c1457cfbffffffffffff6001604d6080811015156200083f57fe5b0181905550700415bc6d6fb7dd71af2cb3ffffffffffff6001604e6080811015156200086757fe5b01819055507003eab73b3bbfe282243ce1ffffffffffff6001604f6080811015156200088f57fe5b01819055507003c1771ac9fb6b4c18e229ffffffffffff60016050608081101515620008b757fe5b0181905550700399e96897690418f785257fffffffffff60016051608081101515620008df57fe5b0181905550700373fc456c53bb779bf0ea9fffffffffff600160526080811015156200090757fe5b018190555070034f9e8e490c48e67e6ab8bfffffffffff600160536080811015156200092f57fe5b018190555070032cbfd4a7adc790560b3337ffffffffff600160546080811015156200095757fe5b018190555070030b50570f6e5d2acca94613ffffffffff600160556080811015156200097f57fe5b01819055507002eb40f9f620fda6b56c2861ffffffffff60016056608081101515620009a757fe5b01819055507002cc8340ecb0d0f520a6af58ffffffffff60016057608081101515620009cf57fe5b01819055507002af09481380a0a35cf1ba02ffffffffff60016058608081101515620009f757fe5b0181905550700292c5bdd3b92ec810287b1b3fffffffff6001605960808110151562000a1f57fe5b0181905550700277abdcdab07d5a77ac6d6b9fffffffff6001605a60808110151562000a4757fe5b018190555070025daf6654b1eaa55fd64df5efffffffff6001605b60808110151562000a6f57fe5b0181905550700244c49c648baa98192dce88b7ffffffff6001605c60808110151562000a9757fe5b018190555070022ce03cd5619a311b2471268bffffffff6001605d60808110151562000abf57fe5b0181905550700215f77c045fbe885654a44a0fffffffff6001605e60808110151562000ae757fe5b01819055507001ffffffffffffffffffffffffffffffff6001605f60808110151562000b0f57fe5b01819055507001eaefdbdaaee7421fc4d3ede5ffffffff6001606060808110151562000b3757fe5b01819055507001d6bd8b2eb257df7e8ca57b09bfffffff6001606160808110151562000b5f57fe5b01819055507001c35fedd14b861eb0443f7f133fffffff6001606260808110151562000b8757fe5b01819055507001b0ce43b322bcde4a56e8ada5afffffff6001606360808110151562000baf57fe5b018190555070019f0028ec1fff007f5a195a39dfffffff6001606460808110151562000bd757fe5b018190555070018ded91f0e72ee74f49b15ba527ffffff6001606560808110151562000bff57fe5b018190555070017d8ec7f04136f4e5615fd41a63ffffff6001606660808110151562000c2757fe5b018190555070016ddc6556cdb84bdc8d12d22e6fffffff6001606760808110151562000c4f57fe5b018190555070015ecf52776a1155b5bd8395814f7fffff6001606860808110151562000c7757fe5b018190555070015060c256cb23b3b3cc3754cf40ffffff6001606960808110151562000c9f57fe5b01819055507001428a2f98d728ae223ddab715be3fffff6001606a60808110151562000cc757fe5b018190555070013545598e5c23276ccf0ede68034fffff6001606b60808110151562000cef57fe5b01819055507001288c4161ce1d6f54b7f61081194fffff6001606c60808110151562000d1757fe5b018190555070011c592761c666aa641d5a01a40f17ffff6001606d60808110151562000d3f57fe5b0181905550700110a688680a7530515f3e6e6cfdcdffff6001606e60808110151562000d6757fe5b01819055507001056f1b5bedf75c6bcb2ce8aed428ffff6001606f60808110151562000d8f57fe5b01819055506ffaadceceeff8a0890f3875f008277fff6001607060808110151562000db657fe5b01819055506ff05dc6b27edad306388a600f6ba0bfff6001607160808110151562000ddd57fe5b01819055506fe67a5a25da41063de1495d5b18cdbfff6001607260808110151562000e0457fe5b01819055506fdcff115b14eedde6fc3aa5353f2e4fff6001607360808110151562000e2b57fe5b01819055506fd3e7a3924312399f9aae2e0f868f8fff6001607460808110151562000e5257fe5b01819055506fcb2ff529eb71e41582cccd5a1ee26fff6001607560808110151562000e7957fe5b01819055506fc2d415c3db974ab32a51840c0b67edff6001607660808110151562000ea057fe5b01819055506fbad03e7d883f69ad5b0a186184e06bff6001607760808110151562000ec757fe5b01819055506fb320d03b2c343d4829abd6075f0cc5ff6001607860808110151562000eee57fe5b01819055506fabc25204e02828d73c6e80bcdb1a95bf6001607960808110151562000f1557fe5b01819055506fa4b16f74ee4bb2040a1ec6c15fbbf2df6001607a60808110151562000f3c57fe5b01819055506f9deaf736ac1f569deb1b5ae3f36c130f6001607b60808110151562000f6357fe5b01819055506f976bd9952c7aa957f5937d790ef650376001607c60808110151562000f8a57fe5b01819055506f9131271922eaa6064b73a22d0bd4f2bf6001607d60808110151562000fb157fe5b01819055506f8b380f3558668c46c91c49a2f8e967b96001607e60808110151562000fd857fe5b01819055506f857ddf0117efa215952912839f6473e66001607f60808110151562000fff57fe5b018190555033608260006101000a81548173ffffffffffffffffffffffffffffffffffffffff021916908373ffffffffffffffffffffffffffffffffffffffff160217905550600073ffffffffffffffffffffffffffffffffffffffff168273ffffffffffffffffffffffffffffffffffffffff16141515156200108257600080fd5b8160ec60006101000a81548173ffffffffffffffffffffffffffffffffffffffff021916908373ffffffffffffffffffffffffffffffffffffffff1602179055508060f360006101000a81548173ffffffffffffffffffffffffffffffffffffffff021916908373ffffffffffffffffffffffffffffffffffffffff16021790555060ec60009054906101000a900473ffffffffffffffffffffffffffffffffffffffff1673ffffffffffffffffffffffffffffffffffffffff1663718da7ee306040518263ffffffff167c0100000000000000000000000000000000000000000000000000000000028152600401808273ffffffffffffffffffffffffffffffffffffffff1673ffffffffffffffffffffffffffffffffffffffff168152602001915050602060405180830381600087803b1515620011c157600080fd5b5af11515620011cf57600080fd5b505050604051805190505060ec60009054906101000a900473ffffffffffffffffffffffffffffffffffffffff1673ffffffffffffffffffffffffffffffffffffffff166370a08231306040518263ffffffff167c0100000000000000000000000000000000000000000000000000000000028152600401808273ffffffffffffffffffffffffffffffffffffffff1673ffffffffffffffffffffffffffffffffffffffff168152602001915050602060405180830381600087803b15156200129757600080fd5b5af11515620012a557600080fd5b5050506040518051905060ed8190555050506200136c565b828054600181600116156101000203166002900490600052602060002090601f016020900481019282601f106200130057805160ff191683800117855562001331565b8280016001018555821562001331579182015b828111156200133057825182559160200191906001019062001313565b5b50905062001340919062001344565b5090565b6200136991905b80821115620013655760008160009055506001016200134b565b5090565b90565b612d02806200137c6000396000f3006060604052600436106101c2576000357c0100000000000000000000000000000000000000000000000000000000900463ffffffff16806302780677146101c75780630abbf0bc146101f05780630c7d5cd8146102195780631642cfbb1461024e57806318160ddd146102e35780632004ffd91461030c578063242d9b121461033557806324902e24146103c457806329a00e7c146103ed5780633ccfd60b1461044557806349f9b0f7146104725780634d841e1f146104ca57806353f836db1461052d57806354fd4d501461056457806358bd1995146105f25780635a9b0b891461063257806366666aa91461066357806370dbe7101461068c57806376559e2d146106e157806396365d441461070a5780639e1a4d1914610733578063b8ef5a381461075c578063c2ee3a0814610793578063c3b6f939146107bc578063c438aeb514610811578063c6beb88414610866578063c9585853146108a6578063cbafee8a146108dd578063dcda4bf314610906578063eadeb9a31461095b578063eef9c27c146109ac578063efef39a1146109e3578063f207564e14610a31578063f2fde38b14610a6c578063f7216f6b14610aa5578063fae9297214610ae4575b600080fd5b34156101d257600080fd5b6101da610b0d565b6040518082815260200191505060405180910390f35b34156101fb57600080fd5b610203610b19565b6040518082815260200191505060405180910390f35b341561022457600080fd5b61022c610b1f565b604051808263ffffffff1663ffffffff16815260200191505060405180910390f35b341561025957600080fd5b610285600480803573ffffffffffffffffffffffffffffffffffffffff16906020019091905050610b35565b604051808673ffffffffffffffffffffffffffffffffffffffff1673ffffffffffffffffffffffffffffffffffffffff1681526020018581526020018481526020018381526020018281526020019550505050505060405180910390f35b34156102ee57600080fd5b6102f6610b8b565b6040518082815260200191505060405180910390f35b341561031757600080fd5b61031f610b91565b6040518082815260200191505060405180910390f35b341561034057600080fd5b6103566004808035906020019091905050610e13565b604051808673ffffffffffffffffffffffffffffffffffffffff1673ffffffffffffffffffffffffffffffffffffffff168152602001858152602001848152602001836000191660001916815260200182600019166000191681526020019550505050505060405180910390f35b34156103cf57600080fd5b6103d7610e69565b6040518082815260200191505060405180910390f35b34156103f857600080fd5b61042f600480803590602001909190803590602001909190803563ffffffff16906020019091908035906020019091905050610e76565b6040518082815260200191505060405180910390f35b341561045057600080fd5b610458610f77565b604051808215151515815260200191505060405180910390f35b341561047d57600080fd5b6104b4600480803590602001909190803590602001909190803563ffffffff16906020019091908035906020019091905050611155565b6040518082815260200191505060405180910390f35b34156104d557600080fd5b6104eb6004808035906020019091905050611289565b604051808273ffffffffffffffffffffffffffffffffffffffff1673ffffffffffffffffffffffffffffffffffffffff16815260200191505060405180910390f35b341561053857600080fd5b61054e60048080359060200190919050506112be565b6040518082815260200191505060405180910390f35b341561056f57600080fd5b6105776112f4565b6040518080602001828103825283818151815260200191508051906020019080838360005b838110156105b757808201518184015260208101905061059c565b50505050905090810190601f1680156105e45780820380516001836020036101000a031916815260200191505b509250505060405180910390f35b34156105fd57600080fd5b61061c6004808035906020019091908035906020019091905050611392565b6040518082815260200191505060405180910390f35b341561063d57600080fd5b6106456115d5565b60405180826000191660001916815260200191505060405180910390f35b341561066e57600080fd5b610676611605565b6040518082815260200191505060405180910390f35b341561069757600080fd5b6106c76004808035906020019091908035600019169060200190919080356000191690602001909190505061160b565b604051808215151515815260200191505060405180910390f35b34156106ec57600080fd5b6106f461171d565b6040518082815260200191505060405180910390f35b341561071557600080fd5b61071d611723565b6040518082815260200191505060405180910390f35b341561073e57600080fd5b610746611729565b6040518082815260200191505060405180910390f35b341561076757600080fd5b61077d60048080359060200190919050506117fa565b6040518082815260200191505060405180910390f35b341561079e57600080fd5b6107a661187c565b6040518082815260200191505060405180910390f35b34156107c757600080fd5b6107cf611889565b604051808273ffffffffffffffffffffffffffffffffffffffff1673ffffffffffffffffffffffffffffffffffffffff16815260200191505060405180910390f35b341561081c57600080fd5b6108246118af565b604051808273ffffffffffffffffffffffffffffffffffffffff1673ffffffffffffffffffffffffffffffffffffffff16815260200191505060405180910390f35b341561087157600080fd5b61089060048080359060200190919080359060200190919050506118d5565b6040518082815260200191505060405180910390f35b34156108b157600080fd5b6108c76004808035906020019091905050611c59565b6040518082815260200191505060405180910390f35b34156108e857600080fd5b6108f0611c73565b6040518082815260200191505060405180910390f35b341561091157600080fd5b610919611c79565b604051808273ffffffffffffffffffffffffffffffffffffffff1673ffffffffffffffffffffffffffffffffffffffff16815260200191505060405180910390f35b341561096657600080fd5b61096e611c9f565b6040518082603260200280838360005b8381101561099957808201518184015260208101905061097e565b5050505090500191505060405180910390f35b34156109b757600080fd5b6109cd6004808035906020019091905050611cea565b6040518082815260200191505060405180910390f35b34156109ee57600080fd5b610a046004808035906020019091905050611e2f565b60405180836000191660001916815260200182600019166000191681526020019250505060405180910390f35b3415610a3c57600080fd5b610a5260048080359060200190919050506120ce565b604051808215151515815260200191505060405180910390f35b3415610a7757600080fd5b610aa3600480803573ffffffffffffffffffffffffffffffffffffffff16906020019091905050612354565b005b3415610ab057600080fd5b610aca600480803560001916906020019091905050612430565b604051808215151515815260200191505060405180910390f35b3415610aef57600080fd5b610af76124e8565b6040518082815260200191505060405180910390f35b67b17217f7d1cf79ac81565b60ea5481565b60f160009054906101000a900463ffffffff1681565b60b76020528060005260406000206000915090508060000160009054906101000a900473ffffffffffffffffffffffffffffffffffffffff16908060010154908060020154908060030154908060040154905085565b60ef5481565b600080600060ec60009054906101000a900473ffffffffffffffffffffffffffffffffffffffff1673ffffffffffffffffffffffffffffffffffffffff166370a08231306040518263ffffffff167c0100000000000000000000000000000000000000000000000000000000028152600401808273ffffffffffffffffffffffffffffffffffffffff1673ffffffffffffffffffffffffffffffffffffffff168152602001915050602060405180830381600087803b1515610c5257600080fd5b5af11515610c5f57600080fd5b50505060405180519050915060ec60009054906101000a900473ffffffffffffffffffffffffffffffffffffffff1673ffffffffffffffffffffffffffffffffffffffff1663c89aee836040518163ffffffff167c0100000000000000000000000000000000000000000000000000000000028152600401602060405180830381600087803b1515610cf057600080fd5b5af11515610cfd57600080fd5b505050604051805190501515610d1257600080fd5b60ec60009054906101000a900473ffffffffffffffffffffffffffffffffffffffff1673ffffffffffffffffffffffffffffffffffffffff166370a08231306040518263ffffffff167c0100000000000000000000000000000000000000000000000000000000028152600401808273ffffffffffffffffffffffffffffffffffffffff1673ffffffffffffffffffffffffffffffffffffffff168152602001915050602060405180830381600087803b1515610dce57600080fd5b5af11515610ddb57600080fd5b50505060405180519050905081810360ee6000828254019250508190555081810360ed60008282540192505081905550809250505090565b60836020528060005260406000206000915090508060000160009054906101000a900473ffffffffffffffffffffffffffffffffffffffff16908060010154908060020154908060030154908060040154905085565b680171547652b82fe17781565b60008060008060008089118015610e8d5750600088115b8015610e9f575060008763ffffffff16115b8015610eba5750620f424063ffffffff168763ffffffff1611155b1515610ec557600080fd5b6000861415610ed75760009450610f6b565b620f424063ffffffff168763ffffffff161415610f1a57610f1388610f05888c6124ee90919063ffffffff16565b61252190919063ffffffff16565b9450610f6b565b610f2d888761253c90919063ffffffff16565b9150610f3e828989620f424061255a565b80945081955050508260ff16610f5d858b6124ee90919063ffffffff16565b9060020a9004905088810394505b50505050949350505050565b60008060b760003373ffffffffffffffffffffffffffffffffffffffff1673ffffffffffffffffffffffffffffffffffffffff168152602001908152602001600020600101549050600060b760003373ffffffffffffffffffffffffffffffffffffffff1673ffffffffffffffffffffffffffffffffffffffff168152602001908152602001600020600101819055508060ed600082825403925050819055508060b760003373ffffffffffffffffffffffffffffffffffffffff1673ffffffffffffffffffffffffffffffffffffffff1681526020019081526020016000206002016000828254039250508190555060ec60009054906101000a900473ffffffffffffffffffffffffffffffffffffffff1673ffffffffffffffffffffffffffffffffffffffff1663a9059cbb33836040518363ffffffff167c0100000000000000000000000000000000000000000000000000000000028152600401808373ffffffffffffffffffffffffffffffffffffffff1673ffffffffffffffffffffffffffffffffffffffff16815260200182815260200192505050602060405180830381600087803b151561112b57600080fd5b5af1151561113857600080fd5b50505060405180519050151561114d57600080fd5b600191505090565b60008060008060008060008a11801561116e5750600089115b8015611180575060008863ffffffff16115b801561119b5750620f424063ffffffff168863ffffffff1611155b80156111a75750898711155b15156111b257600080fd5b60008714156111c4576000955061127c565b898714156111d45788955061127c565b620f424063ffffffff168863ffffffff161415611217576112108a611202898c6124ee90919063ffffffff16565b61252190919063ffffffff16565b955061127c565b868a03925061122b8a84620f42408b61255a565b8095508196505050611246858a6124ee90919063ffffffff16565b91508360ff16899060020a0290506112798561126b83856125b790919063ffffffff16565b61252190919063ffffffff16565b95505b5050505050949350505050565b60b88160328110151561129857fe5b016000915054906101000a900473ffffffffffffffffffffffffffffffffffffffff1681565b600081424460405180838152602001828152602001925050506040518091039020600190048115156112ec57fe5b069050919050565b60818054600181600116156101000203166002900480601f01602080910402602001604051908101604052809291908181526020018280546001816001161561010002031660029004801561138a5780601f1061135f5761010080835404028352916020019161138a565b820191906000526020600020905b81548152906001019060200180831161136d57829003601f168201915b505050505081565b600080600060b760003373ffffffffffffffffffffffffffffffffffffffff1673ffffffffffffffffffffffffffffffffffffffff16815260200190815260200160002060000160009054906101000a900473ffffffffffffffffffffffffffffffffffffffff1673ffffffffffffffffffffffffffffffffffffffff161415151561141d57600080fd5b61143f60ef5460f05460f160009054906101000a900463ffffffff1686611155565b90506114568360ef546125b790919063ffffffff16565b60ef819055506114718160f0546125b790919063ffffffff16565b60f0819055506114a08360836000878152602001908152602001600020600101546125b790919063ffffffff16565b60836000868152602001908152602001600020600101819055508060b760003373ffffffffffffffffffffffffffffffffffffffff1673ffffffffffffffffffffffffffffffffffffffff168152602001908152602001600020600101600082825401925050819055508060b760003373ffffffffffffffffffffffffffffffffffffffff1673ffffffffffffffffffffffffffffffffffffffff168152602001908152602001600020600201600082825401925050819055508060ed60008282540192505081905550826083600086815260200190815260200160002060050160003373ffffffffffffffffffffffffffffffffffffffff1673ffffffffffffffffffffffffffffffffffffffff168152602001908152602001600020600082825403925050819055508091505092915050565b6000807f737854474653777300000000000000000000000000000000000000000000000060010290508091505090565b60ee5481565b6000806083600086815260200190815260200160002060000160009054906101000a900473ffffffffffffffffffffffffffffffffffffffff1673ffffffffffffffffffffffffffffffffffffffff161415151561166857600080fd5b6083600085815260200190815260200160002060000160009054906101000a900473ffffffffffffffffffffffffffffffffffffffff1673ffffffffffffffffffffffffffffffffffffffff163373ffffffffffffffffffffffffffffffffffffffff161415156116d857600080fd5b82608360008681526020019081526020016000206003018160001916905550816083600086815260200190815260200160002060040181600019169055509392505050565b60ed5481565b60f05481565b60008060b760003373ffffffffffffffffffffffffffffffffffffffff1673ffffffffffffffffffffffffffffffffffffffff16815260200190815260200160002060000160009054906101000a900473ffffffffffffffffffffffffffffffffffffffff1673ffffffffffffffffffffffffffffffffffffffff16141515156117b257600080fd5b60b760003373ffffffffffffffffffffffffffffffffffffffff1673ffffffffffffffffffffffffffffffffffffffff16815260200190815260200160002060010154905090565b6000803373ffffffffffffffffffffffffffffffffffffffff161415151561182157600080fd5b6083600083815260200190815260200160002060050160003373ffffffffffffffffffffffffffffffffffffffff1673ffffffffffffffffffffffffffffffffffffffff168152602001908152602001600020549050919050565b6801000000000000000081565b60ec60009054906101000a900473ffffffffffffffffffffffffffffffffffffffff1681565b60f360009054906101000a900473ffffffffffffffffffffffffffffffffffffffff1681565b60008160b760003373ffffffffffffffffffffffffffffffffffffffff1673ffffffffffffffffffffffffffffffffffffffff168152602001908152602001600020600101600082825401925050819055508160b760003373ffffffffffffffffffffffffffffffffffffffff1673ffffffffffffffffffffffffffffffffffffffff168152602001908152602001600020600201600082825401925050819055508160ed6000828254019250508190555060ec60009054906101000a900473ffffffffffffffffffffffffffffffffffffffff1673ffffffffffffffffffffffffffffffffffffffff166323b872dd3330856040518463ffffffff167c0100000000000000000000000000000000000000000000000000000000028152600401808473ffffffffffffffffffffffffffffffffffffffff1673ffffffffffffffffffffffffffffffffffffffff1681526020018373ffffffffffffffffffffffffffffffffffffffff1673ffffffffffffffffffffffffffffffffffffffff1681526020018281526020019350505050602060405180830381600087803b1515611a7f57600080fd5b5af11515611a8c57600080fd5b505050604051805190501515611aa157600080fd5b611ac360ef5460f05460f160009054906101000a900463ffffffff1685610e76565b60f281905550611af460f254608360008681526020019081526020016000206001015461253c90919063ffffffff16565b608360008581526020019081526020016000206001018190555060f25460ef60008282540192505081905550611b358260f05461253c90919063ffffffff16565b60f0819055508160b760003373ffffffffffffffffffffffffffffffffffffffff1673ffffffffffffffffffffffffffffffffffffffff168152602001908152602001600020600101600082825403925050819055508160b760003373ffffffffffffffffffffffffffffffffffffffff1673ffffffffffffffffffffffffffffffffffffffff168152602001908152602001600020600201600082825403925050819055508160ed6000828254039250508190555060f2546083600085815260200190815260200160002060050160003373ffffffffffffffffffffffffffffffffffffffff1673ffffffffffffffffffffffffffffffffffffffff1681526020019081526020016000206000828254019250508190555060f254905092915050565b608481603281101515611c6857fe5b016000915090505481565b60f25481565b608260009054906101000a900473ffffffffffffffffffffffffffffffffffffffff1681565b611ca7612cad565b6084603280602002604051908101604052809291908260328015611ce0576020028201915b815481526020019060010190808311611ccc575b5050505050905090565b60008060003373ffffffffffffffffffffffffffffffffffffffff1614151515611d1357600080fd5b600090508260ed54101515611d2a57829050611d30565b60ed5490505b8060ed6000828254039250508190555060ec60009054906101000a900473ffffffffffffffffffffffffffffffffffffffff1673ffffffffffffffffffffffffffffffffffffffff1663a9059cbb33836040518363ffffffff167c0100000000000000000000000000000000000000000000000000000000028152600401808373ffffffffffffffffffffffffffffffffffffffff1673ffffffffffffffffffffffffffffffffffffffff16815260200182815260200192505050602060405180830381600087803b1515611e0457600080fd5b5af11515611e1157600080fd5b505050604051805190501515611e2657600080fd5b80915050919050565b6000806000806083600086815260200190815260200160002060000160009054906101000a900473ffffffffffffffffffffffffffffffffffffffff1673ffffffffffffffffffffffffffffffffffffffff1614151515611e8f57600080fd5b603260ea541015611fcb576083600085815260200190815260200160002060000160009054906101000a900473ffffffffffffffffffffffffffffffffffffffff1660b860ea54603281101515611ee257fe5b0160006101000a81548173ffffffffffffffffffffffffffffffffffffffff021916908373ffffffffffffffffffffffffffffffffffffffff160217905550600160ea6000828254019250508190555060016083600086815260200190815260200160002060060160006083600088815260200190815260200160002060000160009054906101000a900473ffffffffffffffffffffffffffffffffffffffff1673ffffffffffffffffffffffffffffffffffffffff1673ffffffffffffffffffffffffffffffffffffffff168152602001908152602001600020600082825401925050819055505b611fd660ea546112be565b60eb81905550600060ee5414158015611ff25750600060eb5410155b8015612001575060ea5460eb54105b156120965760b860eb5460328110151561201757fe5b0160009054906101000a900473ffffffffffffffffffffffffffffffffffffffff16905060ee5460b760008373ffffffffffffffffffffffffffffffffffffffff1673ffffffffffffffffffffffffffffffffffffffff16815260200190815260200160002060010160008282540192505081905550600060ee819055505b608360008581526020019081526020016000206003015460836000868152602001908152602001600020600401549250925050915091565b60008060003373ffffffffffffffffffffffffffffffffffffffff16141515156120f757600080fd5b60a0604051908101604052803373ffffffffffffffffffffffffffffffffffffffff168152602001600081526020016000815260200160008152602001600081525060b760003373ffffffffffffffffffffffffffffffffffffffff1673ffffffffffffffffffffffffffffffffffffffff16815260200190815260200160002060008201518160000160006101000a81548173ffffffffffffffffffffffffffffffffffffffff021916908373ffffffffffffffffffffffffffffffffffffffff16021790555060208201518160010155604082015181600201556060820151816003015560808201518160040155905050610400905060a0604051908101604052803373ffffffffffffffffffffffffffffffffffffffff1681526020016000815260200182815260200160006001026000191681526020016000600102600019168152506083600085815260200190815260200160002060008201518160000160006101000a81548173ffffffffffffffffffffffffffffffffffffffff021916908373ffffffffffffffffffffffffffffffffffffffff16021790555060208201518160010155604082015181600201556060820151816003019060001916905560808201518160040190600019169055905050603260b65410156123035782608460b6546032811015156122ec57fe5b0181905550600160b6600082825401925050819055505b8060b760003373ffffffffffffffffffffffffffffffffffffffff1673ffffffffffffffffffffffffffffffffffffffff168152602001908152602001600020600301819055506001915050919050565b608260009054906101000a900473ffffffffffffffffffffffffffffffffffffffff1673ffffffffffffffffffffffffffffffffffffffff163373ffffffffffffffffffffffffffffffffffffffff161415156123b057600080fd5b600073ffffffffffffffffffffffffffffffffffffffff168173ffffffffffffffffffffffffffffffffffffffff16141515156123ec57600080fd5b80608260006101000a81548173ffffffffffffffffffffffffffffffffffffffff021916908373ffffffffffffffffffffffffffffffffffffffff16021790555050565b600060f360009054906101000a900473ffffffffffffffffffffffffffffffffffffffff1673ffffffffffffffffffffffffffffffffffffffff166301a5e3fe836040518263ffffffff167c0100000000000000000000000000000000000000000000000000000000028152600401808260001916600019168152602001915050602060405180830381600087803b15156124ca57600080fd5b5af115156124d757600080fd5b505050604051805190509050919050565b60eb5481565b6000808284029050600084148061250f575082848281151561250c57fe5b04145b151561251757fe5b8091505092915050565b600080828481151561252f57fe5b0490508091505092915050565b600080828401905083811015151561255057fe5b8091505092915050565b6000806000808463ffffffff168663ffffffff166125788a8a6125d0565b0281151561258257fe5b04915061258e82612737565b90506125a781607f0360ff16839060020a9004826127f7565b8193509350505094509492505050565b60008282111515156125c557fe5b818303905092915050565b60008060008060007001ffffffffffffffffffffffffffffffff87111515156125f557fe5b60009350856f80000000000000000000000000000000880281151561261657fe5b0492507001000000000000000000000000000000008310151561267f576126576f800000000000000000000000000000008481151561265157fe5b04612c1b565b91508160ff16839060020a900492506f800000000000000000000000000000008260ff160293505b6f8000000000000000000000000000000083111561270d57607f90505b60008160ff16111561270c576f800000000000000000000000000000008384028115156126c557fe5b04925070010000000000000000000000000000000083101515612700576001839060020a900492506001810360ff1660019060020a02840193505b8060019003905061269c565b5b607a60ff166f02c5c85fdf473de6af278ece600fcbda85029060020a900494505050505092915050565b60008060008060209250607f91505b8160ff166001840160ff16101561279857600282840160ff1681151561276857fe5b0490508460018260ff1660808110151561277e57fe5b015410151561278f57809250612793565b8091505b612746565b8460018360ff166080811015156127ab57fe5b01541015156127bc578193506127ef565b8460018460ff166080811015156127cf57fe5b01541015156127e0578293506127ef565b600015156127ea57fe5b600093505b505050919050565b6000806000849150600090508360ff168583029060020a900491506f03442c4e6074a82f1797f72ac00000008202810190508360ff168583029060020a900491506f0116b96f757c380fb287fd0e400000008202810190508360ff168583029060020a900491506e45ae5bdd5f0e03eca1ff43900000008202810190508360ff168583029060020a900491506e0defabf91302cd95b9ffda500000008202810190508360ff168583029060020a900491506e02529ca9832b22439efff9b80000008202810190508360ff168583029060020a900491506d54f1cf12bd04e516b6da880000008202810190508360ff168583029060020a900491506d0a9e39e257a09ca2d6db510000008202810190508360ff168583029060020a900491506d012e066e7b839fa050c3090000008202810190508360ff168583029060020a900491506c1e33d7d926c329a1ad1a8000008202810190508360ff168583029060020a900491506c02bee513bdb4a6b19b5f8000008202810190508360ff168583029060020a900491506b3a9316fa79b88eccf2a000008202810190508360ff168583029060020a900491506b048177ebe1fa8123752000008202810190508360ff168583029060020a900491506a5263fe90242dcbacf000008202810190508360ff168583029060020a900491506a057e22099c030d941000008202810190508360ff168583029060020a900491506957e22099c030d94100008202810190508360ff168583029060020a9004915069052b6b545699763100008202810190508360ff168583029060020a90049150684985f67696bf7480008202810190508360ff168583029060020a900491506803dea12ea99e4980008202810190508360ff168583029060020a900491506731880f2214b6e0008202810190508360ff168583029060020a9004915067025bcff56eb360008202810190508360ff168583029060020a90049150661b722e10ab10008202810190508360ff168583029060020a900491506601317c700770008202810190508360ff168583029060020a90049150650cba84aafa008202810190508360ff168583029060020a900491506482573a0a008202810190508360ff168583029060020a900491506405035ad9008202810190508360ff168583029060020a90049150632f881b008202810190508360ff168583029060020a900491506301b293408202810190508360ff168583029060020a90049150620efc408202810190508360ff168583029060020a90049150617fe08202810190508360ff168583029060020a900491506104208202810190508360ff168583029060020a9004915060218202810190508360ff168583029060020a9004915060018202810190508360ff1660019060020a02856f0688589cc0e9505e2f2fee558000000083811515612c0e57fe5b0401019250505092915050565b60008060008060009250849150610100821015612c57575b6001821115612c52576001829060020a90049150600183019250612c33565b612ca2565b608090505b60008160ff161115612ca1578060ff1660019060020a0282101515612c8e578060ff16829060020a9004915080831792505b60018160ff169060020a90049050612c5c565b5b829350505050919050565b610640604051908101604052806032905b6000815260200190600190039081612cbe57905050905600a165627a7a72305820d57d614c8f23ae74d95e10c9f5227ab6ca24c1bdbf950c80d2af68d85373d8150029",
  "source": "pragma solidity ^0.4.21;\n\nimport './token/OceanToken.sol';\nimport './tcr/Registry.sol';\nimport './bondingCurve/BancorFormula.sol';\n\nimport './zeppelin/Ownable.sol';\nimport './zeppelin/SafeMath.sol';\n\n\n\ncontract Market is BancorFormula, Ownable {\n\n    using SafeMath for uint256;\n    using SafeMath for uint;\n\n\n    // data Asset\n    struct Asset{\n          address owner;                          // owner of the Asset\n          uint256 ndrops;                         // total supply of Drops\n          uint256 bitSize;                        // size of asset in bit\n          bytes32 url;                            // url of the asset\n          bytes32 token;                          // token to get access to the asset\n          mapping (address => uint256) drops;     // mapping provider (address) to their stakes on dataset Sij\n          mapping (address => uint256) delivery;  // mapping provider (address) to their #delivery of dataset Dj\n    }\n    mapping (uint256 => Asset) public mAssets;           // mapping assetId to Asset struct\n    uint256[50] public  listAssets;\n    uint256     private  sizeListAssets= 0;\n\n    // data Provider\n    struct Provider{\n          address provider;\n          uint256 numOCN;                        // Ocean token balance\n          uint256 allowanceOCN;                  // available Ocean tokens for transfer excuding locked tokens for staking\n          uint256 uploadBits;                    // total number of bits that served across all data assets with stakes\n          uint256 downloadBits;                  // total number of bits that download across all data assets with stakes\n    }\n    mapping (address => Provider) public mProviders;    // mapping providerId to Provider struct\n    address[50] public  listProviders;\n    uint256     public sizeProviders= 0;\n    uint256     public winProvider = 0;\n\n    // marketplace global variables\n    OceanToken  public  mToken;\n    uint256     public  mAllowance;             // total available Ocean tokens for transfer (exclude locked tokens)\n    uint256     public  rewardPool;             // T_difficulty: total OCN emitted during the interval\n\n    // bonding Curve\n    uint256 public totalSupply = 10;          // initial total supply\n    uint256 public poolBalance = 1;           // poolBalance for specific dataset\n    uint32  public reserveRatio = 500000;      // max 1000000, reserveRatio = 20%\n    uint256 public tokensToMint = 0;\n\n    // TCR\n    Registry  public  tcr;\n\n    function checkListingStatus(bytes32 listing) public view returns(bool){\n      return tcr.isWhitelisted(listing);\n    }\n\n    ///////////////////////////////////////////////////////////////////\n    //  Query function\n    ///////////////////////////////////////////////////////////////////\n    function dropsBalance(uint256 assetId) public view returns (uint256){\n        require(msg.sender != 0x0);\n        return mAssets[assetId].drops[msg.sender];\n    }\n\n    function getInfo() public view returns (bytes32) {\n      bytes32 token = 0x7378544746537773000000000000000000000000000000000000000000000000;\n      return token;\n    }\n\n    function tokenBalance() public view returns (uint256) {\n      require(mProviders[msg.sender].provider != 0x0);\n      return mProviders[msg.sender].numOCN;\n    }\n    ///////////////////////////////////////////////////////////////////\n    //  Constructor function\n    ///////////////////////////////////////////////////////////////////\n    // 1. constructor\n    function Market(address _tokenAddress, address _tcrAddress) public {\n        require(_tokenAddress != address(0));\n        // instantiate deployed Ocean token contract\n\t\t    mToken = OceanToken(_tokenAddress);\n        // instance of TCR\n        tcr = Registry(_tcrAddress);\n        // set the token receiver to be marketplace\n        mToken.setReceiver(address(this));\n        // setReceiver funciton will transfer initial funds to Market contract\n        mAllowance = mToken.balanceOf(address(this));\n    }\n\n    ///////////////////////////////////////////////////////////////////\n    // Actor and Asset routine procedures\n    ///////////////////////////////////////////////////////////////////\n\n    // 1. register provider and assets upload by changing uploadBits\n    function register(uint256 assetId) public returns (bool success) {\n      require(msg.sender != 0x0);\n      // register provider\n      mProviders[msg.sender] = Provider(msg.sender, 0, 0, 0, 0);\n\n      // register assets\n      uint256 fileSize = 1024;\n      mAssets[assetId] = Asset(msg.sender, 0, fileSize, 0, 0);  // Creates new struct and saves in storage. We leave out the mapping type.\n\n      if (sizeListAssets < 50)  {\n          listAssets[sizeListAssets] = assetId;\n          sizeListAssets += 1;\n      }\n\n      // simulate uploading dataSet\n      mProviders[msg.sender].uploadBits = fileSize;\n      return true;\n    }\n\n\n    // publish consumption information about an Asset\n    function publish(uint256 assetId, bytes32 _url, bytes32 _token) external returns (bool success) {\n         require(mAssets[assetId].owner != 0x0);\n         require(msg.sender == mAssets[assetId].owner);\n\n        mAssets[assetId].url= _url;\n        mAssets[assetId].token= _token;\n    }\n\n    // purchase an asset and get the consumption information - called by consumer\n    function purchase(uint256 assetId) external returns (bytes32 url, bytes32 token) {\n        require(mAssets[assetId].owner != 0x0);\n\n        // increment counter\n        if (sizeProviders < 50)  {\n          listProviders[sizeProviders] = mAssets[assetId].owner;\n          sizeProviders += 1;\n          mAssets[assetId].delivery[mAssets[assetId].owner] += 1;\n        }\n\n        // request token rewards for provider\n        winProvider = rng(sizeProviders);\n        if(rewardPool != 0 && winProvider >= 0 && winProvider < sizeProviders ){\n          address winner = listProviders[winProvider];\n          mProviders[winner].numOCN += rewardPool;\n          rewardPool = 0 ;\n        }\n\n        return (mAssets[assetId].url, mAssets[assetId].token);\n    }\n\n    function listAssets() external view returns (uint256[50]) {\n        return listAssets;\n    }\n\n        // 2. request initial fund transfer\n    function requestTokens(uint256 amount) public returns (uint256) {\n      require(msg.sender != 0x0);\n      // find amount of tokens need or can be transferred\n      uint256 nToken = 0;\n      if (mAllowance >= amount){\n        nToken = amount;\n      } else {\n        nToken = mAllowance;\n      }\n      // withdraw tokens from Marketplace -> remember to decrease allowance first!!\n      mAllowance -= nToken;\n      // the OCN tokens is held in user wallet rather than market escrow accounts -> do not change provider balances\n      require(mToken.transfer(msg.sender, nToken));\n      return nToken;\n    }\n\n\n    // 5. withdraw\n    function withdraw() public returns (bool) {\n      //require(mProviders[msg.sender].allowanceOCN >= mProviders[msg.sender].numOCN);\n      //require(mAllowance >= mProviders[msg.sender].numOCN);\n      uint256 amount = mProviders[msg.sender].numOCN;\n      mProviders[msg.sender].numOCN = 0;\n      mAllowance -= amount;\n      mProviders[msg.sender].allowanceOCN -= amount;\n      require(mToken.transfer(msg.sender, amount));\n      return true;\n    }\n\n\n\n\n    ///////////////////////////////////////////////////////////////////\n    // Block Reward Module\n    ///////////////////////////////////////////////////////////////////\n\n    // marketplace request the emitted Ocean Tokens which are transferred to market\n    function mintToken() public returns (uint256 balance) {\n      uint256 previous = mToken.balanceOf(address(this));\n      require(mToken.emitTokens());\n      uint256 current  = mToken.balanceOf(address(this));\n      // credit emitted tokens to block reward pool\n      rewardPool += current - previous;\n\n      // raise the limit of token allowance for marketplace\n      mAllowance += current - previous;\n      // return the current token balance\n      return current;\n    }\n\n    ///////////////////////////////////////////////////////////////////\n    // Bonding Curve Module\n    ///////////////////////////////////////////////////////////////////\n\n    // 1. bondingCurve function - buy Drops - call by any actors\n    function buyDrops(uint256 _assetId, uint256 _ocn) public returns (uint256 _drops) {\n      // First transfer _ocn tokens into Marketplace escrow account to purchase Drops\n      mProviders[msg.sender].numOCN += _ocn;\n      mProviders[msg.sender].allowanceOCN += _ocn;\n      mAllowance += _ocn;\n      require(mToken.transferFrom(msg.sender, address(this), _ocn));\n\n\n      //uint256 tokensToMint = 0; mAssets[_assetId].ndrops\n      tokensToMint = calculatePurchaseReturn(totalSupply, poolBalance, reserveRatio, _ocn);\n      mAssets[_assetId].ndrops = mAssets[_assetId].ndrops.add(tokensToMint);\n\n      // 4. update balances\n\n      // increment total ndrops\n      totalSupply  += tokensToMint;\n      poolBalance = poolBalance.add(_ocn);\n\n      //mAssets[_assetId].ndrops += tokensToMint;\n      // lock ocean Tokens\n      mProviders[msg.sender].numOCN -= _ocn;\n      mProviders[msg.sender].allowanceOCN -= _ocn;\n      mAllowance -= _ocn;\n      mAssets[_assetId].drops[msg.sender] += tokensToMint;\n\n      return tokensToMint;\n    }\n\n    function sellDrops(uint256 _assetId, uint256 _drops) public returns (uint256 _ocn) {\n      require(mProviders[msg.sender].provider != 0x0);\n\n      uint256 ocnAmount = calculateSaleReturn(totalSupply, poolBalance, reserveRatio, _drops);\n\n      // 4. update balances\n      totalSupply = totalSupply.sub(_drops);\n      poolBalance = poolBalance.sub(ocnAmount);\n      // decrement total ndrops\n      mAssets[_assetId].ndrops = mAssets[_assetId].ndrops.sub(_drops);\n      // unlock ocean Tokens\n      mProviders[msg.sender].numOCN += ocnAmount;\n      mProviders[msg.sender].allowanceOCN += ocnAmount;\n      mAllowance += ocnAmount;\n      // decrement drops balance of actors\n      mAssets[_assetId].drops[msg.sender] -= _drops;\n      return ocnAmount;\n    }\n\n\n    ///////////////////////////////////////////////////////////////////\n    // XOR random number generator\n    ///////////////////////////////////////////////////////////////////\n\n    function rng(uint256 limit) public view returns (uint256) {\n      return uint256(uint256(keccak256(block.timestamp, block.difficulty))%limit);\n    }\n\n\n    ///////////////////////////////////////////////////////////////////\n    // Utility Functions\n    ///////////////////////////////////////////////////////////////////\n    /*\n     *  Constants\n     */\n    // This is equal to 1 in our calculations\n    uint public constant ONE =  0x10000000000000000;\n    uint public constant LN2 = 0xb17217f7d1cf79ac;\n    uint public constant LOG2_E = 0x171547652b82fe177;\n\n    // 1. square root function\n    function sqrt(uint x) internal pure returns (uint y) {\n        if (x == 0) return 0;\n        else if (x <= 3) return 1;\n        uint z = (x + 1) / 2;\n        y = x;\n        while (z < y){\n            y = z;\n            z = (x / z + z) / 2;\n        }\n    }\n\n\n    /// @dev Returns maximum of an array\n    /// @param i1 Numbers to look through\n    /// @param i2 Numbers to look through\n    /// @return Maximum number\n    function findMax(uint256 i1, uint256 i2) internal pure returns (uint) {\n        if (i1 > i2) {\n            return i1;\n        } else {\n            return i2;\n        }\n    }\n\n\n}\n",
  "sourcePath": "/Users/fancy/Documents/Ocean Protocol/research/Hackton/plankton-keeper/contracts/Market.sol",
  "compiler": {
    "name": "solc",
    "version": "0.4.21+commit.dfe3193c.Emscripten.clang"
  },
  "schemaVersion": "2.0.0",
  "updatedAt": "2018-06-05T12:19:09.728Z"
}