{
  "contractName": "OceanToken",
  "abi": [
    {
      "constant": true,
      "inputs": [],
      "name": "_receiver",
      "outputs": [
        {
          "name": "",
          "type": "address"
        }
      ],
      "payable": false,
      "stateMutability": "view",
      "type": "function"
    },
    {
      "constant": true,
      "inputs": [],
      "name": "initTime",
      "outputs": [
        {
          "name": "",
          "type": "uint256"
        }
      ],
      "payable": false,
      "stateMutability": "view",
      "type": "function"
    },
    {
      "constant": true,
      "inputs": [],
      "name": "name",
      "outputs": [
        {
          "name": "",
          "type": "string"
        }
      ],
      "payable": false,
      "stateMutability": "view",
      "type": "function"
    },
    {
      "constant": true,
      "inputs": [],
      "name": "totalSupply",
      "outputs": [
        {
          "name": "",
          "type": "uint256"
        }
      ],
      "payable": false,
      "stateMutability": "view",
      "type": "function"
    },
    {
      "constant": true,
      "inputs": [],
      "name": "INITIAL_SUPPLY",
      "outputs": [
        {
          "name": "",
          "type": "uint256"
        }
      ],
      "payable": false,
      "stateMutability": "view",
      "type": "function"
    },
    {
      "constant": true,
      "inputs": [],
      "name": "decimals",
      "outputs": [
        {
          "name": "",
          "type": "uint8"
        }
      ],
      "payable": false,
      "stateMutability": "view",
      "type": "function"
    },
    {
      "constant": false,
      "inputs": [
        {
          "name": "_spender",
          "type": "address"
        },
        {
          "name": "_subtractedValue",
          "type": "uint256"
        }
      ],
      "name": "decreaseApproval",
      "outputs": [
        {
          "name": "success",
          "type": "bool"
        }
      ],
      "payable": false,
      "stateMutability": "nonpayable",
      "type": "function"
    },
    {
      "constant": true,
      "inputs": [
        {
          "name": "_owner",
          "type": "address"
        }
      ],
      "name": "balanceOf",
      "outputs": [
        {
          "name": "balance",
          "type": "uint256"
        }
      ],
      "payable": false,
      "stateMutability": "view",
      "type": "function"
    },
    {
      "constant": true,
      "inputs": [],
      "name": "REWARD_SUPPLY",
      "outputs": [
        {
          "name": "",
          "type": "uint256"
        }
      ],
      "payable": false,
      "stateMutability": "view",
      "type": "function"
    },
    {
      "constant": true,
      "inputs": [],
      "name": "numReward",
      "outputs": [
        {
          "name": "",
          "type": "uint256"
        }
      ],
      "payable": false,
      "stateMutability": "view",
      "type": "function"
    },
    {
      "constant": true,
      "inputs": [],
      "name": "TOTAL_SUPPLY",
      "outputs": [
        {
          "name": "",
          "type": "uint256"
        }
      ],
      "payable": false,
      "stateMutability": "view",
      "type": "function"
    },
    {
      "constant": true,
      "inputs": [],
      "name": "symbol",
      "outputs": [
        {
          "name": "",
          "type": "string"
        }
      ],
      "payable": false,
      "stateMutability": "view",
      "type": "function"
    },
    {
      "constant": false,
      "inputs": [
        {
          "name": "_spender",
          "type": "address"
        },
        {
          "name": "_addedValue",
          "type": "uint256"
        }
      ],
      "name": "increaseApproval",
      "outputs": [
        {
          "name": "success",
          "type": "bool"
        }
      ],
      "payable": false,
      "stateMutability": "nonpayable",
      "type": "function"
    },
    {
      "inputs": [],
      "payable": false,
      "stateMutability": "nonpayable",
      "type": "constructor"
    },
    {
      "anonymous": false,
      "inputs": [
        {
          "indexed": true,
          "name": "owner",
          "type": "address"
        },
        {
          "indexed": true,
          "name": "spender",
          "type": "address"
        },
        {
          "indexed": false,
          "name": "value",
          "type": "uint256"
        }
      ],
      "name": "Approval",
      "type": "event"
    },
    {
      "anonymous": false,
      "inputs": [
        {
          "indexed": true,
          "name": "from",
          "type": "address"
        },
        {
          "indexed": true,
          "name": "to",
          "type": "address"
        },
        {
          "indexed": false,
          "name": "value",
          "type": "uint256"
        }
      ],
      "name": "Transfer",
      "type": "event"
    },
    {
      "constant": false,
      "inputs": [
        {
          "name": "_to",
          "type": "address"
        }
      ],
      "name": "setReceiver",
      "outputs": [
        {
          "name": "success",
          "type": "bool"
        }
      ],
      "payable": false,
      "stateMutability": "nonpayable",
      "type": "function"
    },
    {
      "constant": false,
      "inputs": [],
      "name": "emitTokens",
      "outputs": [
        {
          "name": "success",
          "type": "bool"
        }
      ],
      "payable": false,
      "stateMutability": "nonpayable",
      "type": "function"
    },
    {
      "constant": false,
      "inputs": [
        {
          "name": "_to",
          "type": "address"
        },
        {
          "name": "_value",
          "type": "uint256"
        }
      ],
      "name": "transfer",
      "outputs": [
        {
          "name": "",
          "type": "bool"
        }
      ],
      "payable": false,
      "stateMutability": "nonpayable",
      "type": "function"
    },
    {
      "constant": false,
      "inputs": [
        {
          "name": "_from",
          "type": "address"
        },
        {
          "name": "_to",
          "type": "address"
        },
        {
          "name": "_value",
          "type": "uint256"
        }
      ],
      "name": "transferFrom",
      "outputs": [
        {
          "name": "",
          "type": "bool"
        }
      ],
      "payable": false,
      "stateMutability": "nonpayable",
      "type": "function"
    },
    {
      "constant": false,
      "inputs": [
        {
          "name": "_spender",
          "type": "address"
        },
        {
          "name": "_value",
          "type": "uint256"
        }
      ],
      "name": "approve",
      "outputs": [
        {
          "name": "",
          "type": "bool"
        }
      ],
      "payable": false,
      "stateMutability": "nonpayable",
      "type": "function"
    },
    {
      "constant": true,
      "inputs": [
        {
          "name": "_owner",
          "type": "address"
        },
        {
          "name": "_spender",
          "type": "address"
        }
      ],
      "name": "allowance",
      "outputs": [
        {
          "name": "",
          "type": "uint256"
        }
      ],
      "payable": false,
      "stateMutability": "view",
      "type": "function"
    }
  ],
  "bytecode": "0x60606040526200004e606462000031603762013880620000e564010000000002620018d0179091906401000000009004565b6200011b6401000000000262001810179091906401000000009004565b60065562000079600654620138806200013764010000000002620015d3179091906401000000009004565b60075560006008556000600a60006101000a81548173ffffffffffffffffffffffffffffffffffffffff021916908373ffffffffffffffffffffffffffffffffffffffff1602179055503415620000cf57600080fd5b600654600b819055504260098190555062000151565b600080828402905060008414806200010857508284828115156200010557fe5b04145b15156200011157fe5b8091505092915050565b60008082848115156200012a57fe5b0490508091505092915050565b60008282111515156200014657fe5b818303905092915050565b61192f80620001616000396000f300606060405260043610610107576000357c0100000000000000000000000000000000000000000000000000000000900463ffffffff16806302964ff11461010c578063041151871461016157806306fdde031461018a578063095ea7b31461021857806318160ddd1461027257806323b872dd1461029b5780632ff2e9dc14610314578063313ce5671461033d578063661884631461036c57806370a08231146103c6578063718da7ee1461041357806373e40ed4146104645780637f0068b01461048d578063902d55a5146104b657806395d89b41146104df578063a9059cbb1461056d578063c89aee83146105c7578063d73dd623146105f4578063dd62ed3e1461064e575b600080fd5b341561011757600080fd5b61011f6106ba565b604051808273ffffffffffffffffffffffffffffffffffffffff1673ffffffffffffffffffffffffffffffffffffffff16815260200191505060405180910390f35b341561016c57600080fd5b6101746106e0565b6040518082815260200191505060405180910390f35b341561019557600080fd5b61019d6106e6565b6040518080602001828103825283818151815260200191508051906020019080838360005b838110156101dd5780820151818401526020810190506101c2565b50505050905090810190601f16801561020a5780820380516001836020036101000a031916815260200191505b509250505060405180910390f35b341561022357600080fd5b610258600480803573ffffffffffffffffffffffffffffffffffffffff1690602001909190803590602001909190505061071f565b604051808215151515815260200191505060405180910390f35b341561027d57600080fd5b610285610733565b6040518082815260200191505060405180910390f35b34156102a657600080fd5b6102fa600480803573ffffffffffffffffffffffffffffffffffffffff1690602001909190803573ffffffffffffffffffffffffffffffffffffffff16906020019091908035906020019091905050610739565b604051808215151515815260200191505060405180910390f35b341561031f57600080fd5b61032761078a565b6040518082815260200191505060405180910390f35b341561034857600080fd5b610350610790565b604051808260ff1660ff16815260200191505060405180910390f35b341561037757600080fd5b6103ac600480803573ffffffffffffffffffffffffffffffffffffffff16906020019091908035906020019091905050610795565b604051808215151515815260200191505060405180910390f35b34156103d157600080fd5b6103fd600480803573ffffffffffffffffffffffffffffffffffffffff16906020019091905050610a26565b6040518082815260200191505060405180910390f35b341561041e57600080fd5b61044a600480803573ffffffffffffffffffffffffffffffffffffffff16906020019091905050610a6f565b604051808215151515815260200191505060405180910390f35b341561046f57600080fd5b610477610b97565b6040518082815260200191505060405180910390f35b341561049857600080fd5b6104a0610b9d565b6040518082815260200191505060405180910390f35b34156104c157600080fd5b6104c9610ba3565b6040518082815260200191505060405180910390f35b34156104ea57600080fd5b6104f2610baa565b6040518080602001828103825283818151815260200191508051906020019080838360005b83811015610532578082015181840152602081019050610517565b50505050905090810190601f16801561055f5780820380516001836020036101000a031916815260200191505b509250505060405180910390f35b341561057857600080fd5b6105ad600480803573ffffffffffffffffffffffffffffffffffffffff16906020019091908035906020019091905050610be3565b604051808215151515815260200191505060405180910390f35b34156105d257600080fd5b6105da610c32565b604051808215151515815260200191505060405180910390f35b34156105ff57600080fd5b610634600480803573ffffffffffffffffffffffffffffffffffffffff16906020019091908035906020019091905050610e89565b604051808215151515815260200191505060405180910390f35b341561065957600080fd5b6106a4600480803573ffffffffffffffffffffffffffffffffffffffff1690602001909190803573ffffffffffffffffffffffffffffffffffffffff16906020019091905050611085565b6040518082815260200191505060405180910390f35b600a60009054906101000a900473ffffffffffffffffffffffffffffffffffffffff1681565b60095481565b6040805190810160405280600a81526020017f4f6365616e546f6b656e0000000000000000000000000000000000000000000081525081565b600061072b8383611099565b905092915050565b600b5481565b60008073ffffffffffffffffffffffffffffffffffffffff168373ffffffffffffffffffffffffffffffffffffffff161415151561077657600080fd5b610781848484611214565b90509392505050565b60065481565b600281565b600080600260003373ffffffffffffffffffffffffffffffffffffffff1673ffffffffffffffffffffffffffffffffffffffff16815260200190815260200160002060008573ffffffffffffffffffffffffffffffffffffffff1673ffffffffffffffffffffffffffffffffffffffff168152602001908152602001600020549050808311156108a6576000600260003373ffffffffffffffffffffffffffffffffffffffff1673ffffffffffffffffffffffffffffffffffffffff16815260200190815260200160002060008673ffffffffffffffffffffffffffffffffffffffff1673ffffffffffffffffffffffffffffffffffffffff1681526020019081526020016000208190555061093a565b6108b983826115d390919063ffffffff16565b600260003373ffffffffffffffffffffffffffffffffffffffff1673ffffffffffffffffffffffffffffffffffffffff16815260200190815260200160002060008673ffffffffffffffffffffffffffffffffffffffff1673ffffffffffffffffffffffffffffffffffffffff168152602001908152602001600020819055505b8373ffffffffffffffffffffffffffffffffffffffff163373ffffffffffffffffffffffffffffffffffffffff167f8c5be1e5ebec7d5bd14f71427d1e84f3dd0314c0f7b2291e5b200ac8c7c3b925600260003373ffffffffffffffffffffffffffffffffffffffff1673ffffffffffffffffffffffffffffffffffffffff16815260200190815260200160002060008873ffffffffffffffffffffffffffffffffffffffff1673ffffffffffffffffffffffffffffffffffffffff168152602001908152602001600020546040518082815260200191505060405180910390a3600191505092915050565b6000600160008373ffffffffffffffffffffffffffffffffffffffff1673ffffffffffffffffffffffffffffffffffffffff168152602001908152602001600020549050919050565b600081600a60006101000a81548173ffffffffffffffffffffffffffffffffffffffff021916908373ffffffffffffffffffffffffffffffffffffffff16021790555060065460016000600a60009054906101000a900473ffffffffffffffffffffffffffffffffffffffff1673ffffffffffffffffffffffffffffffffffffffff1673ffffffffffffffffffffffffffffffffffffffff16815260200190815260200160002081905550600a60009054906101000a900473ffffffffffffffffffffffffffffffffffffffff1673ffffffffffffffffffffffffffffffffffffffff1660007fddf252ad1be2c89b69c2b068fc378daa952ba7f163c4a11628f55a4df523b3ef6006546040518082815260200191505060405180910390a360019050919050565b60075481565b60085481565b6201388081565b6040805190810160405280600381526020017f4f434e000000000000000000000000000000000000000000000000000000000081525081565b60008073ffffffffffffffffffffffffffffffffffffffff168373ffffffffffffffffffffffffffffffffffffffff1614151515610c2057600080fd5b610c2a83836115ec565b905092915050565b600080600080600062013880600b541415610c505760019450610e82565b610c68601e600954420361181090919063ffffffff16565b93508360020a9250610c99610c888460075461181090919063ffffffff16565b6007546115d390919063ffffffff16565b9150610cb0600854836115d390919063ffffffff16565b905081600881905550610cce81600b5461182b90919063ffffffff16565b600b819055506000600a60009054906101000a900473ffffffffffffffffffffffffffffffffffffffff1673ffffffffffffffffffffffffffffffffffffffff1614151515610d1c57600080fd5b610d908160016000600a60009054906101000a900473ffffffffffffffffffffffffffffffffffffffff1673ffffffffffffffffffffffffffffffffffffffff1673ffffffffffffffffffffffffffffffffffffffff1681526020019081526020016000205461182b90919063ffffffff16565b60016000600a60009054906101000a900473ffffffffffffffffffffffffffffffffffffffff1673ffffffffffffffffffffffffffffffffffffffff1673ffffffffffffffffffffffffffffffffffffffff16815260200190815260200160002081905550600a60009054906101000a900473ffffffffffffffffffffffffffffffffffffffff1673ffffffffffffffffffffffffffffffffffffffff16600073ffffffffffffffffffffffffffffffffffffffff167fddf252ad1be2c89b69c2b068fc378daa952ba7f163c4a11628f55a4df523b3ef836040518082815260200191505060405180910390a3600194505b5050505090565b6000610f1a82600260003373ffffffffffffffffffffffffffffffffffffffff1673ffffffffffffffffffffffffffffffffffffffff16815260200190815260200160002060008673ffffffffffffffffffffffffffffffffffffffff1673ffffffffffffffffffffffffffffffffffffffff1681526020019081526020016000205461182b90919063ffffffff16565b600260003373ffffffffffffffffffffffffffffffffffffffff1673ffffffffffffffffffffffffffffffffffffffff16815260200190815260200160002060008573ffffffffffffffffffffffffffffffffffffffff1673ffffffffffffffffffffffffffffffffffffffff168152602001908152602001600020819055508273ffffffffffffffffffffffffffffffffffffffff163373ffffffffffffffffffffffffffffffffffffffff167f8c5be1e5ebec7d5bd14f71427d1e84f3dd0314c0f7b2291e5b200ac8c7c3b925600260003373ffffffffffffffffffffffffffffffffffffffff1673ffffffffffffffffffffffffffffffffffffffff16815260200190815260200160002060008773ffffffffffffffffffffffffffffffffffffffff1673ffffffffffffffffffffffffffffffffffffffff168152602001908152602001600020546040518082815260200191505060405180910390a36001905092915050565b60006110918383611849565b905092915050565b600033600360006101000a81548173ffffffffffffffffffffffffffffffffffffffff021916908373ffffffffffffffffffffffffffffffffffffffff16021790555082600460006101000a81548173ffffffffffffffffffffffffffffffffffffffff021916908373ffffffffffffffffffffffffffffffffffffffff1602179055508160058190555081600260003373ffffffffffffffffffffffffffffffffffffffff1673ffffffffffffffffffffffffffffffffffffffff16815260200190815260200160002060008573ffffffffffffffffffffffffffffffffffffffff1673ffffffffffffffffffffffffffffffffffffffff168152602001908152602001600020819055508273ffffffffffffffffffffffffffffffffffffffff163373ffffffffffffffffffffffffffffffffffffffff167f8c5be1e5ebec7d5bd14f71427d1e84f3dd0314c0f7b2291e5b200ac8c7c3b925846040518082815260200191505060405180910390a36001905092915050565b60008073ffffffffffffffffffffffffffffffffffffffff168373ffffffffffffffffffffffffffffffffffffffff161415151561125157600080fd5b600160008573ffffffffffffffffffffffffffffffffffffffff1673ffffffffffffffffffffffffffffffffffffffff16815260200190815260200160002054821115151561129f57600080fd5b600260008573ffffffffffffffffffffffffffffffffffffffff1673ffffffffffffffffffffffffffffffffffffffff16815260200190815260200160002060003373ffffffffffffffffffffffffffffffffffffffff1673ffffffffffffffffffffffffffffffffffffffff16815260200190815260200160002054821115151561132a57600080fd5b61137c82600160008773ffffffffffffffffffffffffffffffffffffffff1673ffffffffffffffffffffffffffffffffffffffff168152602001908152602001600020546115d390919063ffffffff16565b600160008673ffffffffffffffffffffffffffffffffffffffff1673ffffffffffffffffffffffffffffffffffffffff1681526020019081526020016000208190555061141182600160008673ffffffffffffffffffffffffffffffffffffffff1673ffffffffffffffffffffffffffffffffffffffff1681526020019081526020016000205461182b90919063ffffffff16565b600160008573ffffffffffffffffffffffffffffffffffffffff1673ffffffffffffffffffffffffffffffffffffffff168152602001908152602001600020819055506114e382600260008773ffffffffffffffffffffffffffffffffffffffff1673ffffffffffffffffffffffffffffffffffffffff16815260200190815260200160002060003373ffffffffffffffffffffffffffffffffffffffff1673ffffffffffffffffffffffffffffffffffffffff168152602001908152602001600020546115d390919063ffffffff16565b600260008673ffffffffffffffffffffffffffffffffffffffff1673ffffffffffffffffffffffffffffffffffffffff16815260200190815260200160002060003373ffffffffffffffffffffffffffffffffffffffff1673ffffffffffffffffffffffffffffffffffffffff168152602001908152602001600020819055508273ffffffffffffffffffffffffffffffffffffffff168473ffffffffffffffffffffffffffffffffffffffff167fddf252ad1be2c89b69c2b068fc378daa952ba7f163c4a11628f55a4df523b3ef846040518082815260200191505060405180910390a3600190509392505050565b60008282111515156115e157fe5b818303905092915050565b60008073ffffffffffffffffffffffffffffffffffffffff168373ffffffffffffffffffffffffffffffffffffffff161415151561162957600080fd5b600160003373ffffffffffffffffffffffffffffffffffffffff1673ffffffffffffffffffffffffffffffffffffffff16815260200190815260200160002054821115151561167757600080fd5b6116c982600160003373ffffffffffffffffffffffffffffffffffffffff1673ffffffffffffffffffffffffffffffffffffffff168152602001908152602001600020546115d390919063ffffffff16565b600160003373ffffffffffffffffffffffffffffffffffffffff1673ffffffffffffffffffffffffffffffffffffffff1681526020019081526020016000208190555061175e82600160008673ffffffffffffffffffffffffffffffffffffffff1673ffffffffffffffffffffffffffffffffffffffff1681526020019081526020016000205461182b90919063ffffffff16565b600160008573ffffffffffffffffffffffffffffffffffffffff1673ffffffffffffffffffffffffffffffffffffffff168152602001908152602001600020819055508273ffffffffffffffffffffffffffffffffffffffff163373ffffffffffffffffffffffffffffffffffffffff167fddf252ad1be2c89b69c2b068fc378daa952ba7f163c4a11628f55a4df523b3ef846040518082815260200191505060405180910390a36001905092915050565b600080828481151561181e57fe5b0490508091505092915050565b600080828401905083811015151561183f57fe5b8091505092915050565b6000600260008473ffffffffffffffffffffffffffffffffffffffff1673ffffffffffffffffffffffffffffffffffffffff16815260200190815260200160002060008373ffffffffffffffffffffffffffffffffffffffff1673ffffffffffffffffffffffffffffffffffffffff16815260200190815260200160002054905092915050565b600080828402905060008414806118f157508284828115156118ee57fe5b04145b15156118f957fe5b80915050929150505600a165627a7a72305820183643517a02292911870a4c4fef9cf732acf89baddf1e7832867f3a179dee8f0029",
  "source": "pragma solidity ^0.4.21;\n\nimport \"../zeppelin/StandardToken.sol\";\nimport \"../zeppelin/Ownable.sol\";\n//import \"zeppelin/math/SafeMath.sol\";\n\ncontract OceanToken is StandardToken {\n\n  using SafeMath for uint256;\n\n  string public constant name = 'OceanToken';                                  // Set the token name for display\n  string public constant symbol = 'OCN';                                       // Set the token symbol for display\n\n  // SUPPLY\n  uint8 public constant decimals = 2;  // 8;                                   // Set the number of decimals for display\n  uint256 public constant TOTAL_SUPPLY = 80000; //1400000000 * 10**8;          // 1.4 billion OceanToken specified in Grains\n  uint256 public INITIAL_SUPPLY = TOTAL_SUPPLY.mul(55).div(100);               // 55% tokens is available initially\n  uint256 public REWARD_SUPPLY = TOTAL_SUPPLY.sub(INITIAL_SUPPLY);             // 45% of totalSupply is used for block rewards\n  uint256 public numReward = 0;                                                // number of reward tokens\n  uint256 public initTime;                                                     // initial timestamp of contract creation\n\n  // EMIT TOKENS\n  address public _receiver = 0x0;                                              // address to receive TOKENS\n  uint256 public totalSupply;                                                  // total supply of Ocean tokens including initial tokens plus block rewards\n\n  /**\n   * @dev OceanToken Constructor\n   * Runs only on initial contract creation.\n   */\n  function OceanToken() public {\n    totalSupply = INITIAL_SUPPLY;\n    initTime = now;\n  }\n\n  /**\n   * @dev setReceiver set the address to receive the emitted tokens\n   * @param _to The address to send tokens\n   * @return success setting is successful.\n   */\n  function setReceiver(address _to) public returns(bool success){\n    //require(_receiver == 0x0);\n    _receiver = _to;\n    balances[_receiver] = INITIAL_SUPPLY;                             // Creator address is assigned initial available tokens\n    emit Transfer(0x0, _receiver, INITIAL_SUPPLY);\n    return true;\n  }\n\n  /**\n   * @dev emitTokens Ocean tokens according to schedule forumla\n   * @return success the mining of Ocean tokens is successful.\n   */\n  function emitTokens() public returns (bool success) {\n    // check if all tokens have been emitted\n    if (totalSupply == TOTAL_SUPPLY){\n      return true;\n    }\n\n    //uint256 tH = (now - initTime).div( 10 * 365 * 24 * 60 * 60 * 1 seconds );  // half-life is 10 years\n    uint256 tH = (now - initTime).div( 30 * 1 seconds );            // half-life is 30 second: release 50% after 30 seconds\n    uint256 base = 2 ** tH;\n    uint256 nowReward = REWARD_SUPPLY.sub(REWARD_SUPPLY.div(base)); // nowReward is the amount of reward tokens at current timestamp\n\n    uint256 newTokens = nowReward.sub(numReward);                   // newTokens is the amount of newly-emitted tokens\n    numReward = nowReward;\n\n    // update total supply\n    totalSupply = totalSupply.add(newTokens);\n    require(_receiver != 0x0);\n    balances[_receiver] = balances[_receiver].add(newTokens);\n    emit Transfer(address(0), _receiver, newTokens);\n    return true;\n  }\n\n  /**\n   * @dev Transfer token for a specified address when not paused\n   * @param _to The address to transfer to.\n   * @param _value The amount to be transferred.\n   */\n  function transfer(address _to, uint256 _value) public returns (bool) {\n    require(_to != address(0));\n    return super.transfer(_to, _value);\n  }\n\n  /**\n   * @dev Transfer tokens from one address to another when not paused\n   * @param _from address The address which you want to send tokens from\n   * @param _to address The address which you want to transfer to\n   * @param _value uint256 the amount of tokens to be transferred\n   */\n  function transferFrom(address _from, address _to, uint256 _value) public returns (bool) {\n    require(_to != address(0));\n    return super.transferFrom(_from, _to, _value);\n  }\n\n  /**\n   * @dev Aprove the passed address to spend the specified amount of tokens on behalf of msg.sender when not paused.\n   * @param _spender The address which will spend the funds.\n   * @param _value The amount of tokens to be spent.\n   */\n  function approve(address _spender, uint256 _value) public returns (bool) {\n    return super.approve(_spender, _value);\n  }\n  function allowance(address _owner, address _spender) public constant returns (uint256) {\n    return super.allowance(_owner,_spender);\n  }\n\n}\n",
  "sourcePath": "/Users/fancy/Documents/Ocean Protocol/research/Hackton/plankton-keeper/contracts/token/OceanToken.sol",
  "compiler": {
    "name": "solc",
    "version": "0.4.21+commit.dfe3193c.Emscripten.clang"
  },
  "schemaVersion": "2.0.0",
  "updatedAt": "2018-06-05T07:19:39.985Z"
}